Archive member included to satisfy reference by file (symbol)

d:/stm32cubemx/stm32cubeide_1.0.2/stm32cubeide/plugins/com.st.stm32cube.ide.mcu.externaltools.gnu-tools-for-stm32.7-2018-q2-update.win32_1.4.0.202007081208/tools/bin/../lib/gcc/arm-none-eabi/7.3.1/../../../../arm-none-eabi/lib/thumb/v7e-m/fpv5/hard\libstdc++_nano.a(new_opv.o)
                              Core/Inc/AutoPilot/LizhongAutoPilot.o (operator new[](unsigned int))
d:/stm32cubemx/stm32cubeide_1.0.2/stm32cubeide/plugins/com.st.stm32cube.ide.mcu.externaltools.gnu-tools-for-stm32.7-2018-q2-update.win32_1.4.0.202007081208/tools/bin/../lib/gcc/arm-none-eabi/7.3.1/../../../../arm-none-eabi/lib/thumb/v7e-m/fpv5/hard\libstdc++_nano.a(new_op.o)
                              Core/Inc/AutoPilot/LizhongAutoPilot.o (operator new(unsigned int))
d:/stm32cubemx/stm32cubeide_1.0.2/stm32cubeide/plugins/com.st.stm32cube.ide.mcu.externaltools.gnu-tools-for-stm32.7-2018-q2-update.win32_1.4.0.202007081208/tools/bin/../lib/gcc/arm-none-eabi/7.3.1/../../../../arm-none-eabi/lib/thumb/v7e-m/fpv5/hard\libstdc++_nano.a(new_handler.o)
                              d:/stm32cubemx/stm32cubeide_1.0.2/stm32cubeide/plugins/com.st.stm32cube.ide.mcu.externaltools.gnu-tools-for-stm32.7-2018-q2-update.win32_1.4.0.202007081208/tools/bin/../lib/gcc/arm-none-eabi/7.3.1/../../../../arm-none-eabi/lib/thumb/v7e-m/fpv5/hard\libstdc++_nano.a(new_op.o) (std::get_new_handler())
d:/stm32cubemx/stm32cubeide_1.0.2/stm32cubeide/plugins/com.st.stm32cube.ide.mcu.externaltools.gnu-tools-for-stm32.7-2018-q2-update.win32_1.4.0.202007081208/tools/bin/../lib/gcc/arm-none-eabi/7.3.1/../../../../arm-none-eabi/lib/thumb/v7e-m/fpv5/hard\libm.a(lib_a-s_cos.o)
                              Core/Inc/AutoPilot/LizhongAutoPilot.o (cos)
d:/stm32cubemx/stm32cubeide_1.0.2/stm32cubeide/plugins/com.st.stm32cube.ide.mcu.externaltools.gnu-tools-for-stm32.7-2018-q2-update.win32_1.4.0.202007081208/tools/bin/../lib/gcc/arm-none-eabi/7.3.1/../../../../arm-none-eabi/lib/thumb/v7e-m/fpv5/hard\libm.a(lib_a-s_sin.o)
                              Core/Inc/AutoPilot/LizhongAutoPilot.o (sin)
d:/stm32cubemx/stm32cubeide_1.0.2/stm32cubeide/plugins/com.st.stm32cube.ide.mcu.externaltools.gnu-tools-for-stm32.7-2018-q2-update.win32_1.4.0.202007081208/tools/bin/../lib/gcc/arm-none-eabi/7.3.1/../../../../arm-none-eabi/lib/thumb/v7e-m/fpv5/hard\libm.a(lib_a-sf_cos.o)
                              Core/Inc/AutoPilot/LizhongAutoPilot.o (cosf)
d:/stm32cubemx/stm32cubeide_1.0.2/stm32cubeide/plugins/com.st.stm32cube.ide.mcu.externaltools.gnu-tools-for-stm32.7-2018-q2-update.win32_1.4.0.202007081208/tools/bin/../lib/gcc/arm-none-eabi/7.3.1/../../../../arm-none-eabi/lib/thumb/v7e-m/fpv5/hard\libm.a(lib_a-sf_sin.o)
                              Core/Inc/AutoPilot/LizhongAutoPilot.o (sinf)
d:/stm32cubemx/stm32cubeide_1.0.2/stm32cubeide/plugins/com.st.stm32cube.ide.mcu.externaltools.gnu-tools-for-stm32.7-2018-q2-update.win32_1.4.0.202007081208/tools/bin/../lib/gcc/arm-none-eabi/7.3.1/../../../../arm-none-eabi/lib/thumb/v7e-m/fpv5/hard\libm.a(lib_a-w_atan2.o)
                              Core/Inc/Algorithm/MahonyAHRS.o (atan2)
d:/stm32cubemx/stm32cubeide_1.0.2/stm32cubeide/plugins/com.st.stm32cube.ide.mcu.externaltools.gnu-tools-for-stm32.7-2018-q2-update.win32_1.4.0.202007081208/tools/bin/../lib/gcc/arm-none-eabi/7.3.1/../../../../arm-none-eabi/lib/thumb/v7e-m/fpv5/hard\libm.a(lib_a-w_sqrt.o)
                              Core/Inc/Algorithm/MahonyAHRS.o (sqrt)
d:/stm32cubemx/stm32cubeide_1.0.2/stm32cubeide/plugins/com.st.stm32cube.ide.mcu.externaltools.gnu-tools-for-stm32.7-2018-q2-update.win32_1.4.0.202007081208/tools/bin/../lib/gcc/arm-none-eabi/7.3.1/../../../../arm-none-eabi/lib/thumb/v7e-m/fpv5/hard\libm.a(lib_a-e_atan2.o)
                              d:/stm32cubemx/stm32cubeide_1.0.2/stm32cubeide/plugins/com.st.stm32cube.ide.mcu.externaltools.gnu-tools-for-stm32.7-2018-q2-update.win32_1.4.0.202007081208/tools/bin/../lib/gcc/arm-none-eabi/7.3.1/../../../../arm-none-eabi/lib/thumb/v7e-m/fpv5/hard\libm.a(lib_a-w_atan2.o) (__ieee754_atan2)
d:/stm32cubemx/stm32cubeide_1.0.2/stm32cubeide/plugins/com.st.stm32cube.ide.mcu.externaltools.gnu-tools-for-stm32.7-2018-q2-update.win32_1.4.0.202007081208/tools/bin/../lib/gcc/arm-none-eabi/7.3.1/../../../../arm-none-eabi/lib/thumb/v7e-m/fpv5/hard\libm.a(lib_a-e_rem_pio2.o)
                              d:/stm32cubemx/stm32cubeide_1.0.2/stm32cubeide/plugins/com.st.stm32cube.ide.mcu.externaltools.gnu-tools-for-stm32.7-2018-q2-update.win32_1.4.0.202007081208/tools/bin/../lib/gcc/arm-none-eabi/7.3.1/../../../../arm-none-eabi/lib/thumb/v7e-m/fpv5/hard\libm.a(lib_a-s_cos.o) (__ieee754_rem_pio2)
d:/stm32cubemx/stm32cubeide_1.0.2/stm32cubeide/plugins/com.st.stm32cube.ide.mcu.externaltools.gnu-tools-for-stm32.7-2018-q2-update.win32_1.4.0.202007081208/tools/bin/../lib/gcc/arm-none-eabi/7.3.1/../../../../arm-none-eabi/lib/thumb/v7e-m/fpv5/hard\libm.a(lib_a-e_sqrt.o)
                              d:/stm32cubemx/stm32cubeide_1.0.2/stm32cubeide/plugins/com.st.stm32cube.ide.mcu.externaltools.gnu-tools-for-stm32.7-2018-q2-update.win32_1.4.0.202007081208/tools/bin/../lib/gcc/arm-none-eabi/7.3.1/../../../../arm-none-eabi/lib/thumb/v7e-m/fpv5/hard\libm.a(lib_a-w_sqrt.o) (__ieee754_sqrt)
d:/stm32cubemx/stm32cubeide_1.0.2/stm32cubeide/plugins/com.st.stm32cube.ide.mcu.externaltools.gnu-tools-for-stm32.7-2018-q2-update.win32_1.4.0.202007081208/tools/bin/../lib/gcc/arm-none-eabi/7.3.1/../../../../arm-none-eabi/lib/thumb/v7e-m/fpv5/hard\libm.a(lib_a-ef_rem_pio2.o)
                              d:/stm32cubemx/stm32cubeide_1.0.2/stm32cubeide/plugins/com.st.stm32cube.ide.mcu.externaltools.gnu-tools-for-stm32.7-2018-q2-update.win32_1.4.0.202007081208/tools/bin/../lib/gcc/arm-none-eabi/7.3.1/../../../../arm-none-eabi/lib/thumb/v7e-m/fpv5/hard\libm.a(lib_a-sf_cos.o) (__ieee754_rem_pio2f)
d:/stm32cubemx/stm32cubeide_1.0.2/stm32cubeide/plugins/com.st.stm32cube.ide.mcu.externaltools.gnu-tools-for-stm32.7-2018-q2-update.win32_1.4.0.202007081208/tools/bin/../lib/gcc/arm-none-eabi/7.3.1/../../../../arm-none-eabi/lib/thumb/v7e-m/fpv5/hard\libm.a(lib_a-k_cos.o)
                              d:/stm32cubemx/stm32cubeide_1.0.2/stm32cubeide/plugins/com.st.stm32cube.ide.mcu.externaltools.gnu-tools-for-stm32.7-2018-q2-update.win32_1.4.0.202007081208/tools/bin/../lib/gcc/arm-none-eabi/7.3.1/../../../../arm-none-eabi/lib/thumb/v7e-m/fpv5/hard\libm.a(lib_a-s_cos.o) (__kernel_cos)
d:/stm32cubemx/stm32cubeide_1.0.2/stm32cubeide/plugins/com.st.stm32cube.ide.mcu.externaltools.gnu-tools-for-stm32.7-2018-q2-update.win32_1.4.0.202007081208/tools/bin/../lib/gcc/arm-none-eabi/7.3.1/../../../../arm-none-eabi/lib/thumb/v7e-m/fpv5/hard\libm.a(lib_a-k_rem_pio2.o)
                              d:/stm32cubemx/stm32cubeide_1.0.2/stm32cubeide/plugins/com.st.stm32cube.ide.mcu.externaltools.gnu-tools-for-stm32.7-2018-q2-update.win32_1.4.0.202007081208/tools/bin/../lib/gcc/arm-none-eabi/7.3.1/../../../../arm-none-eabi/lib/thumb/v7e-m/fpv5/hard\libm.a(lib_a-e_rem_pio2.o) (__kernel_rem_pio2)
d:/stm32cubemx/stm32cubeide_1.0.2/stm32cubeide/plugins/com.st.stm32cube.ide.mcu.externaltools.gnu-tools-for-stm32.7-2018-q2-update.win32_1.4.0.202007081208/tools/bin/../lib/gcc/arm-none-eabi/7.3.1/../../../../arm-none-eabi/lib/thumb/v7e-m/fpv5/hard\libm.a(lib_a-k_sin.o)
                              d:/stm32cubemx/stm32cubeide_1.0.2/stm32cubeide/plugins/com.st.stm32cube.ide.mcu.externaltools.gnu-tools-for-stm32.7-2018-q2-update.win32_1.4.0.202007081208/tools/bin/../lib/gcc/arm-none-eabi/7.3.1/../../../../arm-none-eabi/lib/thumb/v7e-m/fpv5/hard\libm.a(lib_a-s_cos.o) (__kernel_sin)
d:/stm32cubemx/stm32cubeide_1.0.2/stm32cubeide/plugins/com.st.stm32cube.ide.mcu.externaltools.gnu-tools-for-stm32.7-2018-q2-update.win32_1.4.0.202007081208/tools/bin/../lib/gcc/arm-none-eabi/7.3.1/../../../../arm-none-eabi/lib/thumb/v7e-m/fpv5/hard\libm.a(lib_a-kf_cos.o)
                              d:/stm32cubemx/stm32cubeide_1.0.2/stm32cubeide/plugins/com.st.stm32cube.ide.mcu.externaltools.gnu-tools-for-stm32.7-2018-q2-update.win32_1.4.0.202007081208/tools/bin/../lib/gcc/arm-none-eabi/7.3.1/../../../../arm-none-eabi/lib/thumb/v7e-m/fpv5/hard\libm.a(lib_a-sf_cos.o) (__kernel_cosf)
d:/stm32cubemx/stm32cubeide_1.0.2/stm32cubeide/plugins/com.st.stm32cube.ide.mcu.externaltools.gnu-tools-for-stm32.7-2018-q2-update.win32_1.4.0.202007081208/tools/bin/../lib/gcc/arm-none-eabi/7.3.1/../../../../arm-none-eabi/lib/thumb/v7e-m/fpv5/hard\libm.a(lib_a-kf_rem_pio2.o)
                              d:/stm32cubemx/stm32cubeide_1.0.2/stm32cubeide/plugins/com.st.stm32cube.ide.mcu.externaltools.gnu-tools-for-stm32.7-2018-q2-update.win32_1.4.0.202007081208/tools/bin/../lib/gcc/arm-none-eabi/7.3.1/../../../../arm-none-eabi/lib/thumb/v7e-m/fpv5/hard\libm.a(lib_a-ef_rem_pio2.o) (__kernel_rem_pio2f)
d:/stm32cubemx/stm32cubeide_1.0.2/stm32cubeide/plugins/com.st.stm32cube.ide.mcu.externaltools.gnu-tools-for-stm32.7-2018-q2-update.win32_1.4.0.202007081208/tools/bin/../lib/gcc/arm-none-eabi/7.3.1/../../../../arm-none-eabi/lib/thumb/v7e-m/fpv5/hard\libm.a(lib_a-kf_sin.o)
                              d:/stm32cubemx/stm32cubeide_1.0.2/stm32cubeide/plugins/com.st.stm32cube.ide.mcu.externaltools.gnu-tools-for-stm32.7-2018-q2-update.win32_1.4.0.202007081208/tools/bin/../lib/gcc/arm-none-eabi/7.3.1/../../../../arm-none-eabi/lib/thumb/v7e-m/fpv5/hard\libm.a(lib_a-sf_cos.o) (__kernel_sinf)
d:/stm32cubemx/stm32cubeide_1.0.2/stm32cubeide/plugins/com.st.stm32cube.ide.mcu.externaltools.gnu-tools-for-stm32.7-2018-q2-update.win32_1.4.0.202007081208/tools/bin/../lib/gcc/arm-none-eabi/7.3.1/../../../../arm-none-eabi/lib/thumb/v7e-m/fpv5/hard\libm.a(lib_a-s_atan.o)
                              d:/stm32cubemx/stm32cubeide_1.0.2/stm32cubeide/plugins/com.st.stm32cube.ide.mcu.externaltools.gnu-tools-for-stm32.7-2018-q2-update.win32_1.4.0.202007081208/tools/bin/../lib/gcc/arm-none-eabi/7.3.1/../../../../arm-none-eabi/lib/thumb/v7e-m/fpv5/hard\libm.a(lib_a-e_atan2.o) (atan)
d:/stm32cubemx/stm32cubeide_1.0.2/stm32cubeide/plugins/com.st.stm32cube.ide.mcu.externaltools.gnu-tools-for-stm32.7-2018-q2-update.win32_1.4.0.202007081208/tools/bin/../lib/gcc/arm-none-eabi/7.3.1/../../../../arm-none-eabi/lib/thumb/v7e-m/fpv5/hard\libm.a(lib_a-s_fabs.o)
                              d:/stm32cubemx/stm32cubeide_1.0.2/stm32cubeide/plugins/com.st.stm32cube.ide.mcu.externaltools.gnu-tools-for-stm32.7-2018-q2-update.win32_1.4.0.202007081208/tools/bin/../lib/gcc/arm-none-eabi/7.3.1/../../../../arm-none-eabi/lib/thumb/v7e-m/fpv5/hard\libm.a(lib_a-e_atan2.o) (fabs)
d:/stm32cubemx/stm32cubeide_1.0.2/stm32cubeide/plugins/com.st.stm32cube.ide.mcu.externaltools.gnu-tools-for-stm32.7-2018-q2-update.win32_1.4.0.202007081208/tools/bin/../lib/gcc/arm-none-eabi/7.3.1/../../../../arm-none-eabi/lib/thumb/v7e-m/fpv5/hard\libm.a(lib_a-s_floor.o)
                              d:/stm32cubemx/stm32cubeide_1.0.2/stm32cubeide/plugins/com.st.stm32cube.ide.mcu.externaltools.gnu-tools-for-stm32.7-2018-q2-update.win32_1.4.0.202007081208/tools/bin/../lib/gcc/arm-none-eabi/7.3.1/../../../../arm-none-eabi/lib/thumb/v7e-m/fpv5/hard\libm.a(lib_a-k_rem_pio2.o) (floor)
d:/stm32cubemx/stm32cubeide_1.0.2/stm32cubeide/plugins/com.st.stm32cube.ide.mcu.externaltools.gnu-tools-for-stm32.7-2018-q2-update.win32_1.4.0.202007081208/tools/bin/../lib/gcc/arm-none-eabi/7.3.1/../../../../arm-none-eabi/lib/thumb/v7e-m/fpv5/hard\libm.a(lib_a-s_lib_ver.o)
                              d:/stm32cubemx/stm32cubeide_1.0.2/stm32cubeide/plugins/com.st.stm32cube.ide.mcu.externaltools.gnu-tools-for-stm32.7-2018-q2-update.win32_1.4.0.202007081208/tools/bin/../lib/gcc/arm-none-eabi/7.3.1/../../../../arm-none-eabi/lib/thumb/v7e-m/fpv5/hard\libm.a(lib_a-w_sqrt.o) (__fdlib_version)
d:/stm32cubemx/stm32cubeide_1.0.2/stm32cubeide/plugins/com.st.stm32cube.ide.mcu.externaltools.gnu-tools-for-stm32.7-2018-q2-update.win32_1.4.0.202007081208/tools/bin/../lib/gcc/arm-none-eabi/7.3.1/../../../../arm-none-eabi/lib/thumb/v7e-m/fpv5/hard\libm.a(lib_a-s_matherr.o)
                              d:/stm32cubemx/stm32cubeide_1.0.2/stm32cubeide/plugins/com.st.stm32cube.ide.mcu.externaltools.gnu-tools-for-stm32.7-2018-q2-update.win32_1.4.0.202007081208/tools/bin/../lib/gcc/arm-none-eabi/7.3.1/../../../../arm-none-eabi/lib/thumb/v7e-m/fpv5/hard\libm.a(lib_a-w_sqrt.o) (matherr)
d:/stm32cubemx/stm32cubeide_1.0.2/stm32cubeide/plugins/com.st.stm32cube.ide.mcu.externaltools.gnu-tools-for-stm32.7-2018-q2-update.win32_1.4.0.202007081208/tools/bin/../lib/gcc/arm-none-eabi/7.3.1/../../../../arm-none-eabi/lib/thumb/v7e-m/fpv5/hard\libm.a(lib_a-s_scalbn.o)
                              d:/stm32cubemx/stm32cubeide_1.0.2/stm32cubeide/plugins/com.st.stm32cube.ide.mcu.externaltools.gnu-tools-for-stm32.7-2018-q2-update.win32_1.4.0.202007081208/tools/bin/../lib/gcc/arm-none-eabi/7.3.1/../../../../arm-none-eabi/lib/thumb/v7e-m/fpv5/hard\libm.a(lib_a-k_rem_pio2.o) (scalbn)
d:/stm32cubemx/stm32cubeide_1.0.2/stm32cubeide/plugins/com.st.stm32cube.ide.mcu.externaltools.gnu-tools-for-stm32.7-2018-q2-update.win32_1.4.0.202007081208/tools/bin/../lib/gcc/arm-none-eabi/7.3.1/../../../../arm-none-eabi/lib/thumb/v7e-m/fpv5/hard\libm.a(lib_a-sf_fabs.o)
                              d:/stm32cubemx/stm32cubeide_1.0.2/stm32cubeide/plugins/com.st.stm32cube.ide.mcu.externaltools.gnu-tools-for-stm32.7-2018-q2-update.win32_1.4.0.202007081208/tools/bin/../lib/gcc/arm-none-eabi/7.3.1/../../../../arm-none-eabi/lib/thumb/v7e-m/fpv5/hard\libm.a(lib_a-ef_rem_pio2.o) (fabsf)
d:/stm32cubemx/stm32cubeide_1.0.2/stm32cubeide/plugins/com.st.stm32cube.ide.mcu.externaltools.gnu-tools-for-stm32.7-2018-q2-update.win32_1.4.0.202007081208/tools/bin/../lib/gcc/arm-none-eabi/7.3.1/../../../../arm-none-eabi/lib/thumb/v7e-m/fpv5/hard\libm.a(lib_a-sf_floor.o)
                              d:/stm32cubemx/stm32cubeide_1.0.2/stm32cubeide/plugins/com.st.stm32cube.ide.mcu.externaltools.gnu-tools-for-stm32.7-2018-q2-update.win32_1.4.0.202007081208/tools/bin/../lib/gcc/arm-none-eabi/7.3.1/../../../../arm-none-eabi/lib/thumb/v7e-m/fpv5/hard\libm.a(lib_a-kf_rem_pio2.o) (floorf)
d:/stm32cubemx/stm32cubeide_1.0.2/stm32cubeide/plugins/com.st.stm32cube.ide.mcu.externaltools.gnu-tools-for-stm32.7-2018-q2-update.win32_1.4.0.202007081208/tools/bin/../lib/gcc/arm-none-eabi/7.3.1/../../../../arm-none-eabi/lib/thumb/v7e-m/fpv5/hard\libm.a(lib_a-sf_scalbn.o)
                              d:/stm32cubemx/stm32cubeide_1.0.2/stm32cubeide/plugins/com.st.stm32cube.ide.mcu.externaltools.gnu-tools-for-stm32.7-2018-q2-update.win32_1.4.0.202007081208/tools/bin/../lib/gcc/arm-none-eabi/7.3.1/../../../../arm-none-eabi/lib/thumb/v7e-m/fpv5/hard\libm.a(lib_a-kf_rem_pio2.o) (scalbnf)
d:/stm32cubemx/stm32cubeide_1.0.2/stm32cubeide/plugins/com.st.stm32cube.ide.mcu.externaltools.gnu-tools-for-stm32.7-2018-q2-update.win32_1.4.0.202007081208/tools/bin/../lib/gcc/arm-none-eabi/7.3.1/../../../../arm-none-eabi/lib/thumb/v7e-m/fpv5/hard\libm.a(lib_a-s_copysign.o)
                              d:/stm32cubemx/stm32cubeide_1.0.2/stm32cubeide/plugins/com.st.stm32cube.ide.mcu.externaltools.gnu-tools-for-stm32.7-2018-q2-update.win32_1.4.0.202007081208/tools/bin/../lib/gcc/arm-none-eabi/7.3.1/../../../../arm-none-eabi/lib/thumb/v7e-m/fpv5/hard\libm.a(lib_a-s_scalbn.o) (copysign)
d:/stm32cubemx/stm32cubeide_1.0.2/stm32cubeide/plugins/com.st.stm32cube.ide.mcu.externaltools.gnu-tools-for-stm32.7-2018-q2-update.win32_1.4.0.202007081208/tools/bin/../lib/gcc/arm-none-eabi/7.3.1/../../../../arm-none-eabi/lib/thumb/v7e-m/fpv5/hard\libm.a(lib_a-sf_copysign.o)
                              d:/stm32cubemx/stm32cubeide_1.0.2/stm32cubeide/plugins/com.st.stm32cube.ide.mcu.externaltools.gnu-tools-for-stm32.7-2018-q2-update.win32_1.4.0.202007081208/tools/bin/../lib/gcc/arm-none-eabi/7.3.1/../../../../arm-none-eabi/lib/thumb/v7e-m/fpv5/hard\libm.a(lib_a-sf_scalbn.o) (copysignf)
d:/stm32cubemx/stm32cubeide_1.0.2/stm32cubeide/plugins/com.st.stm32cube.ide.mcu.externaltools.gnu-tools-for-stm32.7-2018-q2-update.win32_1.4.0.202007081208/tools/bin/../lib/gcc/arm-none-eabi/7.3.1/../../../../arm-none-eabi/lib/thumb/v7e-m/fpv5/hard\libc_nano.a(lib_a-abort.o)
                              d:/stm32cubemx/stm32cubeide_1.0.2/stm32cubeide/plugins/com.st.stm32cube.ide.mcu.externaltools.gnu-tools-for-stm32.7-2018-q2-update.win32_1.4.0.202007081208/tools/bin/../lib/gcc/arm-none-eabi/7.3.1/../../../../arm-none-eabi/lib/thumb/v7e-m/fpv5/hard\libstdc++_nano.a(new_op.o) (abort)
d:/stm32cubemx/stm32cubeide_1.0.2/stm32cubeide/plugins/com.st.stm32cube.ide.mcu.externaltools.gnu-tools-for-stm32.7-2018-q2-update.win32_1.4.0.202007081208/tools/bin/../lib/gcc/arm-none-eabi/7.3.1/../../../../arm-none-eabi/lib/thumb/v7e-m/fpv5/hard\libc_nano.a(lib_a-atof.o)
                              Core/Inc/SensorLibrary/gps.o (atof)
d:/stm32cubemx/stm32cubeide_1.0.2/stm32cubeide/plugins/com.st.stm32cube.ide.mcu.externaltools.gnu-tools-for-stm32.7-2018-q2-update.win32_1.4.0.202007081208/tools/bin/../lib/gcc/arm-none-eabi/7.3.1/../../../../arm-none-eabi/lib/thumb/v7e-m/fpv5/hard\libc_nano.a(lib_a-errno.o)
                              Core/Src/syscalls.o (__errno)
d:/stm32cubemx/stm32cubeide_1.0.2/stm32cubeide/plugins/com.st.stm32cube.ide.mcu.externaltools.gnu-tools-for-stm32.7-2018-q2-update.win32_1.4.0.202007081208/tools/bin/../lib/gcc/arm-none-eabi/7.3.1/../../../../arm-none-eabi/lib/thumb/v7e-m/fpv5/hard\libc_nano.a(lib_a-exit.o)
                              d:/stm32cubemx/stm32cubeide_1.0.2/stm32cubeide/plugins/com.st.stm32cube.ide.mcu.externaltools.gnu-tools-for-stm32.7-2018-q2-update.win32_1.4.0.202007081208/tools/bin/../lib/gcc/arm-none-eabi/7.3.1/../../../../arm-none-eabi/lib/thumb/v7e-m/fpv5/hard/crt0.o (exit)
d:/stm32cubemx/stm32cubeide_1.0.2/stm32cubeide/plugins/com.st.stm32cube.ide.mcu.externaltools.gnu-tools-for-stm32.7-2018-q2-update.win32_1.4.0.202007081208/tools/bin/../lib/gcc/arm-none-eabi/7.3.1/../../../../arm-none-eabi/lib/thumb/v7e-m/fpv5/hard\libc_nano.a(lib_a-impure.o)
                              d:/stm32cubemx/stm32cubeide_1.0.2/stm32cubeide/plugins/com.st.stm32cube.ide.mcu.externaltools.gnu-tools-for-stm32.7-2018-q2-update.win32_1.4.0.202007081208/tools/bin/../lib/gcc/arm-none-eabi/7.3.1/../../../../arm-none-eabi/lib/thumb/v7e-m/fpv5/hard\libc_nano.a(lib_a-exit.o) (_global_impure_ptr)
d:/stm32cubemx/stm32cubeide_1.0.2/stm32cubeide/plugins/com.st.stm32cube.ide.mcu.externaltools.gnu-tools-for-stm32.7-2018-q2-update.win32_1.4.0.202007081208/tools/bin/../lib/gcc/arm-none-eabi/7.3.1/../../../../arm-none-eabi/lib/thumb/v7e-m/fpv5/hard\libc_nano.a(lib_a-init.o)
                              d:/stm32cubemx/stm32cubeide_1.0.2/stm32cubeide/plugins/com.st.stm32cube.ide.mcu.externaltools.gnu-tools-for-stm32.7-2018-q2-update.win32_1.4.0.202007081208/tools/bin/../lib/gcc/arm-none-eabi/7.3.1/../../../../arm-none-eabi/lib/thumb/v7e-m/fpv5/hard/crt0.o (__libc_init_array)
d:/stm32cubemx/stm32cubeide_1.0.2/stm32cubeide/plugins/com.st.stm32cube.ide.mcu.externaltools.gnu-tools-for-stm32.7-2018-q2-update.win32_1.4.0.202007081208/tools/bin/../lib/gcc/arm-none-eabi/7.3.1/../../../../arm-none-eabi/lib/thumb/v7e-m/fpv5/hard\libc_nano.a(lib_a-malloc.o)
                              d:/stm32cubemx/stm32cubeide_1.0.2/stm32cubeide/plugins/com.st.stm32cube.ide.mcu.externaltools.gnu-tools-for-stm32.7-2018-q2-update.win32_1.4.0.202007081208/tools/bin/../lib/gcc/arm-none-eabi/7.3.1/../../../../arm-none-eabi/lib/thumb/v7e-m/fpv5/hard\libstdc++_nano.a(new_op.o) (malloc)
d:/stm32cubemx/stm32cubeide_1.0.2/stm32cubeide/plugins/com.st.stm32cube.ide.mcu.externaltools.gnu-tools-for-stm32.7-2018-q2-update.win32_1.4.0.202007081208/tools/bin/../lib/gcc/arm-none-eabi/7.3.1/../../../../arm-none-eabi/lib/thumb/v7e-m/fpv5/hard\libc_nano.a(lib_a-memcpy-stub.o)
                              Middlewares/Third_Party/FreeRTOS/Source/queue.o (memcpy)
d:/stm32cubemx/stm32cubeide_1.0.2/stm32cubeide/plugins/com.st.stm32cube.ide.mcu.externaltools.gnu-tools-for-stm32.7-2018-q2-update.win32_1.4.0.202007081208/tools/bin/../lib/gcc/arm-none-eabi/7.3.1/../../../../arm-none-eabi/lib/thumb/v7e-m/fpv5/hard\libc_nano.a(lib_a-memset.o)
                              d:/stm32cubemx/stm32cubeide_1.0.2/stm32cubeide/plugins/com.st.stm32cube.ide.mcu.externaltools.gnu-tools-for-stm32.7-2018-q2-update.win32_1.4.0.202007081208/tools/bin/../lib/gcc/arm-none-eabi/7.3.1/../../../../arm-none-eabi/lib/thumb/v7e-m/fpv5/hard/crt0.o (memset)
d:/stm32cubemx/stm32cubeide_1.0.2/stm32cubeide/plugins/com.st.stm32cube.ide.mcu.externaltools.gnu-tools-for-stm32.7-2018-q2-update.win32_1.4.0.202007081208/tools/bin/../lib/gcc/arm-none-eabi/7.3.1/../../../../arm-none-eabi/lib/thumb/v7e-m/fpv5/hard\libc_nano.a(lib_a-nano-freer.o)
                              d:/stm32cubemx/stm32cubeide_1.0.2/stm32cubeide/plugins/com.st.stm32cube.ide.mcu.externaltools.gnu-tools-for-stm32.7-2018-q2-update.win32_1.4.0.202007081208/tools/bin/../lib/gcc/arm-none-eabi/7.3.1/../../../../arm-none-eabi/lib/thumb/v7e-m/fpv5/hard\libc_nano.a(lib_a-malloc.o) (_free_r)
d:/stm32cubemx/stm32cubeide_1.0.2/stm32cubeide/plugins/com.st.stm32cube.ide.mcu.externaltools.gnu-tools-for-stm32.7-2018-q2-update.win32_1.4.0.202007081208/tools/bin/../lib/gcc/arm-none-eabi/7.3.1/../../../../arm-none-eabi/lib/thumb/v7e-m/fpv5/hard\libc_nano.a(lib_a-nano-mallocr.o)
                              d:/stm32cubemx/stm32cubeide_1.0.2/stm32cubeide/plugins/com.st.stm32cube.ide.mcu.externaltools.gnu-tools-for-stm32.7-2018-q2-update.win32_1.4.0.202007081208/tools/bin/../lib/gcc/arm-none-eabi/7.3.1/../../../../arm-none-eabi/lib/thumb/v7e-m/fpv5/hard\libc_nano.a(lib_a-malloc.o) (_malloc_r)
d:/stm32cubemx/stm32cubeide_1.0.2/stm32cubeide/plugins/com.st.stm32cube.ide.mcu.externaltools.gnu-tools-for-stm32.7-2018-q2-update.win32_1.4.0.202007081208/tools/bin/../lib/gcc/arm-none-eabi/7.3.1/../../../../arm-none-eabi/lib/thumb/v7e-m/fpv5/hard\libc_nano.a(lib_a-nano-vfprintf_float.o)
                              (_printf_float)
d:/stm32cubemx/stm32cubeide_1.0.2/stm32cubeide/plugins/com.st.stm32cube.ide.mcu.externaltools.gnu-tools-for-stm32.7-2018-q2-update.win32_1.4.0.202007081208/tools/bin/../lib/gcc/arm-none-eabi/7.3.1/../../../../arm-none-eabi/lib/thumb/v7e-m/fpv5/hard\libc_nano.a(lib_a-nano-vfprintf_i.o)
                              d:/stm32cubemx/stm32cubeide_1.0.2/stm32cubeide/plugins/com.st.stm32cube.ide.mcu.externaltools.gnu-tools-for-stm32.7-2018-q2-update.win32_1.4.0.202007081208/tools/bin/../lib/gcc/arm-none-eabi/7.3.1/../../../../arm-none-eabi/lib/thumb/v7e-m/fpv5/hard\libc_nano.a(lib_a-nano-vfprintf_float.o) (_printf_common)
d:/stm32cubemx/stm32cubeide_1.0.2/stm32cubeide/plugins/com.st.stm32cube.ide.mcu.externaltools.gnu-tools-for-stm32.7-2018-q2-update.win32_1.4.0.202007081208/tools/bin/../lib/gcc/arm-none-eabi/7.3.1/../../../../arm-none-eabi/lib/thumb/v7e-m/fpv5/hard\libc_nano.a(lib_a-nano-vfscanf_float.o)
                              (_scanf_float)
d:/stm32cubemx/stm32cubeide_1.0.2/stm32cubeide/plugins/com.st.stm32cube.ide.mcu.externaltools.gnu-tools-for-stm32.7-2018-q2-update.win32_1.4.0.202007081208/tools/bin/../lib/gcc/arm-none-eabi/7.3.1/../../../../arm-none-eabi/lib/thumb/v7e-m/fpv5/hard\libc_nano.a(lib_a-sbrkr.o)
                              d:/stm32cubemx/stm32cubeide_1.0.2/stm32cubeide/plugins/com.st.stm32cube.ide.mcu.externaltools.gnu-tools-for-stm32.7-2018-q2-update.win32_1.4.0.202007081208/tools/bin/../lib/gcc/arm-none-eabi/7.3.1/../../../../arm-none-eabi/lib/thumb/v7e-m/fpv5/hard\libc_nano.a(lib_a-nano-mallocr.o) (_sbrk_r)
d:/stm32cubemx/stm32cubeide_1.0.2/stm32cubeide/plugins/com.st.stm32cube.ide.mcu.externaltools.gnu-tools-for-stm32.7-2018-q2-update.win32_1.4.0.202007081208/tools/bin/../lib/gcc/arm-none-eabi/7.3.1/../../../../arm-none-eabi/lib/thumb/v7e-m/fpv5/hard\libc_nano.a(lib_a-sf_nan.o)
                              d:/stm32cubemx/stm32cubeide_1.0.2/stm32cubeide/plugins/com.st.stm32cube.ide.mcu.externaltools.gnu-tools-for-stm32.7-2018-q2-update.win32_1.4.0.202007081208/tools/bin/../lib/gcc/arm-none-eabi/7.3.1/../../../../arm-none-eabi/lib/thumb/v7e-m/fpv5/hard\libc_nano.a(lib_a-nano-vfscanf_float.o) (nanf)
d:/stm32cubemx/stm32cubeide_1.0.2/stm32cubeide/plugins/com.st.stm32cube.ide.mcu.externaltools.gnu-tools-for-stm32.7-2018-q2-update.win32_1.4.0.202007081208/tools/bin/../lib/gcc/arm-none-eabi/7.3.1/../../../../arm-none-eabi/lib/thumb/v7e-m/fpv5/hard\libc_nano.a(lib_a-signal.o)
                              d:/stm32cubemx/stm32cubeide_1.0.2/stm32cubeide/plugins/com.st.stm32cube.ide.mcu.externaltools.gnu-tools-for-stm32.7-2018-q2-update.win32_1.4.0.202007081208/tools/bin/../lib/gcc/arm-none-eabi/7.3.1/../../../../arm-none-eabi/lib/thumb/v7e-m/fpv5/hard\libc_nano.a(lib_a-abort.o) (raise)
d:/stm32cubemx/stm32cubeide_1.0.2/stm32cubeide/plugins/com.st.stm32cube.ide.mcu.externaltools.gnu-tools-for-stm32.7-2018-q2-update.win32_1.4.0.202007081208/tools/bin/../lib/gcc/arm-none-eabi/7.3.1/../../../../arm-none-eabi/lib/thumb/v7e-m/fpv5/hard\libc_nano.a(lib_a-signalr.o)
                              d:/stm32cubemx/stm32cubeide_1.0.2/stm32cubeide/plugins/com.st.stm32cube.ide.mcu.externaltools.gnu-tools-for-stm32.7-2018-q2-update.win32_1.4.0.202007081208/tools/bin/../lib/gcc/arm-none-eabi/7.3.1/../../../../arm-none-eabi/lib/thumb/v7e-m/fpv5/hard\libc_nano.a(lib_a-signal.o) (_kill_r)
d:/stm32cubemx/stm32cubeide_1.0.2/stm32cubeide/plugins/com.st.stm32cube.ide.mcu.externaltools.gnu-tools-for-stm32.7-2018-q2-update.win32_1.4.0.202007081208/tools/bin/../lib/gcc/arm-none-eabi/7.3.1/../../../../arm-none-eabi/lib/thumb/v7e-m/fpv5/hard\libc_nano.a(lib_a-sprintf.o)
                              d:/stm32cubemx/stm32cubeide_1.0.2/stm32cubeide/plugins/com.st.stm32cube.ide.mcu.externaltools.gnu-tools-for-stm32.7-2018-q2-update.win32_1.4.0.202007081208/tools/bin/../lib/gcc/arm-none-eabi/7.3.1/../../../../arm-none-eabi/lib/thumb/v7e-m/fpv5/hard\libc_nano.a(lib_a-nano-vfscanf_float.o) (sprintf)
d:/stm32cubemx/stm32cubeide_1.0.2/stm32cubeide/plugins/com.st.stm32cube.ide.mcu.externaltools.gnu-tools-for-stm32.7-2018-q2-update.win32_1.4.0.202007081208/tools/bin/../lib/gcc/arm-none-eabi/7.3.1/../../../../arm-none-eabi/lib/thumb/v7e-m/fpv5/hard\libc_nano.a(lib_a-strlen.o)
                              Core/Inc/SensorLibrary/gps.o (strlen)
d:/stm32cubemx/stm32cubeide_1.0.2/stm32cubeide/plugins/com.st.stm32cube.ide.mcu.externaltools.gnu-tools-for-stm32.7-2018-q2-update.win32_1.4.0.202007081208/tools/bin/../lib/gcc/arm-none-eabi/7.3.1/../../../../arm-none-eabi/lib/thumb/v7e-m/fpv5/hard\libc_nano.a(lib_a-strncpy.o)
                              Core/Inc/SensorLibrary/gps.o (strncpy)
d:/stm32cubemx/stm32cubeide_1.0.2/stm32cubeide/plugins/com.st.stm32cube.ide.mcu.externaltools.gnu-tools-for-stm32.7-2018-q2-update.win32_1.4.0.202007081208/tools/bin/../lib/gcc/arm-none-eabi/7.3.1/../../../../arm-none-eabi/lib/thumb/v7e-m/fpv5/hard\libc_nano.a(lib_a-strtod.o)
                              d:/stm32cubemx/stm32cubeide_1.0.2/stm32cubeide/plugins/com.st.stm32cube.ide.mcu.externaltools.gnu-tools-for-stm32.7-2018-q2-update.win32_1.4.0.202007081208/tools/bin/../lib/gcc/arm-none-eabi/7.3.1/../../../../arm-none-eabi/lib/thumb/v7e-m/fpv5/hard\libc_nano.a(lib_a-nano-vfscanf_float.o) (_strtod_r)
d:/stm32cubemx/stm32cubeide_1.0.2/stm32cubeide/plugins/com.st.stm32cube.ide.mcu.externaltools.gnu-tools-for-stm32.7-2018-q2-update.win32_1.4.0.202007081208/tools/bin/../lib/gcc/arm-none-eabi/7.3.1/../../../../arm-none-eabi/lib/thumb/v7e-m/fpv5/hard\libc_nano.a(lib_a-strtol.o)
                              d:/stm32cubemx/stm32cubeide_1.0.2/stm32cubeide/plugins/com.st.stm32cube.ide.mcu.externaltools.gnu-tools-for-stm32.7-2018-q2-update.win32_1.4.0.202007081208/tools/bin/../lib/gcc/arm-none-eabi/7.3.1/../../../../arm-none-eabi/lib/thumb/v7e-m/fpv5/hard\libc_nano.a(lib_a-nano-vfscanf_float.o) (_strtol_r)
d:/stm32cubemx/stm32cubeide_1.0.2/stm32cubeide/plugins/com.st.stm32cube.ide.mcu.externaltools.gnu-tools-for-stm32.7-2018-q2-update.win32_1.4.0.202007081208/tools/bin/../lib/gcc/arm-none-eabi/7.3.1/../../../../arm-none-eabi/lib/thumb/v7e-m/fpv5/hard\libc_nano.a(lib_a-vsprintf.o)
                              Core/Inc/AutoPilot/LizhongAutoPilot.o (vsprintf)
d:/stm32cubemx/stm32cubeide_1.0.2/stm32cubeide/plugins/com.st.stm32cube.ide.mcu.externaltools.gnu-tools-for-stm32.7-2018-q2-update.win32_1.4.0.202007081208/tools/bin/../lib/gcc/arm-none-eabi/7.3.1/../../../../arm-none-eabi/lib/thumb/v7e-m/fpv5/hard\libc_nano.a(lib_a-vsscanf.o)
                              Core/Inc/AutoPilot/LizhongAutoPilot.o (vsscanf)
d:/stm32cubemx/stm32cubeide_1.0.2/stm32cubeide/plugins/com.st.stm32cube.ide.mcu.externaltools.gnu-tools-for-stm32.7-2018-q2-update.win32_1.4.0.202007081208/tools/bin/../lib/gcc/arm-none-eabi/7.3.1/../../../../arm-none-eabi/lib/thumb/v7e-m/fpv5/hard\libc_nano.a(lib_a-dtoa.o)
                              d:/stm32cubemx/stm32cubeide_1.0.2/stm32cubeide/plugins/com.st.stm32cube.ide.mcu.externaltools.gnu-tools-for-stm32.7-2018-q2-update.win32_1.4.0.202007081208/tools/bin/../lib/gcc/arm-none-eabi/7.3.1/../../../../arm-none-eabi/lib/thumb/v7e-m/fpv5/hard\libc_nano.a(lib_a-nano-vfprintf_float.o) (_dtoa_r)
d:/stm32cubemx/stm32cubeide_1.0.2/stm32cubeide/plugins/com.st.stm32cube.ide.mcu.externaltools.gnu-tools-for-stm32.7-2018-q2-update.win32_1.4.0.202007081208/tools/bin/../lib/gcc/arm-none-eabi/7.3.1/../../../../arm-none-eabi/lib/thumb/v7e-m/fpv5/hard\libc_nano.a(lib_a-gdtoa-gethex.o)
                              d:/stm32cubemx/stm32cubeide_1.0.2/stm32cubeide/plugins/com.st.stm32cube.ide.mcu.externaltools.gnu-tools-for-stm32.7-2018-q2-update.win32_1.4.0.202007081208/tools/bin/../lib/gcc/arm-none-eabi/7.3.1/../../../../arm-none-eabi/lib/thumb/v7e-m/fpv5/hard\libc_nano.a(lib_a-strtod.o) (__gethex)
d:/stm32cubemx/stm32cubeide_1.0.2/stm32cubeide/plugins/com.st.stm32cube.ide.mcu.externaltools.gnu-tools-for-stm32.7-2018-q2-update.win32_1.4.0.202007081208/tools/bin/../lib/gcc/arm-none-eabi/7.3.1/../../../../arm-none-eabi/lib/thumb/v7e-m/fpv5/hard\libc_nano.a(lib_a-gdtoa-hexnan.o)
                              d:/stm32cubemx/stm32cubeide_1.0.2/stm32cubeide/plugins/com.st.stm32cube.ide.mcu.externaltools.gnu-tools-for-stm32.7-2018-q2-update.win32_1.4.0.202007081208/tools/bin/../lib/gcc/arm-none-eabi/7.3.1/../../../../arm-none-eabi/lib/thumb/v7e-m/fpv5/hard\libc_nano.a(lib_a-strtod.o) (__match)
d:/stm32cubemx/stm32cubeide_1.0.2/stm32cubeide/plugins/com.st.stm32cube.ide.mcu.externaltools.gnu-tools-for-stm32.7-2018-q2-update.win32_1.4.0.202007081208/tools/bin/../lib/gcc/arm-none-eabi/7.3.1/../../../../arm-none-eabi/lib/thumb/v7e-m/fpv5/hard\libc_nano.a(lib_a-locale.o)
                              d:/stm32cubemx/stm32cubeide_1.0.2/stm32cubeide/plugins/com.st.stm32cube.ide.mcu.externaltools.gnu-tools-for-stm32.7-2018-q2-update.win32_1.4.0.202007081208/tools/bin/../lib/gcc/arm-none-eabi/7.3.1/../../../../arm-none-eabi/lib/thumb/v7e-m/fpv5/hard\libc_nano.a(lib_a-strtol.o) (__locale_ctype_ptr_l)
d:/stm32cubemx/stm32cubeide_1.0.2/stm32cubeide/plugins/com.st.stm32cube.ide.mcu.externaltools.gnu-tools-for-stm32.7-2018-q2-update.win32_1.4.0.202007081208/tools/bin/../lib/gcc/arm-none-eabi/7.3.1/../../../../arm-none-eabi/lib/thumb/v7e-m/fpv5/hard\libc_nano.a(lib_a-localeconv.o)
                              d:/stm32cubemx/stm32cubeide_1.0.2/stm32cubeide/plugins/com.st.stm32cube.ide.mcu.externaltools.gnu-tools-for-stm32.7-2018-q2-update.win32_1.4.0.202007081208/tools/bin/../lib/gcc/arm-none-eabi/7.3.1/../../../../arm-none-eabi/lib/thumb/v7e-m/fpv5/hard\libc_nano.a(lib_a-strtod.o) (__localeconv_l)
d:/stm32cubemx/stm32cubeide_1.0.2/stm32cubeide/plugins/com.st.stm32cube.ide.mcu.externaltools.gnu-tools-for-stm32.7-2018-q2-update.win32_1.4.0.202007081208/tools/bin/../lib/gcc/arm-none-eabi/7.3.1/../../../../arm-none-eabi/lib/thumb/v7e-m/fpv5/hard\libc_nano.a(lib_a-mbtowc_r.o)
                              d:/stm32cubemx/stm32cubeide_1.0.2/stm32cubeide/plugins/com.st.stm32cube.ide.mcu.externaltools.gnu-tools-for-stm32.7-2018-q2-update.win32_1.4.0.202007081208/tools/bin/../lib/gcc/arm-none-eabi/7.3.1/../../../../arm-none-eabi/lib/thumb/v7e-m/fpv5/hard\libc_nano.a(lib_a-locale.o) (__ascii_mbtowc)
d:/stm32cubemx/stm32cubeide_1.0.2/stm32cubeide/plugins/com.st.stm32cube.ide.mcu.externaltools.gnu-tools-for-stm32.7-2018-q2-update.win32_1.4.0.202007081208/tools/bin/../lib/gcc/arm-none-eabi/7.3.1/../../../../arm-none-eabi/lib/thumb/v7e-m/fpv5/hard\libc_nano.a(lib_a-memchr.o)
                              d:/stm32cubemx/stm32cubeide_1.0.2/stm32cubeide/plugins/com.st.stm32cube.ide.mcu.externaltools.gnu-tools-for-stm32.7-2018-q2-update.win32_1.4.0.202007081208/tools/bin/../lib/gcc/arm-none-eabi/7.3.1/../../../../arm-none-eabi/lib/thumb/v7e-m/fpv5/hard\libc_nano.a(lib_a-nano-vfprintf_i.o) (memchr)
d:/stm32cubemx/stm32cubeide_1.0.2/stm32cubeide/plugins/com.st.stm32cube.ide.mcu.externaltools.gnu-tools-for-stm32.7-2018-q2-update.win32_1.4.0.202007081208/tools/bin/../lib/gcc/arm-none-eabi/7.3.1/../../../../arm-none-eabi/lib/thumb/v7e-m/fpv5/hard\libc_nano.a(lib_a-mlock.o)
                              d:/stm32cubemx/stm32cubeide_1.0.2/stm32cubeide/plugins/com.st.stm32cube.ide.mcu.externaltools.gnu-tools-for-stm32.7-2018-q2-update.win32_1.4.0.202007081208/tools/bin/../lib/gcc/arm-none-eabi/7.3.1/../../../../arm-none-eabi/lib/thumb/v7e-m/fpv5/hard\libc_nano.a(lib_a-nano-freer.o) (__malloc_lock)
d:/stm32cubemx/stm32cubeide_1.0.2/stm32cubeide/plugins/com.st.stm32cube.ide.mcu.externaltools.gnu-tools-for-stm32.7-2018-q2-update.win32_1.4.0.202007081208/tools/bin/../lib/gcc/arm-none-eabi/7.3.1/../../../../arm-none-eabi/lib/thumb/v7e-m/fpv5/hard\libc_nano.a(lib_a-mprec.o)
                              d:/stm32cubemx/stm32cubeide_1.0.2/stm32cubeide/plugins/com.st.stm32cube.ide.mcu.externaltools.gnu-tools-for-stm32.7-2018-q2-update.win32_1.4.0.202007081208/tools/bin/../lib/gcc/arm-none-eabi/7.3.1/../../../../arm-none-eabi/lib/thumb/v7e-m/fpv5/hard\libc_nano.a(lib_a-strtod.o) (_Balloc)
d:/stm32cubemx/stm32cubeide_1.0.2/stm32cubeide/plugins/com.st.stm32cube.ide.mcu.externaltools.gnu-tools-for-stm32.7-2018-q2-update.win32_1.4.0.202007081208/tools/bin/../lib/gcc/arm-none-eabi/7.3.1/../../../../arm-none-eabi/lib/thumb/v7e-m/fpv5/hard\libc_nano.a(lib_a-nano-callocr.o)
                              d:/stm32cubemx/stm32cubeide_1.0.2/stm32cubeide/plugins/com.st.stm32cube.ide.mcu.externaltools.gnu-tools-for-stm32.7-2018-q2-update.win32_1.4.0.202007081208/tools/bin/../lib/gcc/arm-none-eabi/7.3.1/../../../../arm-none-eabi/lib/thumb/v7e-m/fpv5/hard\libc_nano.a(lib_a-mprec.o) (_calloc_r)
d:/stm32cubemx/stm32cubeide_1.0.2/stm32cubeide/plugins/com.st.stm32cube.ide.mcu.externaltools.gnu-tools-for-stm32.7-2018-q2-update.win32_1.4.0.202007081208/tools/bin/../lib/gcc/arm-none-eabi/7.3.1/../../../../arm-none-eabi/lib/thumb/v7e-m/fpv5/hard\libc_nano.a(lib_a-nano-svfprintf.o)
                              d:/stm32cubemx/stm32cubeide_1.0.2/stm32cubeide/plugins/com.st.stm32cube.ide.mcu.externaltools.gnu-tools-for-stm32.7-2018-q2-update.win32_1.4.0.202007081208/tools/bin/../lib/gcc/arm-none-eabi/7.3.1/../../../../arm-none-eabi/lib/thumb/v7e-m/fpv5/hard\libc_nano.a(lib_a-sprintf.o) (_svfprintf_r)
d:/stm32cubemx/stm32cubeide_1.0.2/stm32cubeide/plugins/com.st.stm32cube.ide.mcu.externaltools.gnu-tools-for-stm32.7-2018-q2-update.win32_1.4.0.202007081208/tools/bin/../lib/gcc/arm-none-eabi/7.3.1/../../../../arm-none-eabi/lib/thumb/v7e-m/fpv5/hard\libc_nano.a(lib_a-nano-svfscanf.o)
                              d:/stm32cubemx/stm32cubeide_1.0.2/stm32cubeide/plugins/com.st.stm32cube.ide.mcu.externaltools.gnu-tools-for-stm32.7-2018-q2-update.win32_1.4.0.202007081208/tools/bin/../lib/gcc/arm-none-eabi/7.3.1/../../../../arm-none-eabi/lib/thumb/v7e-m/fpv5/hard\libc_nano.a(lib_a-vsscanf.o) (__ssvfscanf_r)
d:/stm32cubemx/stm32cubeide_1.0.2/stm32cubeide/plugins/com.st.stm32cube.ide.mcu.externaltools.gnu-tools-for-stm32.7-2018-q2-update.win32_1.4.0.202007081208/tools/bin/../lib/gcc/arm-none-eabi/7.3.1/../../../../arm-none-eabi/lib/thumb/v7e-m/fpv5/hard\libc_nano.a(lib_a-nano-vfscanf_i.o)
                              d:/stm32cubemx/stm32cubeide_1.0.2/stm32cubeide/plugins/com.st.stm32cube.ide.mcu.externaltools.gnu-tools-for-stm32.7-2018-q2-update.win32_1.4.0.202007081208/tools/bin/../lib/gcc/arm-none-eabi/7.3.1/../../../../arm-none-eabi/lib/thumb/v7e-m/fpv5/hard\libc_nano.a(lib_a-nano-svfscanf.o) (_scanf_chars)
d:/stm32cubemx/stm32cubeide_1.0.2/stm32cubeide/plugins/com.st.stm32cube.ide.mcu.externaltools.gnu-tools-for-stm32.7-2018-q2-update.win32_1.4.0.202007081208/tools/bin/../lib/gcc/arm-none-eabi/7.3.1/../../../../arm-none-eabi/lib/thumb/v7e-m/fpv5/hard\libc_nano.a(lib_a-reent.o)
                              d:/stm32cubemx/stm32cubeide_1.0.2/stm32cubeide/plugins/com.st.stm32cube.ide.mcu.externaltools.gnu-tools-for-stm32.7-2018-q2-update.win32_1.4.0.202007081208/tools/bin/../lib/gcc/arm-none-eabi/7.3.1/../../../../arm-none-eabi/lib/thumb/v7e-m/fpv5/hard\libc_nano.a(lib_a-sbrkr.o) (errno)
d:/stm32cubemx/stm32cubeide_1.0.2/stm32cubeide/plugins/com.st.stm32cube.ide.mcu.externaltools.gnu-tools-for-stm32.7-2018-q2-update.win32_1.4.0.202007081208/tools/bin/../lib/gcc/arm-none-eabi/7.3.1/../../../../arm-none-eabi/lib/thumb/v7e-m/fpv5/hard\libc_nano.a(lib_a-sccl.o)
                              d:/stm32cubemx/stm32cubeide_1.0.2/stm32cubeide/plugins/com.st.stm32cube.ide.mcu.externaltools.gnu-tools-for-stm32.7-2018-q2-update.win32_1.4.0.202007081208/tools/bin/../lib/gcc/arm-none-eabi/7.3.1/../../../../arm-none-eabi/lib/thumb/v7e-m/fpv5/hard\libc_nano.a(lib_a-nano-svfscanf.o) (__sccl)
d:/stm32cubemx/stm32cubeide_1.0.2/stm32cubeide/plugins/com.st.stm32cube.ide.mcu.externaltools.gnu-tools-for-stm32.7-2018-q2-update.win32_1.4.0.202007081208/tools/bin/../lib/gcc/arm-none-eabi/7.3.1/../../../../arm-none-eabi/lib/thumb/v7e-m/fpv5/hard\libc_nano.a(lib_a-stdio.o)
                              d:/stm32cubemx/stm32cubeide_1.0.2/stm32cubeide/plugins/com.st.stm32cube.ide.mcu.externaltools.gnu-tools-for-stm32.7-2018-q2-update.win32_1.4.0.202007081208/tools/bin/../lib/gcc/arm-none-eabi/7.3.1/../../../../arm-none-eabi/lib/thumb/v7e-m/fpv5/hard\libc_nano.a(lib_a-vsscanf.o) (__seofread)
d:/stm32cubemx/stm32cubeide_1.0.2/stm32cubeide/plugins/com.st.stm32cube.ide.mcu.externaltools.gnu-tools-for-stm32.7-2018-q2-update.win32_1.4.0.202007081208/tools/bin/../lib/gcc/arm-none-eabi/7.3.1/../../../../arm-none-eabi/lib/thumb/v7e-m/fpv5/hard\libc_nano.a(lib_a-strcmp.o)
                              d:/stm32cubemx/stm32cubeide_1.0.2/stm32cubeide/plugins/com.st.stm32cube.ide.mcu.externaltools.gnu-tools-for-stm32.7-2018-q2-update.win32_1.4.0.202007081208/tools/bin/../lib/gcc/arm-none-eabi/7.3.1/../../../../arm-none-eabi/lib/thumb/v7e-m/fpv5/hard\libc_nano.a(lib_a-locale.o) (strcmp)
d:/stm32cubemx/stm32cubeide_1.0.2/stm32cubeide/plugins/com.st.stm32cube.ide.mcu.externaltools.gnu-tools-for-stm32.7-2018-q2-update.win32_1.4.0.202007081208/tools/bin/../lib/gcc/arm-none-eabi/7.3.1/../../../../arm-none-eabi/lib/thumb/v7e-m/fpv5/hard\libc_nano.a(lib_a-strncmp.o)
                              d:/stm32cubemx/stm32cubeide_1.0.2/stm32cubeide/plugins/com.st.stm32cube.ide.mcu.externaltools.gnu-tools-for-stm32.7-2018-q2-update.win32_1.4.0.202007081208/tools/bin/../lib/gcc/arm-none-eabi/7.3.1/../../../../arm-none-eabi/lib/thumb/v7e-m/fpv5/hard\libc_nano.a(lib_a-strtod.o) (strncmp)
d:/stm32cubemx/stm32cubeide_1.0.2/stm32cubeide/plugins/com.st.stm32cube.ide.mcu.externaltools.gnu-tools-for-stm32.7-2018-q2-update.win32_1.4.0.202007081208/tools/bin/../lib/gcc/arm-none-eabi/7.3.1/../../../../arm-none-eabi/lib/thumb/v7e-m/fpv5/hard\libc_nano.a(lib_a-strtoul.o)
                              d:/stm32cubemx/stm32cubeide_1.0.2/stm32cubeide/plugins/com.st.stm32cube.ide.mcu.externaltools.gnu-tools-for-stm32.7-2018-q2-update.win32_1.4.0.202007081208/tools/bin/../lib/gcc/arm-none-eabi/7.3.1/../../../../arm-none-eabi/lib/thumb/v7e-m/fpv5/hard\libc_nano.a(lib_a-nano-vfscanf_i.o) (_strtoul_r)
d:/stm32cubemx/stm32cubeide_1.0.2/stm32cubeide/plugins/com.st.stm32cube.ide.mcu.externaltools.gnu-tools-for-stm32.7-2018-q2-update.win32_1.4.0.202007081208/tools/bin/../lib/gcc/arm-none-eabi/7.3.1/../../../../arm-none-eabi/lib/thumb/v7e-m/fpv5/hard\libc_nano.a(lib_a-ungetc.o)
                              d:/stm32cubemx/stm32cubeide_1.0.2/stm32cubeide/plugins/com.st.stm32cube.ide.mcu.externaltools.gnu-tools-for-stm32.7-2018-q2-update.win32_1.4.0.202007081208/tools/bin/../lib/gcc/arm-none-eabi/7.3.1/../../../../arm-none-eabi/lib/thumb/v7e-m/fpv5/hard\libc_nano.a(lib_a-nano-svfscanf.o) (__submore)
d:/stm32cubemx/stm32cubeide_1.0.2/stm32cubeide/plugins/com.st.stm32cube.ide.mcu.externaltools.gnu-tools-for-stm32.7-2018-q2-update.win32_1.4.0.202007081208/tools/bin/../lib/gcc/arm-none-eabi/7.3.1/../../../../arm-none-eabi/lib/thumb/v7e-m/fpv5/hard\libc_nano.a(lib_a-wctomb_r.o)
                              d:/stm32cubemx/stm32cubeide_1.0.2/stm32cubeide/plugins/com.st.stm32cube.ide.mcu.externaltools.gnu-tools-for-stm32.7-2018-q2-update.win32_1.4.0.202007081208/tools/bin/../lib/gcc/arm-none-eabi/7.3.1/../../../../arm-none-eabi/lib/thumb/v7e-m/fpv5/hard\libc_nano.a(lib_a-locale.o) (__ascii_wctomb)
d:/stm32cubemx/stm32cubeide_1.0.2/stm32cubeide/plugins/com.st.stm32cube.ide.mcu.externaltools.gnu-tools-for-stm32.7-2018-q2-update.win32_1.4.0.202007081208/tools/bin/../lib/gcc/arm-none-eabi/7.3.1/../../../../arm-none-eabi/lib/thumb/v7e-m/fpv5/hard\libc_nano.a(lib_a-writer.o)
                              d:/stm32cubemx/stm32cubeide_1.0.2/stm32cubeide/plugins/com.st.stm32cube.ide.mcu.externaltools.gnu-tools-for-stm32.7-2018-q2-update.win32_1.4.0.202007081208/tools/bin/../lib/gcc/arm-none-eabi/7.3.1/../../../../arm-none-eabi/lib/thumb/v7e-m/fpv5/hard\libc_nano.a(lib_a-stdio.o) (_write_r)
d:/stm32cubemx/stm32cubeide_1.0.2/stm32cubeide/plugins/com.st.stm32cube.ide.mcu.externaltools.gnu-tools-for-stm32.7-2018-q2-update.win32_1.4.0.202007081208/tools/bin/../lib/gcc/arm-none-eabi/7.3.1/../../../../arm-none-eabi/lib/thumb/v7e-m/fpv5/hard\libc_nano.a(lib_a-closer.o)
                              d:/stm32cubemx/stm32cubeide_1.0.2/stm32cubeide/plugins/com.st.stm32cube.ide.mcu.externaltools.gnu-tools-for-stm32.7-2018-q2-update.win32_1.4.0.202007081208/tools/bin/../lib/gcc/arm-none-eabi/7.3.1/../../../../arm-none-eabi/lib/thumb/v7e-m/fpv5/hard\libc_nano.a(lib_a-stdio.o) (_close_r)
d:/stm32cubemx/stm32cubeide_1.0.2/stm32cubeide/plugins/com.st.stm32cube.ide.mcu.externaltools.gnu-tools-for-stm32.7-2018-q2-update.win32_1.4.0.202007081208/tools/bin/../lib/gcc/arm-none-eabi/7.3.1/../../../../arm-none-eabi/lib/thumb/v7e-m/fpv5/hard\libc_nano.a(lib_a-ctype_.o)
                              d:/stm32cubemx/stm32cubeide_1.0.2/stm32cubeide/plugins/com.st.stm32cube.ide.mcu.externaltools.gnu-tools-for-stm32.7-2018-q2-update.win32_1.4.0.202007081208/tools/bin/../lib/gcc/arm-none-eabi/7.3.1/../../../../arm-none-eabi/lib/thumb/v7e-m/fpv5/hard\libc_nano.a(lib_a-locale.o) (_ctype_)
d:/stm32cubemx/stm32cubeide_1.0.2/stm32cubeide/plugins/com.st.stm32cube.ide.mcu.externaltools.gnu-tools-for-stm32.7-2018-q2-update.win32_1.4.0.202007081208/tools/bin/../lib/gcc/arm-none-eabi/7.3.1/../../../../arm-none-eabi/lib/thumb/v7e-m/fpv5/hard\libc_nano.a(lib_a-fflush.o)
                              d:/stm32cubemx/stm32cubeide_1.0.2/stm32cubeide/plugins/com.st.stm32cube.ide.mcu.externaltools.gnu-tools-for-stm32.7-2018-q2-update.win32_1.4.0.202007081208/tools/bin/../lib/gcc/arm-none-eabi/7.3.1/../../../../arm-none-eabi/lib/thumb/v7e-m/fpv5/hard\libc_nano.a(lib_a-ungetc.o) (_fflush_r)
d:/stm32cubemx/stm32cubeide_1.0.2/stm32cubeide/plugins/com.st.stm32cube.ide.mcu.externaltools.gnu-tools-for-stm32.7-2018-q2-update.win32_1.4.0.202007081208/tools/bin/../lib/gcc/arm-none-eabi/7.3.1/../../../../arm-none-eabi/lib/thumb/v7e-m/fpv5/hard\libc_nano.a(lib_a-findfp.o)
                              d:/stm32cubemx/stm32cubeide_1.0.2/stm32cubeide/plugins/com.st.stm32cube.ide.mcu.externaltools.gnu-tools-for-stm32.7-2018-q2-update.win32_1.4.0.202007081208/tools/bin/../lib/gcc/arm-none-eabi/7.3.1/../../../../arm-none-eabi/lib/thumb/v7e-m/fpv5/hard\libc_nano.a(lib_a-ungetc.o) (__sinit)
d:/stm32cubemx/stm32cubeide_1.0.2/stm32cubeide/plugins/com.st.stm32cube.ide.mcu.externaltools.gnu-tools-for-stm32.7-2018-q2-update.win32_1.4.0.202007081208/tools/bin/../lib/gcc/arm-none-eabi/7.3.1/../../../../arm-none-eabi/lib/thumb/v7e-m/fpv5/hard\libc_nano.a(lib_a-fwalk.o)
                              d:/stm32cubemx/stm32cubeide_1.0.2/stm32cubeide/plugins/com.st.stm32cube.ide.mcu.externaltools.gnu-tools-for-stm32.7-2018-q2-update.win32_1.4.0.202007081208/tools/bin/../lib/gcc/arm-none-eabi/7.3.1/../../../../arm-none-eabi/lib/thumb/v7e-m/fpv5/hard\libc_nano.a(lib_a-findfp.o) (_fwalk)
d:/stm32cubemx/stm32cubeide_1.0.2/stm32cubeide/plugins/com.st.stm32cube.ide.mcu.externaltools.gnu-tools-for-stm32.7-2018-q2-update.win32_1.4.0.202007081208/tools/bin/../lib/gcc/arm-none-eabi/7.3.1/../../../../arm-none-eabi/lib/thumb/v7e-m/fpv5/hard\libc_nano.a(lib_a-lseekr.o)
                              d:/stm32cubemx/stm32cubeide_1.0.2/stm32cubeide/plugins/com.st.stm32cube.ide.mcu.externaltools.gnu-tools-for-stm32.7-2018-q2-update.win32_1.4.0.202007081208/tools/bin/../lib/gcc/arm-none-eabi/7.3.1/../../../../arm-none-eabi/lib/thumb/v7e-m/fpv5/hard\libc_nano.a(lib_a-stdio.o) (_lseek_r)
d:/stm32cubemx/stm32cubeide_1.0.2/stm32cubeide/plugins/com.st.stm32cube.ide.mcu.externaltools.gnu-tools-for-stm32.7-2018-q2-update.win32_1.4.0.202007081208/tools/bin/../lib/gcc/arm-none-eabi/7.3.1/../../../../arm-none-eabi/lib/thumb/v7e-m/fpv5/hard\libc_nano.a(lib_a-memmove.o)
                              d:/stm32cubemx/stm32cubeide_1.0.2/stm32cubeide/plugins/com.st.stm32cube.ide.mcu.externaltools.gnu-tools-for-stm32.7-2018-q2-update.win32_1.4.0.202007081208/tools/bin/../lib/gcc/arm-none-eabi/7.3.1/../../../../arm-none-eabi/lib/thumb/v7e-m/fpv5/hard\libc_nano.a(lib_a-nano-svfprintf.o) (memmove)
d:/stm32cubemx/stm32cubeide_1.0.2/stm32cubeide/plugins/com.st.stm32cube.ide.mcu.externaltools.gnu-tools-for-stm32.7-2018-q2-update.win32_1.4.0.202007081208/tools/bin/../lib/gcc/arm-none-eabi/7.3.1/../../../../arm-none-eabi/lib/thumb/v7e-m/fpv5/hard\libc_nano.a(lib_a-nano-reallocr.o)
                              d:/stm32cubemx/stm32cubeide_1.0.2/stm32cubeide/plugins/com.st.stm32cube.ide.mcu.externaltools.gnu-tools-for-stm32.7-2018-q2-update.win32_1.4.0.202007081208/tools/bin/../lib/gcc/arm-none-eabi/7.3.1/../../../../arm-none-eabi/lib/thumb/v7e-m/fpv5/hard\libc_nano.a(lib_a-nano-svfprintf.o) (_realloc_r)
d:/stm32cubemx/stm32cubeide_1.0.2/stm32cubeide/plugins/com.st.stm32cube.ide.mcu.externaltools.gnu-tools-for-stm32.7-2018-q2-update.win32_1.4.0.202007081208/tools/bin/../lib/gcc/arm-none-eabi/7.3.1/../../../../arm-none-eabi/lib/thumb/v7e-m/fpv5/hard\libc_nano.a(lib_a-readr.o)
                              d:/stm32cubemx/stm32cubeide_1.0.2/stm32cubeide/plugins/com.st.stm32cube.ide.mcu.externaltools.gnu-tools-for-stm32.7-2018-q2-update.win32_1.4.0.202007081208/tools/bin/../lib/gcc/arm-none-eabi/7.3.1/../../../../arm-none-eabi/lib/thumb/v7e-m/fpv5/hard\libc_nano.a(lib_a-stdio.o) (_read_r)
d:/stm32cubemx/stm32cubeide_1.0.2/stm32cubeide/plugins/com.st.stm32cube.ide.mcu.externaltools.gnu-tools-for-stm32.7-2018-q2-update.win32_1.4.0.202007081208/tools/bin/../lib/gcc/arm-none-eabi/7.3.1/../../../../arm-none-eabi/lib/thumb/v7e-m/fpv5/hard\libc_nano.a(lib_a-nano-msizer.o)
                              d:/stm32cubemx/stm32cubeide_1.0.2/stm32cubeide/plugins/com.st.stm32cube.ide.mcu.externaltools.gnu-tools-for-stm32.7-2018-q2-update.win32_1.4.0.202007081208/tools/bin/../lib/gcc/arm-none-eabi/7.3.1/../../../../arm-none-eabi/lib/thumb/v7e-m/fpv5/hard\libc_nano.a(lib_a-nano-reallocr.o) (_malloc_usable_size_r)
d:/stm32cubemx/stm32cubeide_1.0.2/stm32cubeide/plugins/com.st.stm32cube.ide.mcu.externaltools.gnu-tools-for-stm32.7-2018-q2-update.win32_1.4.0.202007081208/tools/bin/../lib/gcc/arm-none-eabi/7.3.1/thumb/v7e-m/fpv5/hard\libgcc.a(_aeabi_uldivmod.o)
                              Drivers/STM32H7xx_HAL_Driver/Src/stm32h7xx_hal_uart.o (__aeabi_uldivmod)
d:/stm32cubemx/stm32cubeide_1.0.2/stm32cubeide/plugins/com.st.stm32cube.ide.mcu.externaltools.gnu-tools-for-stm32.7-2018-q2-update.win32_1.4.0.202007081208/tools/bin/../lib/gcc/arm-none-eabi/7.3.1/thumb/v7e-m/fpv5/hard\libgcc.a(_udivmoddi4.o)
                              d:/stm32cubemx/stm32cubeide_1.0.2/stm32cubeide/plugins/com.st.stm32cube.ide.mcu.externaltools.gnu-tools-for-stm32.7-2018-q2-update.win32_1.4.0.202007081208/tools/bin/../lib/gcc/arm-none-eabi/7.3.1/thumb/v7e-m/fpv5/hard\libgcc.a(_aeabi_uldivmod.o) (__udivmoddi4)
d:/stm32cubemx/stm32cubeide_1.0.2/stm32cubeide/plugins/com.st.stm32cube.ide.mcu.externaltools.gnu-tools-for-stm32.7-2018-q2-update.win32_1.4.0.202007081208/tools/bin/../lib/gcc/arm-none-eabi/7.3.1/thumb/v7e-m/fpv5/hard\libgcc.a(_dvmd_tls.o)
                              d:/stm32cubemx/stm32cubeide_1.0.2/stm32cubeide/plugins/com.st.stm32cube.ide.mcu.externaltools.gnu-tools-for-stm32.7-2018-q2-update.win32_1.4.0.202007081208/tools/bin/../lib/gcc/arm-none-eabi/7.3.1/thumb/v7e-m/fpv5/hard\libgcc.a(_aeabi_uldivmod.o) (__aeabi_ldiv0)

Allocating common symbols
Common symbol       size              file

errno               0x4               d:/stm32cubemx/stm32cubeide_1.0.2/stm32cubeide/plugins/com.st.stm32cube.ide.mcu.externaltools.gnu-tools-for-stm32.7-2018-q2-update.win32_1.4.0.202007081208/tools/bin/../lib/gcc/arm-none-eabi/7.3.1/../../../../arm-none-eabi/lib/thumb/v7e-m/fpv5/hard\libc_nano.a(lib_a-reent.o)
uwTick              0x4               Drivers/STM32H7xx_HAL_Driver/Src/stm32h7xx_hal.o
xQueueRegistry      0x40              Middlewares/Third_Party/FreeRTOS/Source/queue.o
pFlash              0x1c              Drivers/STM32H7xx_HAL_Driver/Src/stm32h7xx_hal_flash.o
htim7               0x4c              Core/Src/stm32h7xx_hal_timebase_tim.o

Discarded input sections

 .text          0x0000000000000000        0x0 d:/stm32cubemx/stm32cubeide_1.0.2/stm32cubeide/plugins/com.st.stm32cube.ide.mcu.externaltools.gnu-tools-for-stm32.7-2018-q2-update.win32_1.4.0.202007081208/tools/bin/../lib/gcc/arm-none-eabi/7.3.1/thumb/v7e-m/fpv5/hard/crti.o
 .data          0x0000000000000000        0x0 d:/stm32cubemx/stm32cubeide_1.0.2/stm32cubeide/plugins/com.st.stm32cube.ide.mcu.externaltools.gnu-tools-for-stm32.7-2018-q2-update.win32_1.4.0.202007081208/tools/bin/../lib/gcc/arm-none-eabi/7.3.1/thumb/v7e-m/fpv5/hard/crti.o
 .bss           0x0000000000000000        0x0 d:/stm32cubemx/stm32cubeide_1.0.2/stm32cubeide/plugins/com.st.stm32cube.ide.mcu.externaltools.gnu-tools-for-stm32.7-2018-q2-update.win32_1.4.0.202007081208/tools/bin/../lib/gcc/arm-none-eabi/7.3.1/thumb/v7e-m/fpv5/hard/crti.o
 .data          0x0000000000000000        0x4 d:/stm32cubemx/stm32cubeide_1.0.2/stm32cubeide/plugins/com.st.stm32cube.ide.mcu.externaltools.gnu-tools-for-stm32.7-2018-q2-update.win32_1.4.0.202007081208/tools/bin/../lib/gcc/arm-none-eabi/7.3.1/thumb/v7e-m/fpv5/hard/crtbegin.o
 .text          0x0000000000000000       0x74 d:/stm32cubemx/stm32cubeide_1.0.2/stm32cubeide/plugins/com.st.stm32cube.ide.mcu.externaltools.gnu-tools-for-stm32.7-2018-q2-update.win32_1.4.0.202007081208/tools/bin/../lib/gcc/arm-none-eabi/7.3.1/../../../../arm-none-eabi/lib/thumb/v7e-m/fpv5/hard/crt0.o
 .data          0x0000000000000000        0x0 d:/stm32cubemx/stm32cubeide_1.0.2/stm32cubeide/plugins/com.st.stm32cube.ide.mcu.externaltools.gnu-tools-for-stm32.7-2018-q2-update.win32_1.4.0.202007081208/tools/bin/../lib/gcc/arm-none-eabi/7.3.1/../../../../arm-none-eabi/lib/thumb/v7e-m/fpv5/hard/crt0.o
 .bss           0x0000000000000000        0x0 d:/stm32cubemx/stm32cubeide_1.0.2/stm32cubeide/plugins/com.st.stm32cube.ide.mcu.externaltools.gnu-tools-for-stm32.7-2018-q2-update.win32_1.4.0.202007081208/tools/bin/../lib/gcc/arm-none-eabi/7.3.1/../../../../arm-none-eabi/lib/thumb/v7e-m/fpv5/hard/crt0.o
 .ARM.extab     0x0000000000000000        0x0 d:/stm32cubemx/stm32cubeide_1.0.2/stm32cubeide/plugins/com.st.stm32cube.ide.mcu.externaltools.gnu-tools-for-stm32.7-2018-q2-update.win32_1.4.0.202007081208/tools/bin/../lib/gcc/arm-none-eabi/7.3.1/../../../../arm-none-eabi/lib/thumb/v7e-m/fpv5/hard/crt0.o
 .ARM.exidx     0x0000000000000000        0x8 d:/stm32cubemx/stm32cubeide_1.0.2/stm32cubeide/plugins/com.st.stm32cube.ide.mcu.externaltools.gnu-tools-for-stm32.7-2018-q2-update.win32_1.4.0.202007081208/tools/bin/../lib/gcc/arm-none-eabi/7.3.1/../../../../arm-none-eabi/lib/thumb/v7e-m/fpv5/hard/crt0.o
 .ARM.attributes
                0x0000000000000000       0x1e d:/stm32cubemx/stm32cubeide_1.0.2/stm32cubeide/plugins/com.st.stm32cube.ide.mcu.externaltools.gnu-tools-for-stm32.7-2018-q2-update.win32_1.4.0.202007081208/tools/bin/../lib/gcc/arm-none-eabi/7.3.1/../../../../arm-none-eabi/lib/thumb/v7e-m/fpv5/hard/crt0.o
 .group         0x0000000000000000        0xc Core/Inc/Algorithm/MahonyAHRS.o
 .group         0x0000000000000000        0xc Core/Inc/Algorithm/MahonyAHRS.o
 .group         0x0000000000000000        0xc Core/Inc/Algorithm/MahonyAHRS.o
 .group         0x0000000000000000        0xc Core/Inc/Algorithm/MahonyAHRS.o
 .group         0x0000000000000000        0xc Core/Inc/Algorithm/MahonyAHRS.o
 .group         0x0000000000000000        0xc Core/Inc/Algorithm/MahonyAHRS.o
 .group         0x0000000000000000        0xc Core/Inc/Algorithm/MahonyAHRS.o
Memory Configuration

Name             Origin             Length             Attributes
DTCMRAM          0x0000000020000000 0x0000000000020000 xrw
ITCMRAM          0x0000000000000000 0x0000000000010000 xrw
RAM_D1           0x0000000024000000 0x0000000000080000 xrw
RAM_D2           0x0000000030000000 0x0000000000048000 xrw
RAM_D3           0x0000000038000000 0x0000000000010000 xrw
FLASH            0x0000000008000000 0x0000000000200000 xr
*default*        0x0000000000000000 0xffffffffffffffff

Linker script and memory map

LOAD d:/stm32cubemx/stm32cubeide_1.0.2/stm32cubeide/plugins/com.st.stm32cube.ide.mcu.externaltools.gnu-tools-for-stm32.7-2018-q2-update.win32_1.4.0.202007081208/tools/bin/../lib/gcc/arm-none-eabi/7.3.1/thumb/v7e-m/fpv5/hard/crti.o
LOAD d:/stm32cubemx/stm32cubeide_1.0.2/stm32cubeide/plugins/com.st.stm32cube.ide.mcu.externaltools.gnu-tools-for-stm32.7-2018-q2-update.win32_1.4.0.202007081208/tools/bin/../lib/gcc/arm-none-eabi/7.3.1/thumb/v7e-m/fpv5/hard/crtbegin.o
LOAD d:/stm32cubemx/stm32cubeide_1.0.2/stm32cubeide/plugins/com.st.stm32cube.ide.mcu.externaltools.gnu-tools-for-stm32.7-2018-q2-update.win32_1.4.0.202007081208/tools/bin/../lib/gcc/arm-none-eabi/7.3.1/../../../../arm-none-eabi/lib/thumb/v7e-m/fpv5/hard/crt0.o
LOAD Core/Inc/Algorithm/MahonyAHRS.o
LOAD Core/Inc/AutoPilot/LizhongAutoPilot.o
LOAD Core/Inc/SensorLibrary/gps.o
LOAD Core/Inc/SensorLibrary/rm3100.o
LOAD Core/Inc/SensorLibrary/spl06_01.o
LOAD Core/Src/freertos.o
LOAD Core/Src/main.o
LOAD Core/Src/stm32h7xx_hal_msp.o
LOAD Core/Src/stm32h7xx_hal_timebase_tim.o
LOAD Core/Src/stm32h7xx_it.o
LOAD Core/Src/syscalls.o
LOAD Core/Src/sysmem.o
LOAD Core/Src/system_stm32h7xx.o
LOAD Core/Startup/startup_stm32h743vitx.o
LOAD Drivers/STM32H7xx_HAL_Driver/Src/stm32h7xx_hal.o
LOAD Drivers/STM32H7xx_HAL_Driver/Src/stm32h7xx_hal_cortex.o
LOAD Drivers/STM32H7xx_HAL_Driver/Src/stm32h7xx_hal_dma.o
LOAD Drivers/STM32H7xx_HAL_Driver/Src/stm32h7xx_hal_dma_ex.o
LOAD Drivers/STM32H7xx_HAL_Driver/Src/stm32h7xx_hal_exti.o
LOAD Drivers/STM32H7xx_HAL_Driver/Src/stm32h7xx_hal_flash.o
LOAD Drivers/STM32H7xx_HAL_Driver/Src/stm32h7xx_hal_flash_ex.o
LOAD Drivers/STM32H7xx_HAL_Driver/Src/stm32h7xx_hal_gpio.o
LOAD Drivers/STM32H7xx_HAL_Driver/Src/stm32h7xx_hal_hsem.o
LOAD Drivers/STM32H7xx_HAL_Driver/Src/stm32h7xx_hal_i2c.o
LOAD Drivers/STM32H7xx_HAL_Driver/Src/stm32h7xx_hal_i2c_ex.o
LOAD Drivers/STM32H7xx_HAL_Driver/Src/stm32h7xx_hal_mdma.o
LOAD Drivers/STM32H7xx_HAL_Driver/Src/stm32h7xx_hal_pwr.o
LOAD Drivers/STM32H7xx_HAL_Driver/Src/stm32h7xx_hal_pwr_ex.o
LOAD Drivers/STM32H7xx_HAL_Driver/Src/stm32h7xx_hal_rcc.o
LOAD Drivers/STM32H7xx_HAL_Driver/Src/stm32h7xx_hal_rcc_ex.o
LOAD Drivers/STM32H7xx_HAL_Driver/Src/stm32h7xx_hal_spi.o
LOAD Drivers/STM32H7xx_HAL_Driver/Src/stm32h7xx_hal_spi_ex.o
LOAD Drivers/STM32H7xx_HAL_Driver/Src/stm32h7xx_hal_tim.o
LOAD Drivers/STM32H7xx_HAL_Driver/Src/stm32h7xx_hal_tim_ex.o
LOAD Drivers/STM32H7xx_HAL_Driver/Src/stm32h7xx_hal_uart.o
LOAD Drivers/STM32H7xx_HAL_Driver/Src/stm32h7xx_hal_uart_ex.o
LOAD Middlewares/Third_Party/FreeRTOS/Source/CMSIS_RTOS/cmsis_os.o
LOAD Middlewares/Third_Party/FreeRTOS/Source/croutine.o
LOAD Middlewares/Third_Party/FreeRTOS/Source/event_groups.o
LOAD Middlewares/Third_Party/FreeRTOS/Source/list.o
LOAD Middlewares/Third_Party/FreeRTOS/Source/queue.o
LOAD Middlewares/Third_Party/FreeRTOS/Source/stream_buffer.o
LOAD Middlewares/Third_Party/FreeRTOS/Source/tasks.o
LOAD Middlewares/Third_Party/FreeRTOS/Source/timers.o
LOAD Middlewares/Third_Party/FreeRTOS/Source/portable/GCC/ARM_CM4F/port.o
LOAD Middlewares/Third_Party/FreeRTOS/Source/portable/MemMang/heap_4.o
START GROUP
LOAD d:/stm32cubemx/stm32cubeide_1.0.2/stm32cubeide/plugins/com.st.stm32cube.ide.mcu.externaltools.gnu-tools-for-stm32.7-2018-q2-update.win32_1.4.0.202007081208/tools/bin/../lib/gcc/arm-none-eabi/7.3.1/../../../../arm-none-eabi/lib/thumb/v7e-m/fpv5/hard\libstdc++_nano.a
LOAD d:/stm32cubemx/stm32cubeide_1.0.2/stm32cubeide/plugins/com.st.stm32cube.ide.mcu.externaltools.gnu-tools-for-stm32.7-2018-q2-update.win32_1.4.0.202007081208/tools/bin/../lib/gcc/arm-none-eabi/7.3.1/../../../../arm-none-eabi/lib/thumb/v7e-m/fpv5/hard\libsupc++_nano.a
END GROUP
LOAD d:/stm32cubemx/stm32cubeide_1.0.2/stm32cubeide/plugins/com.st.stm32cube.ide.mcu.externaltools.gnu-tools-for-stm32.7-2018-q2-update.win32_1.4.0.202007081208/tools/bin/../lib/gcc/arm-none-eabi/7.3.1/../../../../arm-none-eabi/lib/thumb/v7e-m/fpv5/hard\libstdc++_nano.a
LOAD d:/stm32cubemx/stm32cubeide_1.0.2/stm32cubeide/plugins/com.st.stm32cube.ide.mcu.externaltools.gnu-tools-for-stm32.7-2018-q2-update.win32_1.4.0.202007081208/tools/bin/../lib/gcc/arm-none-eabi/7.3.1/../../../../arm-none-eabi/lib/thumb/v7e-m/fpv5/hard\libm.a
LOAD d:/stm32cubemx/stm32cubeide_1.0.2/stm32cubeide/plugins/com.st.stm32cube.ide.mcu.externaltools.gnu-tools-for-stm32.7-2018-q2-update.win32_1.4.0.202007081208/tools/bin/../lib/gcc/arm-none-eabi/7.3.1/../../../../arm-none-eabi/lib/thumb/v7e-m/fpv5/hard\libc_nano.a
START GROUP
LOAD d:/stm32cubemx/stm32cubeide_1.0.2/stm32cubeide/plugins/com.st.stm32cube.ide.mcu.externaltools.gnu-tools-for-stm32.7-2018-q2-update.win32_1.4.0.202007081208/tools/bin/../lib/gcc/arm-none-eabi/7.3.1/thumb/v7e-m/fpv5/hard\libgcc.a
LOAD d:/stm32cubemx/stm32cubeide_1.0.2/stm32cubeide/plugins/com.st.stm32cube.ide.mcu.externaltools.gnu-tools-for-stm32.7-2018-q2-update.win32_1.4.0.202007081208/tools/bin/../lib/gcc/arm-none-eabi/7.3.1/../../../../arm-none-eabi/lib/thumb/v7e-m/fpv5/hard\libc_nano.a
END GROUP
START GROUP
LOAD d:/stm32cubemx/stm32cubeide_1.0.2/stm32cubeide/plugins/com.st.stm32cube.ide.mcu.externaltools.gnu-tools-for-stm32.7-2018-q2-update.win32_1.4.0.202007081208/tools/bin/../lib/gcc/arm-none-eabi/7.3.1/thumb/v7e-m/fpv5/hard\libgcc.a
LOAD d:/stm32cubemx/stm32cubeide_1.0.2/stm32cubeide/plugins/com.st.stm32cube.ide.mcu.externaltools.gnu-tools-for-stm32.7-2018-q2-update.win32_1.4.0.202007081208/tools/bin/../lib/gcc/arm-none-eabi/7.3.1/../../../../arm-none-eabi/lib/thumb/v7e-m/fpv5/hard\libc_nano.a
LOAD d:/stm32cubemx/stm32cubeide_1.0.2/stm32cubeide/plugins/com.st.stm32cube.ide.mcu.externaltools.gnu-tools-for-stm32.7-2018-q2-update.win32_1.4.0.202007081208/tools/bin/../lib/gcc/arm-none-eabi/7.3.1/../../../../arm-none-eabi/lib/thumb/v7e-m/fpv5/hard\libnosys.a
END GROUP
START GROUP
LOAD d:/stm32cubemx/stm32cubeide_1.0.2/stm32cubeide/plugins/com.st.stm32cube.ide.mcu.externaltools.gnu-tools-for-stm32.7-2018-q2-update.win32_1.4.0.202007081208/tools/bin/../lib/gcc/arm-none-eabi/7.3.1/thumb/v7e-m/fpv5/hard\libgcc.a
LOAD d:/stm32cubemx/stm32cubeide_1.0.2/stm32cubeide/plugins/com.st.stm32cube.ide.mcu.externaltools.gnu-tools-for-stm32.7-2018-q2-update.win32_1.4.0.202007081208/tools/bin/../lib/gcc/arm-none-eabi/7.3.1/../../../../arm-none-eabi/lib/thumb/v7e-m/fpv5/hard\libc_nano.a
LOAD d:/stm32cubemx/stm32cubeide_1.0.2/stm32cubeide/plugins/com.st.stm32cube.ide.mcu.externaltools.gnu-tools-for-stm32.7-2018-q2-update.win32_1.4.0.202007081208/tools/bin/../lib/gcc/arm-none-eabi/7.3.1/../../../../arm-none-eabi/lib/thumb/v7e-m/fpv5/hard\libnosys.a
END GROUP
LOAD d:/stm32cubemx/stm32cubeide_1.0.2/stm32cubeide/plugins/com.st.stm32cube.ide.mcu.externaltools.gnu-tools-for-stm32.7-2018-q2-update.win32_1.4.0.202007081208/tools/bin/../lib/gcc/arm-none-eabi/7.3.1/thumb/v7e-m/fpv5/hard/crtend.o
LOAD d:/stm32cubemx/stm32cubeide_1.0.2/stm32cubeide/plugins/com.st.stm32cube.ide.mcu.externaltools.gnu-tools-for-stm32.7-2018-q2-update.win32_1.4.0.202007081208/tools/bin/../lib/gcc/arm-none-eabi/7.3.1/thumb/v7e-m/fpv5/hard/crtn.o
                0x0000000024080000                _estack = (ORIGIN (RAM_D1) + LENGTH (RAM_D1))
                0x0000000000002000                _Min_Heap_Size = 0x2000
                0x0000000000004000                _Min_Stack_Size = 0x4000

.isr_vector     0x0000000008000000      0x298
                0x0000000008000000                . = ALIGN (0x4)
 *(.isr_vector)
 .isr_vector    0x0000000008000000      0x298 Core/Startup/startup_stm32h743vitx.o
                0x0000000008000000                g_pfnVectors
                0x0000000008000298                . = ALIGN (0x4)

.text           0x00000000080002a0    0x16624
                0x00000000080002a0                . = ALIGN (0x4)
 *(.text)
 .text          0x00000000080002a0       0x40 d:/stm32cubemx/stm32cubeide_1.0.2/stm32cubeide/plugins/com.st.stm32cube.ide.mcu.externaltools.gnu-tools-for-stm32.7-2018-q2-update.win32_1.4.0.202007081208/tools/bin/../lib/gcc/arm-none-eabi/7.3.1/thumb/v7e-m/fpv5/hard/crtbegin.o
 .text          0x00000000080002e0       0x10 d:/stm32cubemx/stm32cubeide_1.0.2/stm32cubeide/plugins/com.st.stm32cube.ide.mcu.externaltools.gnu-tools-for-stm32.7-2018-q2-update.win32_1.4.0.202007081208/tools/bin/../lib/gcc/arm-none-eabi/7.3.1/../../../../arm-none-eabi/lib/thumb/v7e-m/fpv5/hard\libc_nano.a(lib_a-strlen.o)
                0x00000000080002e0                strlen
 .text          0x00000000080002f0       0xa0 d:/stm32cubemx/stm32cubeide_1.0.2/stm32cubeide/plugins/com.st.stm32cube.ide.mcu.externaltools.gnu-tools-for-stm32.7-2018-q2-update.win32_1.4.0.202007081208/tools/bin/../lib/gcc/arm-none-eabi/7.3.1/../../../../arm-none-eabi/lib/thumb/v7e-m/fpv5/hard\libc_nano.a(lib_a-memchr.o)
                0x00000000080002f0                memchr
 .text          0x0000000008000390       0x30 d:/stm32cubemx/stm32cubeide_1.0.2/stm32cubeide/plugins/com.st.stm32cube.ide.mcu.externaltools.gnu-tools-for-stm32.7-2018-q2-update.win32_1.4.0.202007081208/tools/bin/../lib/gcc/arm-none-eabi/7.3.1/thumb/v7e-m/fpv5/hard\libgcc.a(_aeabi_uldivmod.o)
                0x0000000008000390                __aeabi_uldivmod
 .text          0x00000000080003c0      0x2cc d:/stm32cubemx/stm32cubeide_1.0.2/stm32cubeide/plugins/com.st.stm32cube.ide.mcu.externaltools.gnu-tools-for-stm32.7-2018-q2-update.win32_1.4.0.202007081208/tools/bin/../lib/gcc/arm-none-eabi/7.3.1/thumb/v7e-m/fpv5/hard\libgcc.a(_udivmoddi4.o)
                0x00000000080003c0                __udivmoddi4
 .text          0x000000000800068c        0x4 d:/stm32cubemx/stm32cubeide_1.0.2/stm32cubeide/plugins/com.st.stm32cube.ide.mcu.externaltools.gnu-tools-for-stm32.7-2018-q2-update.win32_1.4.0.202007081208/tools/bin/../lib/gcc/arm-none-eabi/7.3.1/thumb/v7e-m/fpv5/hard\libgcc.a(_dvmd_tls.o)
                0x000000000800068c                __aeabi_idiv0
                0x000000000800068c                __aeabi_ldiv0
 *(.text*)
 .text._Z16MahonyAHRSupdatefffffffff
                0x0000000008000690      0x858 Core/Inc/Algorithm/MahonyAHRS.o
                0x0000000008000690                MahonyAHRSupdate(float, float, float, float, float, float, float, float, float)
 .text._Z19MahonyAHRSupdateIMUffffff
                0x0000000008000ee8      0x4f4 Core/Inc/Algorithm/MahonyAHRS.o
                0x0000000008000ee8                MahonyAHRSupdateIMU(float, float, float, float, float, float)
 .text._Z7invSqrtf
                0x00000000080013dc       0x78 Core/Inc/Algorithm/MahonyAHRS.o
                0x00000000080013dc                invSqrt(float)
 .text._Z21QuaternionToAngleAxisPf
                0x0000000008001454      0x17c Core/Inc/Algorithm/MahonyAHRS.o
                0x0000000008001454                QuaternionToAngleAxis(float*)
 .text._ZSt3cosf
                0x00000000080015d0       0x20 Core/Inc/AutoPilot/LizhongAutoPilot.o
                0x00000000080015d0                std::cos(float)
 .text._ZSt3sinf
                0x00000000080015f0       0x20 Core/Inc/AutoPilot/LizhongAutoPilot.o
                0x00000000080015f0                std::sin(float)
 .text._ZN4uartC2EP20__UART_HandleTypeDef
                0x0000000008001610       0x1e Core/Inc/AutoPilot/LizhongAutoPilot.o
                0x0000000008001610                uart::uart(__UART_HandleTypeDef*)
                0x0000000008001610                uart::uart(__UART_HandleTypeDef*)
 .text._ZN4uart5inputEPKcz
                0x000000000800162e       0x36 Core/Inc/AutoPilot/LizhongAutoPilot.o
                0x000000000800162e                uart::input(char const*, ...)
 .text._ZN4uart2rxEPht
                0x0000000008001664       0x26 Core/Inc/AutoPilot/LizhongAutoPilot.o
                0x0000000008001664                uart::rx(unsigned char*, unsigned short)
 .text._ZN4uart7getLineEv
                0x000000000800168a       0x62 Core/Inc/AutoPilot/LizhongAutoPilot.o
                0x000000000800168a                uart::getLine()
 .text._ZN3SPI7ReadRegEh
                0x00000000080016ec       0x42 Core/Inc/AutoPilot/LizhongAutoPilot.o
                0x00000000080016ec                SPI::ReadReg(unsigned char)
 .text._ZN3SPI8WriteRegEhh
                0x000000000800172e       0x3c Core/Inc/AutoPilot/LizhongAutoPilot.o
                0x000000000800172e                SPI::WriteReg(unsigned char, unsigned char)
 .text._ZN3SPI8ReadRegsEhtPh
                0x000000000800176a       0x58 Core/Inc/AutoPilot/LizhongAutoPilot.o
                0x000000000800176a                SPI::ReadRegs(unsigned char, unsigned short, unsigned char*)
 .text._ZN3SPI13WriteReadByteEh
                0x00000000080017c2       0x30 Core/Inc/AutoPilot/LizhongAutoPilot.o
                0x00000000080017c2                SPI::WriteReadByte(unsigned char)
 .text._ZN3SPI7SET_NSSENS_3NSSE
                0x00000000080017f2       0x3a Core/Inc/AutoPilot/LizhongAutoPilot.o
                0x00000000080017f2                SPI::SET_NSS(SPI::NSS)
 .text._ZN4time5delay8delay_msEm
                0x000000000800182c       0x18 Core/Inc/AutoPilot/LizhongAutoPilot.o
                0x000000000800182c                time::delay::delay_ms(unsigned long)
 .text._ZN5Debug12SerialHandle5beginEP20__UART_HandleTypeDefNS0_9InterfaceEt
                0x0000000008001844       0x40 Core/Inc/AutoPilot/LizhongAutoPilot.o
                0x0000000008001844                Debug::SerialHandle::begin(__UART_HandleTypeDef*, Debug::SerialHandle::Interface, unsigned short)
 .text._ZN5Debug12SerialHandle5printEPKcz
                0x0000000008001884       0x3c Core/Inc/AutoPilot/LizhongAutoPilot.o
                0x0000000008001884                Debug::SerialHandle::print(char const*, ...)
 .text._ZN5Debug12SerialHandle8Who_Am_IEv
                0x00000000080018c0       0x1c Core/Inc/AutoPilot/LizhongAutoPilot.o
                0x00000000080018c0                Debug::SerialHandle::Who_Am_I()
 .text._ZN5Debug12SerialHandle2txEt
                0x00000000080018dc       0x30 Core/Inc/AutoPilot/LizhongAutoPilot.o
                0x00000000080018dc                Debug::SerialHandle::tx(unsigned short)
 *fill*         0x000000000800190c        0x4 
 .text._ZN8BPNN_PIDC2Ev
                0x0000000008001910      0x120 Core/Inc/AutoPilot/LizhongAutoPilot.o
                0x0000000008001910                BPNN_PID::BPNN_PID()
                0x0000000008001910                BPNN_PID::BPNN_PID()
 .text._ZN8BPNN_PID13GenerateInputEv
                0x0000000008001a30       0x9a Core/Inc/AutoPilot/LizhongAutoPilot.o
                0x0000000008001a30                BPNN_PID::GenerateInput()
 .text._ZN8BPNN_PID12UpdataWeightEv
                0x0000000008001aca       0xf6 Core/Inc/AutoPilot/LizhongAutoPilot.o
                0x0000000008001aca                BPNN_PID::UpdataWeight()
 .text._ZN8BPNN_PID18getControlQuantityEv
                0x0000000008001bc0       0x7a Core/Inc/AutoPilot/LizhongAutoPilot.o
                0x0000000008001bc0                BPNN_PID::getControlQuantity()
 *fill*         0x0000000008001c3a        0x2 
 .text._ZN4time5delayC2Ev
                0x0000000008001c3c       0x20 Core/Inc/AutoPilot/LizhongAutoPilot.o
                0x0000000008001c3c                time::delay::delay()
                0x0000000008001c3c                time::delay::delay()
 .text._ZN8icm20602I3SPIEC2Ev
                0x0000000008001c5c       0x34 Core/Inc/AutoPilot/LizhongAutoPilot.o
                0x0000000008001c5c                icm20602<SPI>::icm20602()
                0x0000000008001c5c                icm20602<SPI>::icm20602()
 .text._ZN9LizhongAP16LizhongAutoPilot18LZAP_Debugger_InitEv
                0x0000000008001c90       0x3c Core/Inc/AutoPilot/LizhongAutoPilot.o
                0x0000000008001c90                LizhongAP::LizhongAutoPilot::LZAP_Debugger_Init()
 .text._ZN9LizhongAP16LizhongAutoPilot13LZAP_BAR_InitEv
                0x0000000008001ccc       0x3c Core/Inc/AutoPilot/LizhongAutoPilot.o
                0x0000000008001ccc                LizhongAP::LizhongAutoPilot::LZAP_BAR_Init()
 .text._ZN9LizhongAP16LizhongAutoPilot13LZAP_IMU_InitEv
                0x0000000008001d08       0x70 Core/Inc/AutoPilot/LizhongAutoPilot.o
                0x0000000008001d08                LizhongAP::LizhongAutoPilot::LZAP_IMU_Init()
 .text._ZN9LizhongAP16LizhongAutoPilot13LZAP_CMP_InitEv
                0x0000000008001d78       0x1c Core/Inc/AutoPilot/LizhongAutoPilot.o
                0x0000000008001d78                LizhongAP::LizhongAutoPilot::LZAP_CMP_Init()
 .text._ZN9LizhongAP16LizhongAutoPilot13LZAP_GPS_InitEv
                0x0000000008001d94       0x98 Core/Inc/AutoPilot/LizhongAutoPilot.o
                0x0000000008001d94                LizhongAP::LizhongAutoPilot::LZAP_GPS_Init()
 .text._ZN9LizhongAP16LizhongAutoPilot13LZAP_ULA_InitEv
                0x0000000008001e2c       0x16 Core/Inc/AutoPilot/LizhongAutoPilot.o
                0x0000000008001e2c                LizhongAP::LizhongAutoPilot::LZAP_ULA_Init()
 .text._ZN9LizhongAP16LizhongAutoPilot14LZAP_FLOW_InitEv
                0x0000000008001e42       0x16 Core/Inc/AutoPilot/LizhongAutoPilot.o
                0x0000000008001e42                LizhongAP::LizhongAutoPilot::LZAP_FLOW_Init()
 .text._ZN9LizhongAP16LizhongAutoPilot13LZAP_ICS_InitEv
                0x0000000008001e58      0x250 Core/Inc/AutoPilot/LizhongAutoPilot.o
                0x0000000008001e58                LizhongAP::LizhongAutoPilot::LZAP_ICS_Init()
 .text._ZN9LizhongAP16LizhongAutoPilot15LZAP_Mixer_InitEt
                0x00000000080020a8       0xf0 Core/Inc/AutoPilot/LizhongAutoPilot.o
                0x00000000080020a8                LizhongAP::LizhongAutoPilot::LZAP_Mixer_Init(unsigned short)
 .text._ZN9LizhongAP16LizhongAutoPilot9GCS_2_BCSEPNS0_7GCS_POSES2_PNS0_7BCS_POSEfcf
                0x0000000008002198      0x1a4 Core/Inc/AutoPilot/LizhongAutoPilot.o
                0x0000000008002198                LizhongAP::LizhongAutoPilot::GCS_2_BCS(LizhongAP::LizhongAutoPilot::GCS_POS*, LizhongAP::LizhongAutoPilot::GCS_POS*, LizhongAP::LizhongAutoPilot::BCS_POS*, float, char, float)
 *fill*         0x000000000800233c        0x4 
 .text._ZN9LizhongAP16LizhongAutoPilot14BCS_Updata_GCSEPNS0_7GCS_POSEPNS0_7BCS_POSEfcf
                0x0000000008002340      0x17c Core/Inc/AutoPilot/LizhongAutoPilot.o
                0x0000000008002340                LizhongAP::LizhongAutoPilot::BCS_Updata_GCS(LizhongAP::LizhongAutoPilot::GCS_POS*, LizhongAP::LizhongAutoPilot::BCS_POS*, float, char, float)
 .text._ZN9LizhongAP16LizhongAutoPilot9GPS_2_GCSEP8GPS_INFOPNS0_7GCS_POSE
                0x00000000080024bc       0x80 Core/Inc/AutoPilot/LizhongAutoPilot.o
                0x00000000080024bc                LizhongAP::LizhongAutoPilot::GPS_2_GCS(GPS_INFO*, LizhongAP::LizhongAutoPilot::GCS_POS*)
 .text._ZN9LizhongAP16LizhongAutoPilot14LZAP_CHECK_GPSEP8GPS_INFO
                0x000000000800253c       0x24 Core/Inc/AutoPilot/LizhongAutoPilot.o
                0x000000000800253c                LizhongAP::LizhongAutoPilot::LZAP_CHECK_GPS(GPS_INFO*)
 .text._ZN9LizhongAP16LizhongAutoPilot9rcReceiveENS0_11rc_protocolE
                0x0000000008002560       0x64 Core/Inc/AutoPilot/LizhongAutoPilot.o
                0x0000000008002560                LizhongAP::LizhongAutoPilot::rcReceive(LizhongAP::LizhongAutoPilot::rc_protocol)
 *fill*         0x00000000080025c4        0x4 
 .text._ZN9LizhongAP16LizhongAutoPilot7runSINSEv
                0x00000000080025c8      0x2ac Core/Inc/AutoPilot/LizhongAutoPilot.o
                0x00000000080025c8                LizhongAP::LizhongAutoPilot::runSINS()
 *fill*         0x0000000008002874        0x4 
 .text._ZN9LizhongAP16LizhongAutoPilot18getControlQuantityEv
                0x0000000008002878      0xd64 Core/Inc/AutoPilot/LizhongAutoPilot.o
                0x0000000008002878                LizhongAP::LizhongAutoPilot::getControlQuantity()
 *fill*         0x00000000080035dc        0x4 
 .text._ZN9LizhongAP16LizhongAutoPilot11MixerUpdataEv
                0x00000000080035e0      0x240 Core/Inc/AutoPilot/LizhongAutoPilot.o
                0x00000000080035e0                LizhongAP::LizhongAutoPilot::MixerUpdata()
 .text._ZN9LizhongAP16LizhongAutoPilot14LZAP_SINS_InitEv
                0x0000000008003820       0x50 Core/Inc/AutoPilot/LizhongAutoPilot.o
                0x0000000008003820                LizhongAP::LizhongAutoPilot::LZAP_SINS_Init()
 .text._ZN9LizhongAP16LizhongAutoPilot18sinsTimeBaseUpdataEv
                0x0000000008003870       0x2c Core/Inc/AutoPilot/LizhongAutoPilot.o
                0x0000000008003870                LizhongAP::LizhongAutoPilot::sinsTimeBaseUpdata()
 .text._ZN8icm20602I3SPIE4initEv
                0x000000000800389c       0x7e Core/Inc/AutoPilot/LizhongAutoPilot.o
                0x000000000800389c                icm20602<SPI>::init()
 .text._ZN8icm20602I3SPIE9getChipIDEv
                0x000000000800391a       0x1a Core/Inc/AutoPilot/LizhongAutoPilot.o
                0x000000000800391a                icm20602<SPI>::getChipID()
 .text._ZN8icm20602I3SPIE6UpdataEv
                0x0000000008003934      0x10c Core/Inc/AutoPilot/LizhongAutoPilot.o
                0x0000000008003934                icm20602<SPI>::Updata()
 .text._ZN8icm20602I3SPIE9WriteByteEhh
                0x0000000008003a40       0x26 Core/Inc/AutoPilot/LizhongAutoPilot.o
                0x0000000008003a40                icm20602<SPI>::WriteByte(unsigned char, unsigned char)
 *fill*         0x0000000008003a66        0x2 
 .text._ZN8icm20602I3SPIE28icm20602_set_accel_fullscaleEh
                0x0000000008003a68       0xc8 Core/Inc/AutoPilot/LizhongAutoPilot.o
                0x0000000008003a68                icm20602<SPI>::icm20602_set_accel_fullscale(unsigned char)
 .text._ZN8icm20602I3SPIE27icm20602_set_gyro_fullscaleEh
                0x0000000008003b30       0xd0 Core/Inc/AutoPilot/LizhongAutoPilot.o
                0x0000000008003b30                icm20602<SPI>::icm20602_set_gyro_fullscale(unsigned char)
 .text._ZN8icm20602I3SPIE8ReadByteEh
                0x0000000008003c00       0x24 Core/Inc/AutoPilot/LizhongAutoPilot.o
                0x0000000008003c00                icm20602<SPI>::ReadByte(unsigned char)
 .text._ZN8icm20602I3SPIE9ReadBytesEhPhh
                0x0000000008003c24       0x2c Core/Inc/AutoPilot/LizhongAutoPilot.o
                0x0000000008003c24                icm20602<SPI>::ReadBytes(unsigned char, unsigned char*, unsigned char)
 .text._Z41__static_initialization_and_destruction_0ii
                0x0000000008003c50       0xf4 Core/Inc/AutoPilot/LizhongAutoPilot.o
 .text._GLOBAL__sub_I_Serial
                0x0000000008003d44       0x10 Core/Inc/AutoPilot/LizhongAutoPilot.o
 .text._ZL8GetCommaiPc
                0x0000000008003d54       0x56 Core/Inc/SensorLibrary/gps.o
 .text._ZL17get_double_numberPc
                0x0000000008003daa       0x52 Core/Inc/SensorLibrary/gps.o
 .text._Z7UTC2BTCP8DateTime
                0x0000000008003dfc      0x13e Core/Inc/SensorLibrary/gps.o
                0x0000000008003dfc                UTC2BTC(DateTime*)
 .text._Z9gpsDecodePcP8GPS_INFO
                0x0000000008003f3a      0x228 Core/Inc/SensorLibrary/gps.o
                0x0000000008003f3a                gpsDecode(char*, GPS_INFO*)
 *fill*         0x0000000008004162        0x2 
 .text._ZN6rm31004initEv
                0x0000000008004164       0xf0 Core/Inc/SensorLibrary/rm3100.o
                0x0000000008004164                rm3100::init()
 .text._ZN6rm310014spi_read_bytesEhhPh
                0x0000000008004254       0x28 Core/Inc/SensorLibrary/rm3100.o
                0x0000000008004254                rm3100::spi_read_bytes(unsigned char, unsigned char, unsigned char*)
 .text._ZN6rm310016spi_read_onebyteEhPh
                0x000000000800427c       0x2a Core/Inc/SensorLibrary/rm3100.o
                0x000000000800427c                rm3100::spi_read_onebyte(unsigned char, unsigned char*)
 .text._ZN6rm310017spi_write_onebyteEhh
                0x00000000080042a6       0x24 Core/Inc/SensorLibrary/rm3100.o
                0x00000000080042a6                rm3100::spi_write_onebyte(unsigned char, unsigned char)
 .text._ZN6rm31007getDataEv
                0x00000000080042ca       0xb8 Core/Inc/SensorLibrary/rm3100.o
                0x00000000080042ca                rm3100::getData()
 *fill*         0x0000000008004382        0x2 
 .text._ZN6rm31006UpdataEv
                0x0000000008004384       0x68 Core/Inc/SensorLibrary/rm3100.o
                0x0000000008004384                rm3100::Updata()
 .text._Z13spl0601_writethh
                0x00000000080043ec       0x40 Core/Inc/SensorLibrary/spl06_01.o
                0x00000000080043ec                spl0601_write(unsigned short, unsigned char, unsigned char)
 .text._Z12spl0601_readhh
                0x000000000800442c       0x44 Core/Inc/SensorLibrary/spl06_01.o
                0x000000000800442c                spl0601_read(unsigned char, unsigned char)
 .text._Z26spl06_pressure_rate_confighh
                0x0000000008004470       0xd8 Core/Inc/SensorLibrary/spl06_01.o
                0x0000000008004470                spl06_pressure_rate_config(unsigned char, unsigned char)
 .text._Z29spl06_temperature_rate_confighhh
                0x0000000008004548       0xe4 Core/Inc/SensorLibrary/spl06_01.o
                0x0000000008004548                spl06_temperature_rate_config(unsigned char, unsigned char, unsigned char)
 .text._Z24spl06_get_measure_statusv
                0x000000000800462c       0x12 Core/Inc/SensorLibrary/spl06_01.o
                0x000000000800462c                spl06_get_measure_status()
 .text._Z22spl06_set_measure_modeh
                0x000000000800463e       0x1e Core/Inc/SensorLibrary/spl06_01.o
                0x000000000800463e                spl06_set_measure_mode(unsigned char)
 .text._Z17spl06_get_chip_idv
                0x000000000800465c       0x12 Core/Inc/SensorLibrary/spl06_01.o
                0x000000000800465c                spl06_get_chip_id()
 *fill*         0x000000000800466e        0x2 
 .text._Z23spl0601_get_calib_paramv
                0x0000000008004670      0x268 Core/Inc/SensorLibrary/spl06_01.o
                0x0000000008004670                spl0601_get_calib_param()
 .text._ZN5spl064initEv
                0x00000000080048d8       0x74 Core/Inc/SensorLibrary/spl06_01.o
                0x00000000080048d8                spl06::init()
 .text._Z20spl0601_get_raw_tempv
                0x000000000800494c       0x74 Core/Inc/SensorLibrary/spl06_01.o
                0x000000000800494c                spl0601_get_raw_temp()
 .text._Z24spl0601_get_raw_pressurev
                0x00000000080049c0       0x68 Core/Inc/SensorLibrary/spl06_01.o
                0x00000000080049c0                spl0601_get_raw_pressure()
 .text._ZN5spl0614getTemperatureEv
                0x0000000008004a28       0x80 Core/Inc/SensorLibrary/spl06_01.o
                0x0000000008004a28                spl06::getTemperature()
 .text._ZN5spl0611getPressureEv
                0x0000000008004aa8      0x128 Core/Inc/SensorLibrary/spl06_01.o
                0x0000000008004aa8                spl06::getPressure()
 .text._ZN5spl066UpdataEv
                0x0000000008004bd0       0x5c Core/Inc/SensorLibrary/spl06_01.o
                0x0000000008004bd0                spl06::Updata()
 .text.vApplicationGetIdleTaskMemory
                0x0000000008004c2c       0x34 Core/Src/freertos.o
                0x0000000008004c2c                vApplicationGetIdleTaskMemory
 .text.main     0x0000000008004c60      0x298 Core/Src/main.o
                0x0000000008004c60                main
 .text._Z18SystemClock_Configv
                0x0000000008004ef8      0x1b4 Core/Src/main.o
                0x0000000008004ef8                SystemClock_Config()
 .text._ZL12MX_I2C1_Initv
                0x00000000080050ac       0xa4 Core/Src/main.o
 .text._ZL12MX_I2C2_Initv
                0x0000000008005150       0xa4 Core/Src/main.o
 .text._ZL12MX_SPI1_Initv
                0x00000000080051f4       0xbc Core/Src/main.o
 .text._ZL12MX_SPI2_Initv
                0x00000000080052b0       0xb8 Core/Src/main.o
 .text._ZL12MX_SPI4_Initv
                0x0000000008005368       0xb8 Core/Src/main.o
 .text._ZL12MX_SPI6_Initv
                0x0000000008005420       0xbc Core/Src/main.o
 .text._ZL12MX_TIM1_Initv
                0x00000000080054dc      0x1fc Core/Src/main.o
 .text._ZL12MX_TIM2_Initv
                0x00000000080056d8      0x114 Core/Src/main.o
 .text._ZL12MX_TIM4_Initv
                0x00000000080057ec      0x180 Core/Src/main.o
 .text._ZL13MX_TIM17_Initv
                0x000000000800596c       0x58 Core/Src/main.o
 .text._ZL13MX_UART4_Initv
                0x00000000080059c4       0xc0 Core/Src/main.o
 .text._ZL13MX_UART7_Initv
                0x0000000008005a84       0xc0 Core/Src/main.o
 .text._ZL13MX_UART8_Initv
                0x0000000008005b44       0xc4 Core/Src/main.o
 .text._ZL19MX_USART2_UART_Initv
                0x0000000008005c08       0xc0 Core/Src/main.o
 .text._ZL19MX_USART3_UART_Initv
                0x0000000008005cc8       0xc0 Core/Src/main.o
 .text._ZL19MX_USART6_UART_Initv
                0x0000000008005d88       0xc0 Core/Src/main.o
 .text._ZL11MX_DMA_Initv
                0x0000000008005e48       0x40 Core/Src/main.o
 .text._ZL12MX_GPIO_Initv
                0x0000000008005e88      0x19c Core/Src/main.o
 .text._Z8CTRL_LED5__LED9__LED_SET
                0x0000000008006024       0xd8 Core/Src/main.o
                0x0000000008006024                CTRL_LED(__LED, __LED_SET)
 .text._Z11LizhongMainPKv
                0x00000000080060fc       0x12 Core/Src/main.o
                0x00000000080060fc                LizhongMain(void const*)
 *fill*         0x000000000800610e        0x2 
 .text._Z11LizhongSINSPKv
                0x0000000008006110       0x28 Core/Src/main.o
                0x0000000008006110                LizhongSINS(void const*)
 .text._Z10LizhongGPSPKv
                0x0000000008006138       0x60 Core/Src/main.o
                0x0000000008006138                LizhongGPS(void const*)
 .text._Z9LizhongRCPKv
                0x0000000008006198       0x2c Core/Src/main.o
                0x0000000008006198                LizhongRC(void const*)
 .text._Z12LizhongMixerPKv
                0x00000000080061c4       0x28 Core/Src/main.o
                0x00000000080061c4                LizhongMixer(void const*)
 .text._Z15lizhongGuidancePKv
                0x00000000080061ec       0x12 Core/Src/main.o
                0x00000000080061ec                lizhongGuidance(void const*)
 *fill*         0x00000000080061fe        0x2 
 .text.HAL_TIM_PeriodElapsedCallback
                0x0000000008006200       0x24 Core/Src/main.o
                0x0000000008006200                HAL_TIM_PeriodElapsedCallback
 .text.Error_Handler
                0x0000000008006224        0xe Core/Src/main.o
                0x0000000008006224                Error_Handler
 *fill*         0x0000000008006232        0x2 
 .text._Z41__static_initialization_and_destruction_0ii
                0x0000000008006234       0x34 Core/Src/main.o
 .text._GLOBAL__sub_I_hi2c1
                0x0000000008006268       0x10 Core/Src/main.o
 .text.HAL_MspInit
                0x0000000008006278       0x34 Core/Src/stm32h7xx_hal_msp.o
                0x0000000008006278                HAL_MspInit
 .text.HAL_I2C_MspInit
                0x00000000080062ac      0x100 Core/Src/stm32h7xx_hal_msp.o
                0x00000000080062ac                HAL_I2C_MspInit
 .text.HAL_SPI_MspInit
                0x00000000080063ac      0x224 Core/Src/stm32h7xx_hal_msp.o
                0x00000000080063ac                HAL_SPI_MspInit
 .text.HAL_TIM_Base_MspInit
                0x00000000080065d0      0x180 Core/Src/stm32h7xx_hal_msp.o
                0x00000000080065d0                HAL_TIM_Base_MspInit
 .text.HAL_TIM_MspPostInit
                0x0000000008006750       0xcc Core/Src/stm32h7xx_hal_msp.o
                0x0000000008006750                HAL_TIM_MspPostInit
 .text.HAL_UART_MspInit
                0x000000000800681c      0x2c0 Core/Src/stm32h7xx_hal_msp.o
                0x000000000800681c                HAL_UART_MspInit
 .text.HAL_InitTick
                0x0000000008006adc       0xb8 Core/Src/stm32h7xx_hal_timebase_tim.o
                0x0000000008006adc                HAL_InitTick
 .text.NMI_Handler
                0x0000000008006b94        0xe Core/Src/stm32h7xx_it.o
                0x0000000008006b94                NMI_Handler
 .text.HardFault_Handler
                0x0000000008006ba2        0x6 Core/Src/stm32h7xx_it.o
                0x0000000008006ba2                HardFault_Handler
 .text.MemManage_Handler
                0x0000000008006ba8        0x6 Core/Src/stm32h7xx_it.o
                0x0000000008006ba8                MemManage_Handler
 .text.BusFault_Handler
                0x0000000008006bae        0x6 Core/Src/stm32h7xx_it.o
                0x0000000008006bae                BusFault_Handler
 .text.UsageFault_Handler
                0x0000000008006bb4        0x6 Core/Src/stm32h7xx_it.o
                0x0000000008006bb4                UsageFault_Handler
 .text.DebugMon_Handler
                0x0000000008006bba        0xe Core/Src/stm32h7xx_it.o
                0x0000000008006bba                DebugMon_Handler
 .text.DMA1_Stream0_IRQHandler
                0x0000000008006bc8       0x14 Core/Src/stm32h7xx_it.o
                0x0000000008006bc8                DMA1_Stream0_IRQHandler
 .text.TIM7_IRQHandler
                0x0000000008006bdc       0x14 Core/Src/stm32h7xx_it.o
                0x0000000008006bdc                TIM7_IRQHandler
 .text._getpid  0x0000000008006bf0       0x10 Core/Src/syscalls.o
                0x0000000008006bf0                _getpid
 .text._kill    0x0000000008006c00       0x20 Core/Src/syscalls.o
                0x0000000008006c00                _kill
 .text._exit    0x0000000008006c20       0x14 Core/Src/syscalls.o
                0x0000000008006c20                _exit
 .text._sbrk    0x0000000008006c34       0x6c Core/Src/sysmem.o
                0x0000000008006c34                _sbrk
 .text.SystemInit
                0x0000000008006ca0      0x118 Core/Src/system_stm32h7xx.o
                0x0000000008006ca0                SystemInit
 .text.Reset_Handler
                0x0000000008006db8       0x50 Core/Startup/startup_stm32h743vitx.o
                0x0000000008006db8                Reset_Handler
 .text.Default_Handler
                0x0000000008006e08        0x2 Core/Startup/startup_stm32h743vitx.o
                0x0000000008006e08                RTC_Alarm_IRQHandler
                0x0000000008006e08                EXTI2_IRQHandler
                0x0000000008006e08                TIM8_CC_IRQHandler
                0x0000000008006e08                HRTIM1_Master_IRQHandler
                0x0000000008006e08                UART8_IRQHandler
                0x0000000008006e08                SPI4_IRQHandler
                0x0000000008006e08                TIM1_CC_IRQHandler
                0x0000000008006e08                BDMA_Channel6_IRQHandler
                0x0000000008006e08                DMA2_Stream5_IRQHandler
                0x0000000008006e08                HRTIM1_FLT_IRQHandler
                0x0000000008006e08                JPEG_IRQHandler
                0x0000000008006e08                DMA1_Stream5_IRQHandler
                0x0000000008006e08                BDMA_Channel1_IRQHandler
                0x0000000008006e08                HRTIM1_TIMD_IRQHandler
                0x0000000008006e08                TAMP_STAMP_IRQHandler
                0x0000000008006e08                EXTI3_IRQHandler
                0x0000000008006e08                LPTIM4_IRQHandler
                0x0000000008006e08                TIM8_TRG_COM_TIM14_IRQHandler
                0x0000000008006e08                LPTIM2_IRQHandler
                0x0000000008006e08                DFSDM1_FLT1_IRQHandler
                0x0000000008006e08                DMAMUX2_OVR_IRQHandler
                0x0000000008006e08                TIM8_UP_TIM13_IRQHandler
                0x0000000008006e08                I2C3_ER_IRQHandler
                0x0000000008006e08                DFSDM1_FLT2_IRQHandler
                0x0000000008006e08                MDMA_IRQHandler
                0x0000000008006e08                LPTIM3_IRQHandler
                0x0000000008006e08                HSEM1_IRQHandler
                0x0000000008006e08                EXTI0_IRQHandler
                0x0000000008006e08                I2C2_EV_IRQHandler
                0x0000000008006e08                DMA1_Stream2_IRQHandler
                0x0000000008006e08                FPU_IRQHandler
                0x0000000008006e08                OTG_HS_WKUP_IRQHandler
                0x0000000008006e08                FDCAN1_IT1_IRQHandler
                0x0000000008006e08                LTDC_ER_IRQHandler
                0x0000000008006e08                DMA2_Stream2_IRQHandler
                0x0000000008006e08                HRTIM1_TIME_IRQHandler
                0x0000000008006e08                SPI1_IRQHandler
                0x0000000008006e08                TIM6_DAC_IRQHandler
                0x0000000008006e08                DCMI_IRQHandler
                0x0000000008006e08                HRTIM1_TIMC_IRQHandler
                0x0000000008006e08                DMA2_Stream3_IRQHandler
                0x0000000008006e08                SAI2_IRQHandler
                0x0000000008006e08                DFSDM1_FLT3_IRQHandler
                0x0000000008006e08                USART6_IRQHandler
                0x0000000008006e08                TIM17_IRQHandler
                0x0000000008006e08                USART3_IRQHandler
                0x0000000008006e08                BDMA_Channel7_IRQHandler
                0x0000000008006e08                LPTIM5_IRQHandler
                0x0000000008006e08                UART5_IRQHandler
                0x0000000008006e08                ADC3_IRQHandler
                0x0000000008006e08                DMA2_Stream0_IRQHandler
                0x0000000008006e08                TIM4_IRQHandler
                0x0000000008006e08                BDMA_Channel2_IRQHandler
                0x0000000008006e08                QUADSPI_IRQHandler
                0x0000000008006e08                I2C1_EV_IRQHandler
                0x0000000008006e08                DMA1_Stream6_IRQHandler
                0x0000000008006e08                DMAMUX1_OVR_IRQHandler
                0x0000000008006e08                DMA1_Stream1_IRQHandler
                0x0000000008006e08                TIM16_IRQHandler
                0x0000000008006e08                UART4_IRQHandler
                0x0000000008006e08                BDMA_Channel5_IRQHandler
                0x0000000008006e08                TIM3_IRQHandler
                0x0000000008006e08                RCC_IRQHandler
                0x0000000008006e08                TIM8_BRK_TIM12_IRQHandler
                0x0000000008006e08                TIM1_TRG_COM_IRQHandler
                0x0000000008006e08                Default_Handler
                0x0000000008006e08                ECC_IRQHandler
                0x0000000008006e08                CEC_IRQHandler
                0x0000000008006e08                EXTI15_10_IRQHandler
                0x0000000008006e08                BDMA_Channel0_IRQHandler
                0x0000000008006e08                ADC_IRQHandler
                0x0000000008006e08                DMA1_Stream7_IRQHandler
                0x0000000008006e08                HRTIM1_TIMA_IRQHandler
                0x0000000008006e08                SPI5_IRQHandler
                0x0000000008006e08                SDMMC1_IRQHandler
                0x0000000008006e08                TIM5_IRQHandler
                0x0000000008006e08                DMA2_Stream7_IRQHandler
                0x0000000008006e08                TIM15_IRQHandler
                0x0000000008006e08                PVD_AVD_IRQHandler
                0x0000000008006e08                I2C3_EV_IRQHandler
                0x0000000008006e08                EXTI9_5_IRQHandler
                0x0000000008006e08                RTC_WKUP_IRQHandler
                0x0000000008006e08                LTDC_IRQHandler
                0x0000000008006e08                SAI3_IRQHandler
                0x0000000008006e08                ETH_WKUP_IRQHandler
                0x0000000008006e08                SPDIF_RX_IRQHandler
                0x0000000008006e08                SPI2_IRQHandler
                0x0000000008006e08                OTG_HS_EP1_IN_IRQHandler
                0x0000000008006e08                CRS_IRQHandler
                0x0000000008006e08                EXTI4_IRQHandler
                0x0000000008006e08                RNG_IRQHandler
                0x0000000008006e08                HRTIM1_TIMB_IRQHandler
                0x0000000008006e08                FDCAN2_IT1_IRQHandler
                0x0000000008006e08                ETH_IRQHandler
                0x0000000008006e08                TIM1_UP_IRQHandler
                0x0000000008006e08                BDMA_Channel4_IRQHandler
                0x0000000008006e08                OTG_HS_EP1_OUT_IRQHandler
                0x0000000008006e08                WWDG_IRQHandler
                0x0000000008006e08                SPI6_IRQHandler
                0x0000000008006e08                MDIOS_IRQHandler
                0x0000000008006e08                I2C4_EV_IRQHandler
                0x0000000008006e08                FDCAN2_IT0_IRQHandler
                0x0000000008006e08                LPUART1_IRQHandler
                0x0000000008006e08                FDCAN1_IT0_IRQHandler
                0x0000000008006e08                TIM2_IRQHandler
                0x0000000008006e08                OTG_FS_WKUP_IRQHandler
                0x0000000008006e08                OTG_HS_IRQHandler
                0x0000000008006e08                DMA2D_IRQHandler
                0x0000000008006e08                TIM1_BRK_IRQHandler
                0x0000000008006e08                EXTI1_IRQHandler
                0x0000000008006e08                SDMMC2_IRQHandler
                0x0000000008006e08                OTG_FS_EP1_OUT_IRQHandler
                0x0000000008006e08                BDMA_Channel3_IRQHandler
                0x0000000008006e08                UART7_IRQHandler
                0x0000000008006e08                MDIOS_WKUP_IRQHandler
                0x0000000008006e08                USART2_IRQHandler
                0x0000000008006e08                DFSDM1_FLT0_IRQHandler
                0x0000000008006e08                SAI4_IRQHandler
                0x0000000008006e08                I2C2_ER_IRQHandler
                0x0000000008006e08                DMA2_Stream1_IRQHandler
                0x0000000008006e08                FLASH_IRQHandler
                0x0000000008006e08                DMA2_Stream4_IRQHandler
                0x0000000008006e08                USART1_IRQHandler
                0x0000000008006e08                OTG_FS_IRQHandler
                0x0000000008006e08                SPI3_IRQHandler
                0x0000000008006e08                WAKEUP_PIN_IRQHandler
                0x0000000008006e08                DMA1_Stream4_IRQHandler
                0x0000000008006e08                OTG_FS_EP1_IN_IRQHandler
                0x0000000008006e08                I2C1_ER_IRQHandler
                0x0000000008006e08                FMC_IRQHandler
                0x0000000008006e08                FDCAN_CAL_IRQHandler
                0x0000000008006e08                SWPMI1_IRQHandler
                0x0000000008006e08                COMP1_IRQHandler
                0x0000000008006e08                LPTIM1_IRQHandler
                0x0000000008006e08                I2C4_ER_IRQHandler
                0x0000000008006e08                DMA2_Stream6_IRQHandler
                0x0000000008006e08                SAI1_IRQHandler
                0x0000000008006e08                DMA1_Stream3_IRQHandler
 *fill*         0x0000000008006e0a        0x2 
 .text.HAL_Init
                0x0000000008006e0c       0x78 Drivers/STM32H7xx_HAL_Driver/Src/stm32h7xx_hal.o
                0x0000000008006e0c                HAL_Init
 .text.HAL_IncTick
                0x0000000008006e84       0x28 Drivers/STM32H7xx_HAL_Driver/Src/stm32h7xx_hal.o
                0x0000000008006e84                HAL_IncTick
 .text.HAL_GetTick
                0x0000000008006eac       0x18 Drivers/STM32H7xx_HAL_Driver/Src/stm32h7xx_hal.o
                0x0000000008006eac                HAL_GetTick
 .text.HAL_GetREVID
                0x0000000008006ec4       0x18 Drivers/STM32H7xx_HAL_Driver/Src/stm32h7xx_hal.o
                0x0000000008006ec4                HAL_GetREVID
 .text.__NVIC_SetPriorityGrouping
                0x0000000008006edc       0x48 Drivers/STM32H7xx_HAL_Driver/Src/stm32h7xx_hal_cortex.o
 .text.__NVIC_GetPriorityGrouping
                0x0000000008006f24       0x1c Drivers/STM32H7xx_HAL_Driver/Src/stm32h7xx_hal_cortex.o
 .text.__NVIC_EnableIRQ
                0x0000000008006f40       0x3c Drivers/STM32H7xx_HAL_Driver/Src/stm32h7xx_hal_cortex.o
 .text.__NVIC_SetPriority
                0x0000000008006f7c       0x54 Drivers/STM32H7xx_HAL_Driver/Src/stm32h7xx_hal_cortex.o
 .text.NVIC_EncodePriority
                0x0000000008006fd0       0x66 Drivers/STM32H7xx_HAL_Driver/Src/stm32h7xx_hal_cortex.o
 .text.HAL_NVIC_SetPriorityGrouping
                0x0000000008007036       0x16 Drivers/STM32H7xx_HAL_Driver/Src/stm32h7xx_hal_cortex.o
                0x0000000008007036                HAL_NVIC_SetPriorityGrouping
 .text.HAL_NVIC_SetPriority
                0x000000000800704c       0x34 Drivers/STM32H7xx_HAL_Driver/Src/stm32h7xx_hal_cortex.o
                0x000000000800704c                HAL_NVIC_SetPriority
 .text.HAL_NVIC_EnableIRQ
                0x0000000008007080       0x1c Drivers/STM32H7xx_HAL_Driver/Src/stm32h7xx_hal_cortex.o
                0x0000000008007080                HAL_NVIC_EnableIRQ
 .text.HAL_DMA_Init
                0x000000000800709c      0x6b8 Drivers/STM32H7xx_HAL_Driver/Src/stm32h7xx_hal_dma.o
                0x000000000800709c                HAL_DMA_Init
 .text.HAL_DMA_IRQHandler
                0x0000000008007754      0xe54 Drivers/STM32H7xx_HAL_Driver/Src/stm32h7xx_hal_dma.o
                0x0000000008007754                HAL_DMA_IRQHandler
 .text.DMA_CalcBaseAndBitshift
                0x00000000080085a8      0x164 Drivers/STM32H7xx_HAL_Driver/Src/stm32h7xx_hal_dma.o
 .text.DMA_CheckFifoParam
                0x000000000800870c       0xf8 Drivers/STM32H7xx_HAL_Driver/Src/stm32h7xx_hal_dma.o
 .text.DMA_CalcDMAMUXChannelBaseAndMask
                0x0000000008008804      0x134 Drivers/STM32H7xx_HAL_Driver/Src/stm32h7xx_hal_dma.o
 .text.DMA_CalcDMAMUXRequestGenBaseAndMask
                0x0000000008008938       0xe8 Drivers/STM32H7xx_HAL_Driver/Src/stm32h7xx_hal_dma.o
 .text.HAL_GPIO_Init
                0x0000000008008a20      0x360 Drivers/STM32H7xx_HAL_Driver/Src/stm32h7xx_hal_gpio.o
                0x0000000008008a20                HAL_GPIO_Init
 .text.HAL_GPIO_WritePin
                0x0000000008008d80       0x32 Drivers/STM32H7xx_HAL_Driver/Src/stm32h7xx_hal_gpio.o
                0x0000000008008d80                HAL_GPIO_WritePin
 *fill*         0x0000000008008db2        0x2 
 .text.HAL_I2C_Init
                0x0000000008008db4      0x120 Drivers/STM32H7xx_HAL_Driver/Src/stm32h7xx_hal_i2c.o
                0x0000000008008db4                HAL_I2C_Init
 .text.HAL_I2C_Mem_Write
                0x0000000008008ed4      0x228 Drivers/STM32H7xx_HAL_Driver/Src/stm32h7xx_hal_i2c.o
                0x0000000008008ed4                HAL_I2C_Mem_Write
 .text.HAL_I2C_Mem_Read
                0x00000000080090fc      0x234 Drivers/STM32H7xx_HAL_Driver/Src/stm32h7xx_hal_i2c.o
                0x00000000080090fc                HAL_I2C_Mem_Read
 .text.I2C_RequestMemoryWrite
                0x0000000008009330       0xa8 Drivers/STM32H7xx_HAL_Driver/Src/stm32h7xx_hal_i2c.o
 .text.I2C_RequestMemoryRead
                0x00000000080093d8       0xa8 Drivers/STM32H7xx_HAL_Driver/Src/stm32h7xx_hal_i2c.o
 .text.I2C_Flush_TXDR
                0x0000000008009480       0x48 Drivers/STM32H7xx_HAL_Driver/Src/stm32h7xx_hal_i2c.o
 .text.I2C_WaitOnFlagUntilTimeout
                0x00000000080094c8       0x80 Drivers/STM32H7xx_HAL_Driver/Src/stm32h7xx_hal_i2c.o
 .text.I2C_WaitOnTXISFlagUntilTimeout
                0x0000000008009548       0x80 Drivers/STM32H7xx_HAL_Driver/Src/stm32h7xx_hal_i2c.o
 .text.I2C_WaitOnSTOPFlagUntilTimeout
                0x00000000080095c8       0x78 Drivers/STM32H7xx_HAL_Driver/Src/stm32h7xx_hal_i2c.o
 .text.I2C_IsAcknowledgeFailed
                0x0000000008009640       0xcc Drivers/STM32H7xx_HAL_Driver/Src/stm32h7xx_hal_i2c.o
 .text.I2C_TransferConfig
                0x000000000800970c       0x5c Drivers/STM32H7xx_HAL_Driver/Src/stm32h7xx_hal_i2c.o
 .text.HAL_I2CEx_ConfigAnalogFilter
                0x0000000008009768       0x96 Drivers/STM32H7xx_HAL_Driver/Src/stm32h7xx_hal_i2c_ex.o
                0x0000000008009768                HAL_I2CEx_ConfigAnalogFilter
 .text.HAL_I2CEx_ConfigDigitalFilter
                0x00000000080097fe       0x98 Drivers/STM32H7xx_HAL_Driver/Src/stm32h7xx_hal_i2c_ex.o
                0x00000000080097fe                HAL_I2CEx_ConfigDigitalFilter
 *fill*         0x0000000008009896        0x2 
 .text.HAL_I2CEx_EnableFastModePlus
                0x0000000008009898       0x48 Drivers/STM32H7xx_HAL_Driver/Src/stm32h7xx_hal_i2c_ex.o
                0x0000000008009898                HAL_I2CEx_EnableFastModePlus
 .text.HAL_PWREx_ConfigSupply
                0x00000000080098e0       0x74 Drivers/STM32H7xx_HAL_Driver/Src/stm32h7xx_hal_pwr_ex.o
                0x00000000080098e0                HAL_PWREx_ConfigSupply
 .text.HAL_RCC_OscConfig
                0x0000000008009954      0x820 Drivers/STM32H7xx_HAL_Driver/Src/stm32h7xx_hal_rcc.o
                0x0000000008009954                HAL_RCC_OscConfig
 .text.HAL_RCC_ClockConfig
                0x000000000800a174      0x36c Drivers/STM32H7xx_HAL_Driver/Src/stm32h7xx_hal_rcc.o
                0x000000000800a174                HAL_RCC_ClockConfig
 .text.HAL_RCC_GetSysClockFreq
                0x000000000800a4e0      0x2e4 Drivers/STM32H7xx_HAL_Driver/Src/stm32h7xx_hal_rcc.o
                0x000000000800a4e0                HAL_RCC_GetSysClockFreq
 .text.HAL_RCC_GetHCLKFreq
                0x000000000800a7c4       0x60 Drivers/STM32H7xx_HAL_Driver/Src/stm32h7xx_hal_rcc.o
                0x000000000800a7c4                HAL_RCC_GetHCLKFreq
 .text.HAL_RCC_GetPCLK1Freq
                0x000000000800a824       0x2c Drivers/STM32H7xx_HAL_Driver/Src/stm32h7xx_hal_rcc.o
                0x000000000800a824                HAL_RCC_GetPCLK1Freq
 .text.HAL_RCC_GetPCLK2Freq
                0x000000000800a850       0x2c Drivers/STM32H7xx_HAL_Driver/Src/stm32h7xx_hal_rcc.o
                0x000000000800a850                HAL_RCC_GetPCLK2Freq
 .text.HAL_RCC_GetClockConfig
                0x000000000800a87c       0x84 Drivers/STM32H7xx_HAL_Driver/Src/stm32h7xx_hal_rcc.o
                0x000000000800a87c                HAL_RCC_GetClockConfig
 .text.HAL_RCCEx_PeriphCLKConfig
                0x000000000800a900      0xddc Drivers/STM32H7xx_HAL_Driver/Src/stm32h7xx_hal_rcc_ex.o
                0x000000000800a900                HAL_RCCEx_PeriphCLKConfig
 .text.HAL_RCCEx_GetD3PCLK1Freq
                0x000000000800b6dc       0x2c Drivers/STM32H7xx_HAL_Driver/Src/stm32h7xx_hal_rcc_ex.o
                0x000000000800b6dc                HAL_RCCEx_GetD3PCLK1Freq
 .text.HAL_RCCEx_GetPLL2ClockFreq
                0x000000000800b708      0x298 Drivers/STM32H7xx_HAL_Driver/Src/stm32h7xx_hal_rcc_ex.o
                0x000000000800b708                HAL_RCCEx_GetPLL2ClockFreq
 .text.HAL_RCCEx_GetPLL3ClockFreq
                0x000000000800b9a0      0x298 Drivers/STM32H7xx_HAL_Driver/Src/stm32h7xx_hal_rcc_ex.o
                0x000000000800b9a0                HAL_RCCEx_GetPLL3ClockFreq
 .text.RCCEx_PLL2_Config
                0x000000000800bc38      0x164 Drivers/STM32H7xx_HAL_Driver/Src/stm32h7xx_hal_rcc_ex.o
 .text.RCCEx_PLL3_Config
                0x000000000800bd9c      0x164 Drivers/STM32H7xx_HAL_Driver/Src/stm32h7xx_hal_rcc_ex.o
 .text.HAL_SPI_Init
                0x000000000800bf00      0x1f0 Drivers/STM32H7xx_HAL_Driver/Src/stm32h7xx_hal_spi.o
                0x000000000800bf00                HAL_SPI_Init
 .text.HAL_SPI_TransmitReceive
                0x000000000800c0f0      0x5d8 Drivers/STM32H7xx_HAL_Driver/Src/stm32h7xx_hal_spi.o
                0x000000000800c0f0                HAL_SPI_TransmitReceive
 .text.SPI_CloseTransfer
                0x000000000800c6c8      0x140 Drivers/STM32H7xx_HAL_Driver/Src/stm32h7xx_hal_spi.o
 .text.SPI_WaitOnFlagUntilTimeout
                0x000000000800c808       0x5c Drivers/STM32H7xx_HAL_Driver/Src/stm32h7xx_hal_spi.o
 .text.SPI_GetPacketSize
                0x000000000800c864       0x36 Drivers/STM32H7xx_HAL_Driver/Src/stm32h7xx_hal_spi.o
 .text.HAL_TIM_Base_Init
                0x000000000800c89a       0xae Drivers/STM32H7xx_HAL_Driver/Src/stm32h7xx_hal_tim.o
                0x000000000800c89a                HAL_TIM_Base_Init
 .text.HAL_TIM_Base_Start
                0x000000000800c948       0x5c Drivers/STM32H7xx_HAL_Driver/Src/stm32h7xx_hal_tim.o
                0x000000000800c948                HAL_TIM_Base_Start
 .text.HAL_TIM_Base_Start_IT
                0x000000000800c9a4       0x6c Drivers/STM32H7xx_HAL_Driver/Src/stm32h7xx_hal_tim.o
                0x000000000800c9a4                HAL_TIM_Base_Start_IT
 .text.HAL_TIM_PWM_Init
                0x000000000800ca10       0xae Drivers/STM32H7xx_HAL_Driver/Src/stm32h7xx_hal_tim.o
                0x000000000800ca10                HAL_TIM_PWM_Init
 .text.HAL_TIM_PWM_MspInit
                0x000000000800cabe       0x14 Drivers/STM32H7xx_HAL_Driver/Src/stm32h7xx_hal_tim.o
                0x000000000800cabe                HAL_TIM_PWM_MspInit
 *fill*         0x000000000800cad2        0x2 
 .text.HAL_TIM_PWM_Start
                0x000000000800cad4      0x1a4 Drivers/STM32H7xx_HAL_Driver/Src/stm32h7xx_hal_tim.o
                0x000000000800cad4                HAL_TIM_PWM_Start
 .text.HAL_TIM_IC_Init
                0x000000000800cc78       0xae Drivers/STM32H7xx_HAL_Driver/Src/stm32h7xx_hal_tim.o
                0x000000000800cc78                HAL_TIM_IC_Init
 .text.HAL_TIM_IC_MspInit
                0x000000000800cd26       0x14 Drivers/STM32H7xx_HAL_Driver/Src/stm32h7xx_hal_tim.o
                0x000000000800cd26                HAL_TIM_IC_MspInit
 .text.HAL_TIM_IRQHandler
                0x000000000800cd3a      0x23e Drivers/STM32H7xx_HAL_Driver/Src/stm32h7xx_hal_tim.o
                0x000000000800cd3a                HAL_TIM_IRQHandler
 .text.HAL_TIM_IC_ConfigChannel
                0x000000000800cf78      0x128 Drivers/STM32H7xx_HAL_Driver/Src/stm32h7xx_hal_tim.o
                0x000000000800cf78                HAL_TIM_IC_ConfigChannel
 .text.HAL_TIM_PWM_ConfigChannel
                0x000000000800d0a0      0x220 Drivers/STM32H7xx_HAL_Driver/Src/stm32h7xx_hal_tim.o
                0x000000000800d0a0                HAL_TIM_PWM_ConfigChannel
 .text.HAL_TIM_ConfigClockSource
                0x000000000800d2c0      0x1a0 Drivers/STM32H7xx_HAL_Driver/Src/stm32h7xx_hal_tim.o
                0x000000000800d2c0                HAL_TIM_ConfigClockSource
 .text.HAL_TIM_OC_DelayElapsedCallback
                0x000000000800d460       0x14 Drivers/STM32H7xx_HAL_Driver/Src/stm32h7xx_hal_tim.o
                0x000000000800d460                HAL_TIM_OC_DelayElapsedCallback
 .text.HAL_TIM_IC_CaptureCallback
                0x000000000800d474       0x14 Drivers/STM32H7xx_HAL_Driver/Src/stm32h7xx_hal_tim.o
                0x000000000800d474                HAL_TIM_IC_CaptureCallback
 .text.HAL_TIM_PWM_PulseFinishedCallback
                0x000000000800d488       0x14 Drivers/STM32H7xx_HAL_Driver/Src/stm32h7xx_hal_tim.o
                0x000000000800d488                HAL_TIM_PWM_PulseFinishedCallback
 .text.HAL_TIM_TriggerCallback
                0x000000000800d49c       0x14 Drivers/STM32H7xx_HAL_Driver/Src/stm32h7xx_hal_tim.o
                0x000000000800d49c                HAL_TIM_TriggerCallback
 .text.TIM_Base_SetConfig
                0x000000000800d4b0      0x134 Drivers/STM32H7xx_HAL_Driver/Src/stm32h7xx_hal_tim.o
                0x000000000800d4b0                TIM_Base_SetConfig
 .text.TIM_OC1_SetConfig
                0x000000000800d5e4      0x120 Drivers/STM32H7xx_HAL_Driver/Src/stm32h7xx_hal_tim.o
 .text.TIM_OC2_SetConfig
                0x000000000800d704      0x114 Drivers/STM32H7xx_HAL_Driver/Src/stm32h7xx_hal_tim.o
                0x000000000800d704                TIM_OC2_SetConfig
 .text.TIM_OC3_SetConfig
                0x000000000800d818      0x10c Drivers/STM32H7xx_HAL_Driver/Src/stm32h7xx_hal_tim.o
 .text.TIM_OC4_SetConfig
                0x000000000800d924       0xd0 Drivers/STM32H7xx_HAL_Driver/Src/stm32h7xx_hal_tim.o
 .text.TIM_OC5_SetConfig
                0x000000000800d9f4       0xc4 Drivers/STM32H7xx_HAL_Driver/Src/stm32h7xx_hal_tim.o
 .text.TIM_OC6_SetConfig
                0x000000000800dab8       0xc8 Drivers/STM32H7xx_HAL_Driver/Src/stm32h7xx_hal_tim.o
 .text.TIM_TI1_SetConfig
                0x000000000800db80       0xe8 Drivers/STM32H7xx_HAL_Driver/Src/stm32h7xx_hal_tim.o
                0x000000000800db80                TIM_TI1_SetConfig
 .text.TIM_TI1_ConfigInputStage
                0x000000000800dc68       0x5e Drivers/STM32H7xx_HAL_Driver/Src/stm32h7xx_hal_tim.o
 .text.TIM_TI2_SetConfig
                0x000000000800dcc6       0x7a Drivers/STM32H7xx_HAL_Driver/Src/stm32h7xx_hal_tim.o
 .text.TIM_TI2_ConfigInputStage
                0x000000000800dd40       0x60 Drivers/STM32H7xx_HAL_Driver/Src/stm32h7xx_hal_tim.o
 .text.TIM_TI3_SetConfig
                0x000000000800dda0       0x78 Drivers/STM32H7xx_HAL_Driver/Src/stm32h7xx_hal_tim.o
 .text.TIM_TI4_SetConfig
                0x000000000800de18       0x7a Drivers/STM32H7xx_HAL_Driver/Src/stm32h7xx_hal_tim.o
 *fill*         0x000000000800de92        0x2 
 .text.TIM_ITRx_SetConfig
                0x000000000800de94       0x3c Drivers/STM32H7xx_HAL_Driver/Src/stm32h7xx_hal_tim.o
 .text.TIM_ETR_SetConfig
                0x000000000800ded0       0x40 Drivers/STM32H7xx_HAL_Driver/Src/stm32h7xx_hal_tim.o
                0x000000000800ded0                TIM_ETR_SetConfig
 .text.TIM_CCxChannelCmd
                0x000000000800df10       0x4a Drivers/STM32H7xx_HAL_Driver/Src/stm32h7xx_hal_tim.o
                0x000000000800df10                TIM_CCxChannelCmd
 *fill*         0x000000000800df5a        0x2 
 .text.HAL_TIMEx_MasterConfigSynchronization
                0x000000000800df5c      0x110 Drivers/STM32H7xx_HAL_Driver/Src/stm32h7xx_hal_tim_ex.o
                0x000000000800df5c                HAL_TIMEx_MasterConfigSynchronization
 .text.HAL_TIMEx_ConfigBreakDeadTime
                0x000000000800e06c       0xfc Drivers/STM32H7xx_HAL_Driver/Src/stm32h7xx_hal_tim_ex.o
                0x000000000800e06c                HAL_TIMEx_ConfigBreakDeadTime
 .text.HAL_TIMEx_CommutCallback
                0x000000000800e168       0x14 Drivers/STM32H7xx_HAL_Driver/Src/stm32h7xx_hal_tim_ex.o
                0x000000000800e168                HAL_TIMEx_CommutCallback
 .text.HAL_TIMEx_BreakCallback
                0x000000000800e17c       0x14 Drivers/STM32H7xx_HAL_Driver/Src/stm32h7xx_hal_tim_ex.o
                0x000000000800e17c                HAL_TIMEx_BreakCallback
 .text.HAL_TIMEx_Break2Callback
                0x000000000800e190       0x14 Drivers/STM32H7xx_HAL_Driver/Src/stm32h7xx_hal_tim_ex.o
                0x000000000800e190                HAL_TIMEx_Break2Callback
 .text.HAL_UART_Init
                0x000000000800e1a4       0xa0 Drivers/STM32H7xx_HAL_Driver/Src/stm32h7xx_hal_uart.o
                0x000000000800e1a4                HAL_UART_Init
 .text.HAL_UART_Transmit
                0x000000000800e244      0x12c Drivers/STM32H7xx_HAL_Driver/Src/stm32h7xx_hal_uart.o
                0x000000000800e244                HAL_UART_Transmit
 .text.HAL_UART_Receive
                0x000000000800e370      0x1a0 Drivers/STM32H7xx_HAL_Driver/Src/stm32h7xx_hal_uart.o
                0x000000000800e370                HAL_UART_Receive
 .text.UART_SetConfig
                0x000000000800e510      0xb60 Drivers/STM32H7xx_HAL_Driver/Src/stm32h7xx_hal_uart.o
                0x000000000800e510                UART_SetConfig
 .text.UART_AdvFeatureConfig
                0x000000000800f070      0x144 Drivers/STM32H7xx_HAL_Driver/Src/stm32h7xx_hal_uart.o
                0x000000000800f070                UART_AdvFeatureConfig
 .text.UART_CheckIdleState
                0x000000000800f1b4       0x90 Drivers/STM32H7xx_HAL_Driver/Src/stm32h7xx_hal_uart.o
                0x000000000800f1b4                UART_CheckIdleState
 .text.UART_WaitOnFlagUntilTimeout
                0x000000000800f244      0x100 Drivers/STM32H7xx_HAL_Driver/Src/stm32h7xx_hal_uart.o
                0x000000000800f244                UART_WaitOnFlagUntilTimeout
 .text.HAL_UARTEx_DisableFifoMode
                0x000000000800f344       0x72 Drivers/STM32H7xx_HAL_Driver/Src/stm32h7xx_hal_uart_ex.o
                0x000000000800f344                HAL_UARTEx_DisableFifoMode
 .text.HAL_UARTEx_SetTxFifoThreshold
                0x000000000800f3b6       0x7c Drivers/STM32H7xx_HAL_Driver/Src/stm32h7xx_hal_uart_ex.o
                0x000000000800f3b6                HAL_UARTEx_SetTxFifoThreshold
 .text.HAL_UARTEx_SetRxFifoThreshold
                0x000000000800f432       0x7c Drivers/STM32H7xx_HAL_Driver/Src/stm32h7xx_hal_uart_ex.o
                0x000000000800f432                HAL_UARTEx_SetRxFifoThreshold
 *fill*         0x000000000800f4ae        0x2 
 .text.UARTEx_SetNbDataToProcess
                0x000000000800f4b0       0xd0 Drivers/STM32H7xx_HAL_Driver/Src/stm32h7xx_hal_uart_ex.o
 .text.makeFreeRtosPriority
                0x000000000800f580       0x30 Middlewares/Third_Party/FreeRTOS/Source/CMSIS_RTOS/cmsis_os.o
 .text.osKernelStart
                0x000000000800f5b0        0xe Middlewares/Third_Party/FreeRTOS/Source/CMSIS_RTOS/cmsis_os.o
                0x000000000800f5b0                osKernelStart
 .text.osThreadCreate
                0x000000000800f5be       0x98 Middlewares/Third_Party/FreeRTOS/Source/CMSIS_RTOS/cmsis_os.o
                0x000000000800f5be                osThreadCreate
 .text.osDelay  0x000000000800f656       0x28 Middlewares/Third_Party/FreeRTOS/Source/CMSIS_RTOS/cmsis_os.o
                0x000000000800f656                osDelay
 .text.vListInitialise
                0x000000000800f67e       0x40 Middlewares/Third_Party/FreeRTOS/Source/list.o
                0x000000000800f67e                vListInitialise
 .text.vListInitialiseItem
                0x000000000800f6be       0x1a Middlewares/Third_Party/FreeRTOS/Source/list.o
                0x000000000800f6be                vListInitialiseItem
 .text.vListInsertEnd
                0x000000000800f6d8       0x48 Middlewares/Third_Party/FreeRTOS/Source/list.o
                0x000000000800f6d8                vListInsertEnd
 .text.vListInsert
                0x000000000800f720       0x72 Middlewares/Third_Party/FreeRTOS/Source/list.o
                0x000000000800f720                vListInsert
 .text.uxListRemove
                0x000000000800f792       0x54 Middlewares/Third_Party/FreeRTOS/Source/list.o
                0x000000000800f792                uxListRemove
 .text.xTaskCreateStatic
                0x000000000800f7e6       0xb4 Middlewares/Third_Party/FreeRTOS/Source/tasks.o
                0x000000000800f7e6                xTaskCreateStatic
 .text.xTaskCreate
                0x000000000800f89a       0x8a Middlewares/Third_Party/FreeRTOS/Source/tasks.o
                0x000000000800f89a                xTaskCreate
 .text.prvInitialiseNewTask
                0x000000000800f924      0x10c Middlewares/Third_Party/FreeRTOS/Source/tasks.o
 .text.prvAddNewTaskToReadyList
                0x000000000800fa30       0xd4 Middlewares/Third_Party/FreeRTOS/Source/tasks.o
 .text.vTaskDelay
                0x000000000800fb04       0x68 Middlewares/Third_Party/FreeRTOS/Source/tasks.o
                0x000000000800fb04                vTaskDelay
 .text.vTaskStartScheduler
                0x000000000800fb6c       0xbc Middlewares/Third_Party/FreeRTOS/Source/tasks.o
                0x000000000800fb6c                vTaskStartScheduler
 .text.vTaskSuspendAll
                0x000000000800fc28       0x1c Middlewares/Third_Party/FreeRTOS/Source/tasks.o
                0x000000000800fc28                vTaskSuspendAll
 .text.xTaskResumeAll
                0x000000000800fc44      0x138 Middlewares/Third_Party/FreeRTOS/Source/tasks.o
                0x000000000800fc44                xTaskResumeAll
 .text.xTaskIncrementTick
                0x000000000800fd7c      0x170 Middlewares/Third_Party/FreeRTOS/Source/tasks.o
                0x000000000800fd7c                xTaskIncrementTick
 .text.vTaskSwitchContext
                0x000000000800feec       0xb4 Middlewares/Third_Party/FreeRTOS/Source/tasks.o
                0x000000000800feec                vTaskSwitchContext
 .text.prvIdleTask
                0x000000000800ffa0       0x30 Middlewares/Third_Party/FreeRTOS/Source/tasks.o
 .text.prvInitialiseTaskLists
                0x000000000800ffd0       0x80 Middlewares/Third_Party/FreeRTOS/Source/tasks.o
 .text.prvCheckTasksWaitingTermination
                0x0000000008010050       0x58 Middlewares/Third_Party/FreeRTOS/Source/tasks.o
 .text.prvDeleteTCB
                0x00000000080100a8       0x5c Middlewares/Third_Party/FreeRTOS/Source/tasks.o
 .text.prvResetNextTaskUnblockTime
                0x0000000008010104       0x40 Middlewares/Third_Party/FreeRTOS/Source/tasks.o
 .text.prvAddCurrentTaskToDelayedList
                0x0000000008010144       0xcc Middlewares/Third_Party/FreeRTOS/Source/tasks.o
 .text.pxPortInitialiseStack
                0x0000000008010210       0x68 Middlewares/Third_Party/FreeRTOS/Source/portable/GCC/ARM_CM4F/port.o
                0x0000000008010210                pxPortInitialiseStack
 .text.prvTaskExitError
                0x0000000008010278       0x54 Middlewares/Third_Party/FreeRTOS/Source/portable/GCC/ARM_CM4F/port.o
 *fill*         0x00000000080102cc        0x4 
 .text.SVC_Handler
                0x00000000080102d0       0x28 Middlewares/Third_Party/FreeRTOS/Source/portable/GCC/ARM_CM4F/port.o
                0x00000000080102d0                SVC_Handler
 .text.prvPortStartFirstTask
                0x00000000080102f8       0x28 Middlewares/Third_Party/FreeRTOS/Source/portable/GCC/ARM_CM4F/port.o
 .text.xPortStartScheduler
                0x0000000008010320      0x13c Middlewares/Third_Party/FreeRTOS/Source/portable/GCC/ARM_CM4F/port.o
                0x0000000008010320                xPortStartScheduler
 .text.vPortEnterCritical
                0x000000000801045c       0x5c Middlewares/Third_Party/FreeRTOS/Source/portable/GCC/ARM_CM4F/port.o
                0x000000000801045c                vPortEnterCritical
 .text.vPortExitCritical
                0x00000000080104b8       0x50 Middlewares/Third_Party/FreeRTOS/Source/portable/GCC/ARM_CM4F/port.o
                0x00000000080104b8                vPortExitCritical
 *fill*         0x0000000008010508        0x8 
 .text.PendSV_Handler
                0x0000000008010510       0x68 Middlewares/Third_Party/FreeRTOS/Source/portable/GCC/ARM_CM4F/port.o
                0x0000000008010510                PendSV_Handler
 .text.SysTick_Handler
                0x0000000008010578       0x40 Middlewares/Third_Party/FreeRTOS/Source/portable/GCC/ARM_CM4F/port.o
                0x0000000008010578                SysTick_Handler
 .text.vPortSetupTimerInterrupt
                0x00000000080105b8       0x48 Middlewares/Third_Party/FreeRTOS/Source/portable/GCC/ARM_CM4F/port.o
                0x00000000080105b8                vPortSetupTimerInterrupt
 .text.vPortEnableVFP
                0x0000000008010600       0x14 Middlewares/Third_Party/FreeRTOS/Source/portable/GCC/ARM_CM4F/port.o
 .text.pvPortMalloc
                0x0000000008010614      0x184 Middlewares/Third_Party/FreeRTOS/Source/portable/MemMang/heap_4.o
                0x0000000008010614                pvPortMalloc
 .text.vPortFree
                0x0000000008010798       0xb0 Middlewares/Third_Party/FreeRTOS/Source/portable/MemMang/heap_4.o
                0x0000000008010798                vPortFree
 .text.prvHeapInit
                0x0000000008010848       0xc4 Middlewares/Third_Party/FreeRTOS/Source/portable/MemMang/heap_4.o
 .text.prvInsertBlockIntoFreeList
                0x000000000801090c       0xb4 Middlewares/Third_Party/FreeRTOS/Source/portable/MemMang/heap_4.o
 .text._Znaj    0x00000000080109c0        0x4 d:/stm32cubemx/stm32cubeide_1.0.2/stm32cubeide/plugins/com.st.stm32cube.ide.mcu.externaltools.gnu-tools-for-stm32.7-2018-q2-update.win32_1.4.0.202007081208/tools/bin/../lib/gcc/arm-none-eabi/7.3.1/../../../../arm-none-eabi/lib/thumb/v7e-m/fpv5/hard\libstdc++_nano.a(new_opv.o)
                0x00000000080109c0                operator new[](unsigned int)
 .text._Znwj    0x00000000080109c4       0x22 d:/stm32cubemx/stm32cubeide_1.0.2/stm32cubeide/plugins/com.st.stm32cube.ide.mcu.externaltools.gnu-tools-for-stm32.7-2018-q2-update.win32_1.4.0.202007081208/tools/bin/../lib/gcc/arm-none-eabi/7.3.1/../../../../arm-none-eabi/lib/thumb/v7e-m/fpv5/hard\libstdc++_nano.a(new_op.o)
                0x00000000080109c4                operator new(unsigned int)
 *fill*         0x00000000080109e6        0x2 
 .text._ZSt15get_new_handlerv
                0x00000000080109e8       0x10 d:/stm32cubemx/stm32cubeide_1.0.2/stm32cubeide/plugins/com.st.stm32cube.ide.mcu.externaltools.gnu-tools-for-stm32.7-2018-q2-update.win32_1.4.0.202007081208/tools/bin/../lib/gcc/arm-none-eabi/7.3.1/../../../../arm-none-eabi/lib/thumb/v7e-m/fpv5/hard\libstdc++_nano.a(new_handler.o)
                0x00000000080109e8                std::get_new_handler()
 .text.cos      0x00000000080109f8       0x78 d:/stm32cubemx/stm32cubeide_1.0.2/stm32cubeide/plugins/com.st.stm32cube.ide.mcu.externaltools.gnu-tools-for-stm32.7-2018-q2-update.win32_1.4.0.202007081208/tools/bin/../lib/gcc/arm-none-eabi/7.3.1/../../../../arm-none-eabi/lib/thumb/v7e-m/fpv5/hard\libm.a(lib_a-s_cos.o)
                0x00000000080109f8                cos
 .text.sin      0x0000000008010a70       0x78 d:/stm32cubemx/stm32cubeide_1.0.2/stm32cubeide/plugins/com.st.stm32cube.ide.mcu.externaltools.gnu-tools-for-stm32.7-2018-q2-update.win32_1.4.0.202007081208/tools/bin/../lib/gcc/arm-none-eabi/7.3.1/../../../../arm-none-eabi/lib/thumb/v7e-m/fpv5/hard\libm.a(lib_a-s_sin.o)
                0x0000000008010a70                sin
 .text.cosf     0x0000000008010ae8       0x80 d:/stm32cubemx/stm32cubeide_1.0.2/stm32cubeide/plugins/com.st.stm32cube.ide.mcu.externaltools.gnu-tools-for-stm32.7-2018-q2-update.win32_1.4.0.202007081208/tools/bin/../lib/gcc/arm-none-eabi/7.3.1/../../../../arm-none-eabi/lib/thumb/v7e-m/fpv5/hard\libm.a(lib_a-sf_cos.o)
                0x0000000008010ae8                cosf
 .text.sinf     0x0000000008010b68       0x84 d:/stm32cubemx/stm32cubeide_1.0.2/stm32cubeide/plugins/com.st.stm32cube.ide.mcu.externaltools.gnu-tools-for-stm32.7-2018-q2-update.win32_1.4.0.202007081208/tools/bin/../lib/gcc/arm-none-eabi/7.3.1/../../../../arm-none-eabi/lib/thumb/v7e-m/fpv5/hard\libm.a(lib_a-sf_sin.o)
                0x0000000008010b68                sinf
 .text.atan2    0x0000000008010bec        0x4 d:/stm32cubemx/stm32cubeide_1.0.2/stm32cubeide/plugins/com.st.stm32cube.ide.mcu.externaltools.gnu-tools-for-stm32.7-2018-q2-update.win32_1.4.0.202007081208/tools/bin/../lib/gcc/arm-none-eabi/7.3.1/../../../../arm-none-eabi/lib/thumb/v7e-m/fpv5/hard\libm.a(lib_a-w_atan2.o)
                0x0000000008010bec                atan2
 .text.sqrt     0x0000000008010bf0       0x98 d:/stm32cubemx/stm32cubeide_1.0.2/stm32cubeide/plugins/com.st.stm32cube.ide.mcu.externaltools.gnu-tools-for-stm32.7-2018-q2-update.win32_1.4.0.202007081208/tools/bin/../lib/gcc/arm-none-eabi/7.3.1/../../../../arm-none-eabi/lib/thumb/v7e-m/fpv5/hard\libm.a(lib_a-w_sqrt.o)
                0x0000000008010bf0                sqrt
 .text.__ieee754_atan2
                0x0000000008010c88      0x1c4 d:/stm32cubemx/stm32cubeide_1.0.2/stm32cubeide/plugins/com.st.stm32cube.ide.mcu.externaltools.gnu-tools-for-stm32.7-2018-q2-update.win32_1.4.0.202007081208/tools/bin/../lib/gcc/arm-none-eabi/7.3.1/../../../../arm-none-eabi/lib/thumb/v7e-m/fpv5/hard\libm.a(lib_a-e_atan2.o)
                0x0000000008010c88                __ieee754_atan2
 *fill*         0x0000000008010e4c        0x4 
 .text.__ieee754_rem_pio2
                0x0000000008010e50      0x278 d:/stm32cubemx/stm32cubeide_1.0.2/stm32cubeide/plugins/com.st.stm32cube.ide.mcu.externaltools.gnu-tools-for-stm32.7-2018-q2-update.win32_1.4.0.202007081208/tools/bin/../lib/gcc/arm-none-eabi/7.3.1/../../../../arm-none-eabi/lib/thumb/v7e-m/fpv5/hard\libm.a(lib_a-e_rem_pio2.o)
                0x0000000008010e50                __ieee754_rem_pio2
 .text.__ieee754_sqrt
                0x00000000080110c8        0x6 d:/stm32cubemx/stm32cubeide_1.0.2/stm32cubeide/plugins/com.st.stm32cube.ide.mcu.externaltools.gnu-tools-for-stm32.7-2018-q2-update.win32_1.4.0.202007081208/tools/bin/../lib/gcc/arm-none-eabi/7.3.1/../../../../arm-none-eabi/lib/thumb/v7e-m/fpv5/hard\libm.a(lib_a-e_sqrt.o)
                0x00000000080110c8                __ieee754_sqrt
 *fill*         0x00000000080110ce        0x2 
 .text.__ieee754_rem_pio2f
                0x00000000080110d0      0x258 d:/stm32cubemx/stm32cubeide_1.0.2/stm32cubeide/plugins/com.st.stm32cube.ide.mcu.externaltools.gnu-tools-for-stm32.7-2018-q2-update.win32_1.4.0.202007081208/tools/bin/../lib/gcc/arm-none-eabi/7.3.1/../../../../arm-none-eabi/lib/thumb/v7e-m/fpv5/hard\libm.a(lib_a-ef_rem_pio2.o)
                0x00000000080110d0                __ieee754_rem_pio2f
 .text.__kernel_cos
                0x0000000008011328       0xd8 d:/stm32cubemx/stm32cubeide_1.0.2/stm32cubeide/plugins/com.st.stm32cube.ide.mcu.externaltools.gnu-tools-for-stm32.7-2018-q2-update.win32_1.4.0.202007081208/tools/bin/../lib/gcc/arm-none-eabi/7.3.1/../../../../arm-none-eabi/lib/thumb/v7e-m/fpv5/hard\libm.a(lib_a-k_cos.o)
                0x0000000008011328                __kernel_cos
 .text.__kernel_rem_pio2
                0x0000000008011400      0x538 d:/stm32cubemx/stm32cubeide_1.0.2/stm32cubeide/plugins/com.st.stm32cube.ide.mcu.externaltools.gnu-tools-for-stm32.7-2018-q2-update.win32_1.4.0.202007081208/tools/bin/../lib/gcc/arm-none-eabi/7.3.1/../../../../arm-none-eabi/lib/thumb/v7e-m/fpv5/hard\libm.a(lib_a-k_rem_pio2.o)
                0x0000000008011400                __kernel_rem_pio2
 .text.__kernel_sin
                0x0000000008011938       0xb0 d:/stm32cubemx/stm32cubeide_1.0.2/stm32cubeide/plugins/com.st.stm32cube.ide.mcu.externaltools.gnu-tools-for-stm32.7-2018-q2-update.win32_1.4.0.202007081208/tools/bin/../lib/gcc/arm-none-eabi/7.3.1/../../../../arm-none-eabi/lib/thumb/v7e-m/fpv5/hard\libm.a(lib_a-k_sin.o)
                0x0000000008011938                __kernel_sin
 .text.__kernel_cosf
                0x00000000080119e8       0xbc d:/stm32cubemx/stm32cubeide_1.0.2/stm32cubeide/plugins/com.st.stm32cube.ide.mcu.externaltools.gnu-tools-for-stm32.7-2018-q2-update.win32_1.4.0.202007081208/tools/bin/../lib/gcc/arm-none-eabi/7.3.1/../../../../arm-none-eabi/lib/thumb/v7e-m/fpv5/hard\libm.a(lib_a-kf_cos.o)
                0x00000000080119e8                __kernel_cosf
 .text.__kernel_rem_pio2f
                0x0000000008011aa4      0x504 d:/stm32cubemx/stm32cubeide_1.0.2/stm32cubeide/plugins/com.st.stm32cube.ide.mcu.externaltools.gnu-tools-for-stm32.7-2018-q2-update.win32_1.4.0.202007081208/tools/bin/../lib/gcc/arm-none-eabi/7.3.1/../../../../arm-none-eabi/lib/thumb/v7e-m/fpv5/hard\libm.a(lib_a-kf_rem_pio2.o)
                0x0000000008011aa4                __kernel_rem_pio2f
 .text.__kernel_sinf
                0x0000000008011fa8       0x90 d:/stm32cubemx/stm32cubeide_1.0.2/stm32cubeide/plugins/com.st.stm32cube.ide.mcu.externaltools.gnu-tools-for-stm32.7-2018-q2-update.win32_1.4.0.202007081208/tools/bin/../lib/gcc/arm-none-eabi/7.3.1/../../../../arm-none-eabi/lib/thumb/v7e-m/fpv5/hard\libm.a(lib_a-kf_sin.o)
                0x0000000008011fa8                __kernel_sinf
 .text.atan     0x0000000008012038      0x1f4 d:/stm32cubemx/stm32cubeide_1.0.2/stm32cubeide/plugins/com.st.stm32cube.ide.mcu.externaltools.gnu-tools-for-stm32.7-2018-q2-update.win32_1.4.0.202007081208/tools/bin/../lib/gcc/arm-none-eabi/7.3.1/../../../../arm-none-eabi/lib/thumb/v7e-m/fpv5/hard\libm.a(lib_a-s_atan.o)
                0x0000000008012038                atan
 .text.fabs     0x000000000801222c       0x12 d:/stm32cubemx/stm32cubeide_1.0.2/stm32cubeide/plugins/com.st.stm32cube.ide.mcu.externaltools.gnu-tools-for-stm32.7-2018-q2-update.win32_1.4.0.202007081208/tools/bin/../lib/gcc/arm-none-eabi/7.3.1/../../../../arm-none-eabi/lib/thumb/v7e-m/fpv5/hard\libm.a(lib_a-s_fabs.o)
                0x000000000801222c                fabs
 *fill*         0x000000000801223e        0x2 
 .text.floor    0x0000000008012240       0xf0 d:/stm32cubemx/stm32cubeide_1.0.2/stm32cubeide/plugins/com.st.stm32cube.ide.mcu.externaltools.gnu-tools-for-stm32.7-2018-q2-update.win32_1.4.0.202007081208/tools/bin/../lib/gcc/arm-none-eabi/7.3.1/../../../../arm-none-eabi/lib/thumb/v7e-m/fpv5/hard\libm.a(lib_a-s_floor.o)
                0x0000000008012240                floor
 .text.matherr  0x0000000008012330        0x4 d:/stm32cubemx/stm32cubeide_1.0.2/stm32cubeide/plugins/com.st.stm32cube.ide.mcu.externaltools.gnu-tools-for-stm32.7-2018-q2-update.win32_1.4.0.202007081208/tools/bin/../lib/gcc/arm-none-eabi/7.3.1/../../../../arm-none-eabi/lib/thumb/v7e-m/fpv5/hard\libm.a(lib_a-s_matherr.o)
                0x0000000008012330                matherr
 *fill*         0x0000000008012334        0x4 
 .text.scalbn   0x0000000008012338       0xfc d:/stm32cubemx/stm32cubeide_1.0.2/stm32cubeide/plugins/com.st.stm32cube.ide.mcu.externaltools.gnu-tools-for-stm32.7-2018-q2-update.win32_1.4.0.202007081208/tools/bin/../lib/gcc/arm-none-eabi/7.3.1/../../../../arm-none-eabi/lib/thumb/v7e-m/fpv5/hard\libm.a(lib_a-s_scalbn.o)
                0x0000000008012338                scalbn
 .text.fabsf    0x0000000008012434        0xe d:/stm32cubemx/stm32cubeide_1.0.2/stm32cubeide/plugins/com.st.stm32cube.ide.mcu.externaltools.gnu-tools-for-stm32.7-2018-q2-update.win32_1.4.0.202007081208/tools/bin/../lib/gcc/arm-none-eabi/7.3.1/../../../../arm-none-eabi/lib/thumb/v7e-m/fpv5/hard\libm.a(lib_a-sf_fabs.o)
                0x0000000008012434                fabsf
 *fill*         0x0000000008012442        0x2 
 .text.floorf   0x0000000008012444       0x84 d:/stm32cubemx/stm32cubeide_1.0.2/stm32cubeide/plugins/com.st.stm32cube.ide.mcu.externaltools.gnu-tools-for-stm32.7-2018-q2-update.win32_1.4.0.202007081208/tools/bin/../lib/gcc/arm-none-eabi/7.3.1/../../../../arm-none-eabi/lib/thumb/v7e-m/fpv5/hard\libm.a(lib_a-sf_floor.o)
                0x0000000008012444                floorf
 .text.scalbnf  0x00000000080124c8       0xc0 d:/stm32cubemx/stm32cubeide_1.0.2/stm32cubeide/plugins/com.st.stm32cube.ide.mcu.externaltools.gnu-tools-for-stm32.7-2018-q2-update.win32_1.4.0.202007081208/tools/bin/../lib/gcc/arm-none-eabi/7.3.1/../../../../arm-none-eabi/lib/thumb/v7e-m/fpv5/hard\libm.a(lib_a-sf_scalbn.o)
                0x00000000080124c8                scalbnf
 .text.copysign
                0x0000000008012588       0x1e d:/stm32cubemx/stm32cubeide_1.0.2/stm32cubeide/plugins/com.st.stm32cube.ide.mcu.externaltools.gnu-tools-for-stm32.7-2018-q2-update.win32_1.4.0.202007081208/tools/bin/../lib/gcc/arm-none-eabi/7.3.1/../../../../arm-none-eabi/lib/thumb/v7e-m/fpv5/hard\libm.a(lib_a-s_copysign.o)
                0x0000000008012588                copysign
 .text.copysignf
                0x00000000080125a6       0x18 d:/stm32cubemx/stm32cubeide_1.0.2/stm32cubeide/plugins/com.st.stm32cube.ide.mcu.externaltools.gnu-tools-for-stm32.7-2018-q2-update.win32_1.4.0.202007081208/tools/bin/../lib/gcc/arm-none-eabi/7.3.1/../../../../arm-none-eabi/lib/thumb/v7e-m/fpv5/hard\libm.a(lib_a-sf_copysign.o)
                0x00000000080125a6                copysignf
 .text.abort    0x00000000080125be        0xe d:/stm32cubemx/stm32cubeide_1.0.2/stm32cubeide/plugins/com.st.stm32cube.ide.mcu.externaltools.gnu-tools-for-stm32.7-2018-q2-update.win32_1.4.0.202007081208/tools/bin/../lib/gcc/arm-none-eabi/7.3.1/../../../../arm-none-eabi/lib/thumb/v7e-m/fpv5/hard\libc_nano.a(lib_a-abort.o)
                0x00000000080125be                abort
 .text.atof     0x00000000080125cc        0x6 d:/stm32cubemx/stm32cubeide_1.0.2/stm32cubeide/plugins/com.st.stm32cube.ide.mcu.externaltools.gnu-tools-for-stm32.7-2018-q2-update.win32_1.4.0.202007081208/tools/bin/../lib/gcc/arm-none-eabi/7.3.1/../../../../arm-none-eabi/lib/thumb/v7e-m/fpv5/hard\libc_nano.a(lib_a-atof.o)
                0x00000000080125cc                atof
 *fill*         0x00000000080125d2        0x2 
 .text.__errno  0x00000000080125d4        0xc d:/stm32cubemx/stm32cubeide_1.0.2/stm32cubeide/plugins/com.st.stm32cube.ide.mcu.externaltools.gnu-tools-for-stm32.7-2018-q2-update.win32_1.4.0.202007081208/tools/bin/../lib/gcc/arm-none-eabi/7.3.1/../../../../arm-none-eabi/lib/thumb/v7e-m/fpv5/hard\libc_nano.a(lib_a-errno.o)
                0x00000000080125d4                __errno
 .text.__libc_init_array
                0x00000000080125e0       0x48 d:/stm32cubemx/stm32cubeide_1.0.2/stm32cubeide/plugins/com.st.stm32cube.ide.mcu.externaltools.gnu-tools-for-stm32.7-2018-q2-update.win32_1.4.0.202007081208/tools/bin/../lib/gcc/arm-none-eabi/7.3.1/../../../../arm-none-eabi/lib/thumb/v7e-m/fpv5/hard\libc_nano.a(lib_a-init.o)
                0x00000000080125e0                __libc_init_array
 .text.malloc   0x0000000008012628       0x10 d:/stm32cubemx/stm32cubeide_1.0.2/stm32cubeide/plugins/com.st.stm32cube.ide.mcu.externaltools.gnu-tools-for-stm32.7-2018-q2-update.win32_1.4.0.202007081208/tools/bin/../lib/gcc/arm-none-eabi/7.3.1/../../../../arm-none-eabi/lib/thumb/v7e-m/fpv5/hard\libc_nano.a(lib_a-malloc.o)
                0x0000000008012628                malloc
 .text.memcpy   0x0000000008012638       0x16 d:/stm32cubemx/stm32cubeide_1.0.2/stm32cubeide/plugins/com.st.stm32cube.ide.mcu.externaltools.gnu-tools-for-stm32.7-2018-q2-update.win32_1.4.0.202007081208/tools/bin/../lib/gcc/arm-none-eabi/7.3.1/../../../../arm-none-eabi/lib/thumb/v7e-m/fpv5/hard\libc_nano.a(lib_a-memcpy-stub.o)
                0x0000000008012638                memcpy
 .text.memset   0x000000000801264e       0x10 d:/stm32cubemx/stm32cubeide_1.0.2/stm32cubeide/plugins/com.st.stm32cube.ide.mcu.externaltools.gnu-tools-for-stm32.7-2018-q2-update.win32_1.4.0.202007081208/tools/bin/../lib/gcc/arm-none-eabi/7.3.1/../../../../arm-none-eabi/lib/thumb/v7e-m/fpv5/hard\libc_nano.a(lib_a-memset.o)
                0x000000000801264e                memset
 *fill*         0x000000000801265e        0x2 
 .text._free_r  0x0000000008012660       0x9c d:/stm32cubemx/stm32cubeide_1.0.2/stm32cubeide/plugins/com.st.stm32cube.ide.mcu.externaltools.gnu-tools-for-stm32.7-2018-q2-update.win32_1.4.0.202007081208/tools/bin/../lib/gcc/arm-none-eabi/7.3.1/../../../../arm-none-eabi/lib/thumb/v7e-m/fpv5/hard\libc_nano.a(lib_a-nano-freer.o)
                0x0000000008012660                _free_r
 .text._malloc_r
                0x00000000080126fc       0xb4 d:/stm32cubemx/stm32cubeide_1.0.2/stm32cubeide/plugins/com.st.stm32cube.ide.mcu.externaltools.gnu-tools-for-stm32.7-2018-q2-update.win32_1.4.0.202007081208/tools/bin/../lib/gcc/arm-none-eabi/7.3.1/../../../../arm-none-eabi/lib/thumb/v7e-m/fpv5/hard\libc_nano.a(lib_a-nano-mallocr.o)
                0x00000000080126fc                _malloc_r
 .text.__cvt    0x00000000080127b0       0xa4 d:/stm32cubemx/stm32cubeide_1.0.2/stm32cubeide/plugins/com.st.stm32cube.ide.mcu.externaltools.gnu-tools-for-stm32.7-2018-q2-update.win32_1.4.0.202007081208/tools/bin/../lib/gcc/arm-none-eabi/7.3.1/../../../../arm-none-eabi/lib/thumb/v7e-m/fpv5/hard\libc_nano.a(lib_a-nano-vfprintf_float.o)
                0x00000000080127b0                __cvt
 .text.__exponent
                0x0000000008012854       0x66 d:/stm32cubemx/stm32cubeide_1.0.2/stm32cubeide/plugins/com.st.stm32cube.ide.mcu.externaltools.gnu-tools-for-stm32.7-2018-q2-update.win32_1.4.0.202007081208/tools/bin/../lib/gcc/arm-none-eabi/7.3.1/../../../../arm-none-eabi/lib/thumb/v7e-m/fpv5/hard\libc_nano.a(lib_a-nano-vfprintf_float.o)
                0x0000000008012854                __exponent
 *fill*         0x00000000080128ba        0x6 
 .text._printf_float
                0x00000000080128c0      0x458 d:/stm32cubemx/stm32cubeide_1.0.2/stm32cubeide/plugins/com.st.stm32cube.ide.mcu.externaltools.gnu-tools-for-stm32.7-2018-q2-update.win32_1.4.0.202007081208/tools/bin/../lib/gcc/arm-none-eabi/7.3.1/../../../../arm-none-eabi/lib/thumb/v7e-m/fpv5/hard\libc_nano.a(lib_a-nano-vfprintf_float.o)
                0x00000000080128c0                _printf_float
 .text._printf_common
                0x0000000008012d18       0xea d:/stm32cubemx/stm32cubeide_1.0.2/stm32cubeide/plugins/com.st.stm32cube.ide.mcu.externaltools.gnu-tools-for-stm32.7-2018-q2-update.win32_1.4.0.202007081208/tools/bin/../lib/gcc/arm-none-eabi/7.3.1/../../../../arm-none-eabi/lib/thumb/v7e-m/fpv5/hard\libc_nano.a(lib_a-nano-vfprintf_i.o)
                0x0000000008012d18                _printf_common
 *fill*         0x0000000008012e02        0x2 
 .text._printf_i
                0x0000000008012e04      0x224 d:/stm32cubemx/stm32cubeide_1.0.2/stm32cubeide/plugins/com.st.stm32cube.ide.mcu.externaltools.gnu-tools-for-stm32.7-2018-q2-update.win32_1.4.0.202007081208/tools/bin/../lib/gcc/arm-none-eabi/7.3.1/../../../../arm-none-eabi/lib/thumb/v7e-m/fpv5/hard\libc_nano.a(lib_a-nano-vfprintf_i.o)
                0x0000000008012e04                _printf_i
 .text._scanf_float
                0x0000000008013028      0x3b0 d:/stm32cubemx/stm32cubeide_1.0.2/stm32cubeide/plugins/com.st.stm32cube.ide.mcu.externaltools.gnu-tools-for-stm32.7-2018-q2-update.win32_1.4.0.202007081208/tools/bin/../lib/gcc/arm-none-eabi/7.3.1/../../../../arm-none-eabi/lib/thumb/v7e-m/fpv5/hard\libc_nano.a(lib_a-nano-vfscanf_float.o)
                0x0000000008013028                _scanf_float
 .text._sbrk_r  0x00000000080133d8       0x20 d:/stm32cubemx/stm32cubeide_1.0.2/stm32cubeide/plugins/com.st.stm32cube.ide.mcu.externaltools.gnu-tools-for-stm32.7-2018-q2-update.win32_1.4.0.202007081208/tools/bin/../lib/gcc/arm-none-eabi/7.3.1/../../../../arm-none-eabi/lib/thumb/v7e-m/fpv5/hard\libc_nano.a(lib_a-sbrkr.o)
                0x00000000080133d8                _sbrk_r
 .text.nanf     0x00000000080133f8        0xc d:/stm32cubemx/stm32cubeide_1.0.2/stm32cubeide/plugins/com.st.stm32cube.ide.mcu.externaltools.gnu-tools-for-stm32.7-2018-q2-update.win32_1.4.0.202007081208/tools/bin/../lib/gcc/arm-none-eabi/7.3.1/../../../../arm-none-eabi/lib/thumb/v7e-m/fpv5/hard\libc_nano.a(lib_a-sf_nan.o)
                0x00000000080133f8                nanf
 .text._raise_r
                0x0000000008013404       0x50 d:/stm32cubemx/stm32cubeide_1.0.2/stm32cubeide/plugins/com.st.stm32cube.ide.mcu.externaltools.gnu-tools-for-stm32.7-2018-q2-update.win32_1.4.0.202007081208/tools/bin/../lib/gcc/arm-none-eabi/7.3.1/../../../../arm-none-eabi/lib/thumb/v7e-m/fpv5/hard\libc_nano.a(lib_a-signal.o)
                0x0000000008013404                _raise_r
 .text.raise    0x0000000008013454       0x10 d:/stm32cubemx/stm32cubeide_1.0.2/stm32cubeide/plugins/com.st.stm32cube.ide.mcu.externaltools.gnu-tools-for-stm32.7-2018-q2-update.win32_1.4.0.202007081208/tools/bin/../lib/gcc/arm-none-eabi/7.3.1/../../../../arm-none-eabi/lib/thumb/v7e-m/fpv5/hard\libc_nano.a(lib_a-signal.o)
                0x0000000008013454                raise
 .text._kill_r  0x0000000008013464       0x24 d:/stm32cubemx/stm32cubeide_1.0.2/stm32cubeide/plugins/com.st.stm32cube.ide.mcu.externaltools.gnu-tools-for-stm32.7-2018-q2-update.win32_1.4.0.202007081208/tools/bin/../lib/gcc/arm-none-eabi/7.3.1/../../../../arm-none-eabi/lib/thumb/v7e-m/fpv5/hard\libc_nano.a(lib_a-signalr.o)
                0x0000000008013464                _kill_r
 .text._getpid_r
                0x0000000008013488        0x4 d:/stm32cubemx/stm32cubeide_1.0.2/stm32cubeide/plugins/com.st.stm32cube.ide.mcu.externaltools.gnu-tools-for-stm32.7-2018-q2-update.win32_1.4.0.202007081208/tools/bin/../lib/gcc/arm-none-eabi/7.3.1/../../../../arm-none-eabi/lib/thumb/v7e-m/fpv5/hard\libc_nano.a(lib_a-signalr.o)
                0x0000000008013488                _getpid_r
 .text.sprintf  0x000000000801348c       0x40 d:/stm32cubemx/stm32cubeide_1.0.2/stm32cubeide/plugins/com.st.stm32cube.ide.mcu.externaltools.gnu-tools-for-stm32.7-2018-q2-update.win32_1.4.0.202007081208/tools/bin/../lib/gcc/arm-none-eabi/7.3.1/../../../../arm-none-eabi/lib/thumb/v7e-m/fpv5/hard\libc_nano.a(lib_a-sprintf.o)
                0x000000000801348c                siprintf
                0x000000000801348c                sprintf
 .text.strncpy  0x00000000080134cc       0x2a d:/stm32cubemx/stm32cubeide_1.0.2/stm32cubeide/plugins/com.st.stm32cube.ide.mcu.externaltools.gnu-tools-for-stm32.7-2018-q2-update.win32_1.4.0.202007081208/tools/bin/../lib/gcc/arm-none-eabi/7.3.1/../../../../arm-none-eabi/lib/thumb/v7e-m/fpv5/hard\libc_nano.a(lib_a-strncpy.o)
                0x00000000080134cc                strncpy
 .text.unlikely.sulp
                0x00000000080134f6       0x34 d:/stm32cubemx/stm32cubeide_1.0.2/stm32cubeide/plugins/com.st.stm32cube.ide.mcu.externaltools.gnu-tools-for-stm32.7-2018-q2-update.win32_1.4.0.202007081208/tools/bin/../lib/gcc/arm-none-eabi/7.3.1/../../../../arm-none-eabi/lib/thumb/v7e-m/fpv5/hard\libc_nano.a(lib_a-strtod.o)
 *fill*         0x000000000801352a        0x6 
 .text._strtod_l
                0x0000000008013530      0xb90 d:/stm32cubemx/stm32cubeide_1.0.2/stm32cubeide/plugins/com.st.stm32cube.ide.mcu.externaltools.gnu-tools-for-stm32.7-2018-q2-update.win32_1.4.0.202007081208/tools/bin/../lib/gcc/arm-none-eabi/7.3.1/../../../../arm-none-eabi/lib/thumb/v7e-m/fpv5/hard\libc_nano.a(lib_a-strtod.o)
                0x0000000008013530                _strtod_l
 .text._strtod_r
                0x00000000080140c0       0x20 d:/stm32cubemx/stm32cubeide_1.0.2/stm32cubeide/plugins/com.st.stm32cube.ide.mcu.externaltools.gnu-tools-for-stm32.7-2018-q2-update.win32_1.4.0.202007081208/tools/bin/../lib/gcc/arm-none-eabi/7.3.1/../../../../arm-none-eabi/lib/thumb/v7e-m/fpv5/hard\libc_nano.a(lib_a-strtod.o)
                0x00000000080140c0                _strtod_r
 .text.strtod   0x00000000080140e0       0x28 d:/stm32cubemx/stm32cubeide_1.0.2/stm32cubeide/plugins/com.st.stm32cube.ide.mcu.externaltools.gnu-tools-for-stm32.7-2018-q2-update.win32_1.4.0.202007081208/tools/bin/../lib/gcc/arm-none-eabi/7.3.1/../../../../arm-none-eabi/lib/thumb/v7e-m/fpv5/hard\libc_nano.a(lib_a-strtod.o)
                0x00000000080140e0                strtod
 .text._strtol_l.isra.0
                0x0000000008014108       0xf6 d:/stm32cubemx/stm32cubeide_1.0.2/stm32cubeide/plugins/com.st.stm32cube.ide.mcu.externaltools.gnu-tools-for-stm32.7-2018-q2-update.win32_1.4.0.202007081208/tools/bin/../lib/gcc/arm-none-eabi/7.3.1/../../../../arm-none-eabi/lib/thumb/v7e-m/fpv5/hard\libc_nano.a(lib_a-strtol.o)
 *fill*         0x00000000080141fe        0x2 
 .text._strtol_r
                0x0000000008014200       0x24 d:/stm32cubemx/stm32cubeide_1.0.2/stm32cubeide/plugins/com.st.stm32cube.ide.mcu.externaltools.gnu-tools-for-stm32.7-2018-q2-update.win32_1.4.0.202007081208/tools/bin/../lib/gcc/arm-none-eabi/7.3.1/../../../../arm-none-eabi/lib/thumb/v7e-m/fpv5/hard\libc_nano.a(lib_a-strtol.o)
                0x0000000008014200                _strtol_r
 .text._vsprintf_r
                0x0000000008014224       0x2c d:/stm32cubemx/stm32cubeide_1.0.2/stm32cubeide/plugins/com.st.stm32cube.ide.mcu.externaltools.gnu-tools-for-stm32.7-2018-q2-update.win32_1.4.0.202007081208/tools/bin/../lib/gcc/arm-none-eabi/7.3.1/../../../../arm-none-eabi/lib/thumb/v7e-m/fpv5/hard\libc_nano.a(lib_a-vsprintf.o)
                0x0000000008014224                _vsprintf_r
                0x0000000008014224                _vsiprintf_r
 .text.vsprintf
                0x0000000008014250       0x14 d:/stm32cubemx/stm32cubeide_1.0.2/stm32cubeide/plugins/com.st.stm32cube.ide.mcu.externaltools.gnu-tools-for-stm32.7-2018-q2-update.win32_1.4.0.202007081208/tools/bin/../lib/gcc/arm-none-eabi/7.3.1/../../../../arm-none-eabi/lib/thumb/v7e-m/fpv5/hard\libc_nano.a(lib_a-vsprintf.o)
                0x0000000008014250                vsiprintf
                0x0000000008014250                vsprintf
 .text._vsscanf_r
                0x0000000008014264       0x48 d:/stm32cubemx/stm32cubeide_1.0.2/stm32cubeide/plugins/com.st.stm32cube.ide.mcu.externaltools.gnu-tools-for-stm32.7-2018-q2-update.win32_1.4.0.202007081208/tools/bin/../lib/gcc/arm-none-eabi/7.3.1/../../../../arm-none-eabi/lib/thumb/v7e-m/fpv5/hard\libc_nano.a(lib_a-vsscanf.o)
                0x0000000008014264                _vsscanf_r
                0x0000000008014264                _vsiscanf_r
 .text.vsscanf  0x00000000080142ac       0x14 d:/stm32cubemx/stm32cubeide_1.0.2/stm32cubeide/plugins/com.st.stm32cube.ide.mcu.externaltools.gnu-tools-for-stm32.7-2018-q2-update.win32_1.4.0.202007081208/tools/bin/../lib/gcc/arm-none-eabi/7.3.1/../../../../arm-none-eabi/lib/thumb/v7e-m/fpv5/hard\libc_nano.a(lib_a-vsscanf.o)
                0x00000000080142ac                vsiscanf
                0x00000000080142ac                vsscanf
 .text.quorem   0x00000000080142c0      0x118 d:/stm32cubemx/stm32cubeide_1.0.2/stm32cubeide/plugins/com.st.stm32cube.ide.mcu.externaltools.gnu-tools-for-stm32.7-2018-q2-update.win32_1.4.0.202007081208/tools/bin/../lib/gcc/arm-none-eabi/7.3.1/../../../../arm-none-eabi/lib/thumb/v7e-m/fpv5/hard\libc_nano.a(lib_a-dtoa.o)
 .text._dtoa_r  0x00000000080143d8      0xa98 d:/stm32cubemx/stm32cubeide_1.0.2/stm32cubeide/plugins/com.st.stm32cube.ide.mcu.externaltools.gnu-tools-for-stm32.7-2018-q2-update.win32_1.4.0.202007081208/tools/bin/../lib/gcc/arm-none-eabi/7.3.1/../../../../arm-none-eabi/lib/thumb/v7e-m/fpv5/hard\libc_nano.a(lib_a-dtoa.o)
                0x00000000080143d8                _dtoa_r
 .text.rshift   0x0000000008014e70       0x74 d:/stm32cubemx/stm32cubeide_1.0.2/stm32cubeide/plugins/com.st.stm32cube.ide.mcu.externaltools.gnu-tools-for-stm32.7-2018-q2-update.win32_1.4.0.202007081208/tools/bin/../lib/gcc/arm-none-eabi/7.3.1/../../../../arm-none-eabi/lib/thumb/v7e-m/fpv5/hard\libc_nano.a(lib_a-gdtoa-gethex.o)
 .text.__hexdig_fun
                0x0000000008014ee4       0x2a d:/stm32cubemx/stm32cubeide_1.0.2/stm32cubeide/plugins/com.st.stm32cube.ide.mcu.externaltools.gnu-tools-for-stm32.7-2018-q2-update.win32_1.4.0.202007081208/tools/bin/../lib/gcc/arm-none-eabi/7.3.1/../../../../arm-none-eabi/lib/thumb/v7e-m/fpv5/hard\libc_nano.a(lib_a-gdtoa-gethex.o)
                0x0000000008014ee4                __hexdig_fun
 .text.__gethex
                0x0000000008014f0e      0x442 d:/stm32cubemx/stm32cubeide_1.0.2/stm32cubeide/plugins/com.st.stm32cube.ide.mcu.externaltools.gnu-tools-for-stm32.7-2018-q2-update.win32_1.4.0.202007081208/tools/bin/../lib/gcc/arm-none-eabi/7.3.1/../../../../arm-none-eabi/lib/thumb/v7e-m/fpv5/hard\libc_nano.a(lib_a-gdtoa-gethex.o)
                0x0000000008014f0e                __gethex
 .text.L_shift  0x0000000008015350       0x24 d:/stm32cubemx/stm32cubeide_1.0.2/stm32cubeide/plugins/com.st.stm32cube.ide.mcu.externaltools.gnu-tools-for-stm32.7-2018-q2-update.win32_1.4.0.202007081208/tools/bin/../lib/gcc/arm-none-eabi/7.3.1/../../../../arm-none-eabi/lib/thumb/v7e-m/fpv5/hard\libc_nano.a(lib_a-gdtoa-hexnan.o)
 .text.__match  0x0000000008015374       0x28 d:/stm32cubemx/stm32cubeide_1.0.2/stm32cubeide/plugins/com.st.stm32cube.ide.mcu.externaltools.gnu-tools-for-stm32.7-2018-q2-update.win32_1.4.0.202007081208/tools/bin/../lib/gcc/arm-none-eabi/7.3.1/../../../../arm-none-eabi/lib/thumb/v7e-m/fpv5/hard\libc_nano.a(lib_a-gdtoa-hexnan.o)
                0x0000000008015374                __match
 .text.__hexnan
                0x000000000801539c      0x120 d:/stm32cubemx/stm32cubeide_1.0.2/stm32cubeide/plugins/com.st.stm32cube.ide.mcu.externaltools.gnu-tools-for-stm32.7-2018-q2-update.win32_1.4.0.202007081208/tools/bin/../lib/gcc/arm-none-eabi/7.3.1/../../../../arm-none-eabi/lib/thumb/v7e-m/fpv5/hard\libc_nano.a(lib_a-gdtoa-hexnan.o)
                0x000000000801539c                __hexnan
 .text.__locale_ctype_ptr_l
                0x00000000080154bc        0x6 d:/stm32cubemx/stm32cubeide_1.0.2/stm32cubeide/plugins/com.st.stm32cube.ide.mcu.externaltools.gnu-tools-for-stm32.7-2018-q2-update.win32_1.4.0.202007081208/tools/bin/../lib/gcc/arm-none-eabi/7.3.1/../../../../arm-none-eabi/lib/thumb/v7e-m/fpv5/hard\libc_nano.a(lib_a-locale.o)
                0x00000000080154bc                __locale_ctype_ptr_l
 *fill*         0x00000000080154c2        0x2 
 .text.__locale_ctype_ptr
                0x00000000080154c4       0x1c d:/stm32cubemx/stm32cubeide_1.0.2/stm32cubeide/plugins/com.st.stm32cube.ide.mcu.externaltools.gnu-tools-for-stm32.7-2018-q2-update.win32_1.4.0.202007081208/tools/bin/../lib/gcc/arm-none-eabi/7.3.1/../../../../arm-none-eabi/lib/thumb/v7e-m/fpv5/hard\libc_nano.a(lib_a-locale.o)
                0x00000000080154c4                __locale_ctype_ptr
 .text.__localeconv_l
                0x00000000080154e0        0x4 d:/stm32cubemx/stm32cubeide_1.0.2/stm32cubeide/plugins/com.st.stm32cube.ide.mcu.externaltools.gnu-tools-for-stm32.7-2018-q2-update.win32_1.4.0.202007081208/tools/bin/../lib/gcc/arm-none-eabi/7.3.1/../../../../arm-none-eabi/lib/thumb/v7e-m/fpv5/hard\libc_nano.a(lib_a-localeconv.o)
                0x00000000080154e0                __localeconv_l
 .text._localeconv_r
                0x00000000080154e4       0x1c d:/stm32cubemx/stm32cubeide_1.0.2/stm32cubeide/plugins/com.st.stm32cube.ide.mcu.externaltools.gnu-tools-for-stm32.7-2018-q2-update.win32_1.4.0.202007081208/tools/bin/../lib/gcc/arm-none-eabi/7.3.1/../../../../arm-none-eabi/lib/thumb/v7e-m/fpv5/hard\libc_nano.a(lib_a-localeconv.o)
                0x00000000080154e4                _localeconv_r
 .text.__ascii_mbtowc
                0x0000000008015500       0x24 d:/stm32cubemx/stm32cubeide_1.0.2/stm32cubeide/plugins/com.st.stm32cube.ide.mcu.externaltools.gnu-tools-for-stm32.7-2018-q2-update.win32_1.4.0.202007081208/tools/bin/../lib/gcc/arm-none-eabi/7.3.1/../../../../arm-none-eabi/lib/thumb/v7e-m/fpv5/hard\libc_nano.a(lib_a-mbtowc_r.o)
                0x0000000008015500                __ascii_mbtowc
 .text.__malloc_lock
                0x0000000008015524        0x2 d:/stm32cubemx/stm32cubeide_1.0.2/stm32cubeide/plugins/com.st.stm32cube.ide.mcu.externaltools.gnu-tools-for-stm32.7-2018-q2-update.win32_1.4.0.202007081208/tools/bin/../lib/gcc/arm-none-eabi/7.3.1/../../../../arm-none-eabi/lib/thumb/v7e-m/fpv5/hard\libc_nano.a(lib_a-mlock.o)
                0x0000000008015524                __malloc_lock
 .text.__malloc_unlock
                0x0000000008015526        0x2 d:/stm32cubemx/stm32cubeide_1.0.2/stm32cubeide/plugins/com.st.stm32cube.ide.mcu.externaltools.gnu-tools-for-stm32.7-2018-q2-update.win32_1.4.0.202007081208/tools/bin/../lib/gcc/arm-none-eabi/7.3.1/../../../../arm-none-eabi/lib/thumb/v7e-m/fpv5/hard\libc_nano.a(lib_a-mlock.o)
                0x0000000008015526                __malloc_unlock
 .text._Balloc  0x0000000008015528       0x68 d:/stm32cubemx/stm32cubeide_1.0.2/stm32cubeide/plugins/com.st.stm32cube.ide.mcu.externaltools.gnu-tools-for-stm32.7-2018-q2-update.win32_1.4.0.202007081208/tools/bin/../lib/gcc/arm-none-eabi/7.3.1/../../../../arm-none-eabi/lib/thumb/v7e-m/fpv5/hard\libc_nano.a(lib_a-mprec.o)
                0x0000000008015528                _Balloc
 .text._Bfree   0x0000000008015590       0x2e d:/stm32cubemx/stm32cubeide_1.0.2/stm32cubeide/plugins/com.st.stm32cube.ide.mcu.externaltools.gnu-tools-for-stm32.7-2018-q2-update.win32_1.4.0.202007081208/tools/bin/../lib/gcc/arm-none-eabi/7.3.1/../../../../arm-none-eabi/lib/thumb/v7e-m/fpv5/hard\libc_nano.a(lib_a-mprec.o)
                0x0000000008015590                _Bfree
 .text.__multadd
                0x00000000080155be       0x76 d:/stm32cubemx/stm32cubeide_1.0.2/stm32cubeide/plugins/com.st.stm32cube.ide.mcu.externaltools.gnu-tools-for-stm32.7-2018-q2-update.win32_1.4.0.202007081208/tools/bin/../lib/gcc/arm-none-eabi/7.3.1/../../../../arm-none-eabi/lib/thumb/v7e-m/fpv5/hard\libc_nano.a(lib_a-mprec.o)
                0x00000000080155be                __multadd
 .text.__s2b    0x0000000008015634       0x7c d:/stm32cubemx/stm32cubeide_1.0.2/stm32cubeide/plugins/com.st.stm32cube.ide.mcu.externaltools.gnu-tools-for-stm32.7-2018-q2-update.win32_1.4.0.202007081208/tools/bin/../lib/gcc/arm-none-eabi/7.3.1/../../../../arm-none-eabi/lib/thumb/v7e-m/fpv5/hard\libc_nano.a(lib_a-mprec.o)
                0x0000000008015634                __s2b
 .text.__hi0bits
                0x00000000080156b0       0x3e d:/stm32cubemx/stm32cubeide_1.0.2/stm32cubeide/plugins/com.st.stm32cube.ide.mcu.externaltools.gnu-tools-for-stm32.7-2018-q2-update.win32_1.4.0.202007081208/tools/bin/../lib/gcc/arm-none-eabi/7.3.1/../../../../arm-none-eabi/lib/thumb/v7e-m/fpv5/hard\libc_nano.a(lib_a-mprec.o)
                0x00000000080156b0                __hi0bits
 .text.__lo0bits
                0x00000000080156ee       0x5e d:/stm32cubemx/stm32cubeide_1.0.2/stm32cubeide/plugins/com.st.stm32cube.ide.mcu.externaltools.gnu-tools-for-stm32.7-2018-q2-update.win32_1.4.0.202007081208/tools/bin/../lib/gcc/arm-none-eabi/7.3.1/../../../../arm-none-eabi/lib/thumb/v7e-m/fpv5/hard\libc_nano.a(lib_a-mprec.o)
                0x00000000080156ee                __lo0bits
 .text.__i2b    0x000000000801574c       0x12 d:/stm32cubemx/stm32cubeide_1.0.2/stm32cubeide/plugins/com.st.stm32cube.ide.mcu.externaltools.gnu-tools-for-stm32.7-2018-q2-update.win32_1.4.0.202007081208/tools/bin/../lib/gcc/arm-none-eabi/7.3.1/../../../../arm-none-eabi/lib/thumb/v7e-m/fpv5/hard\libc_nano.a(lib_a-mprec.o)
                0x000000000801574c                __i2b
 .text.__multiply
                0x000000000801575e      0x12c d:/stm32cubemx/stm32cubeide_1.0.2/stm32cubeide/plugins/com.st.stm32cube.ide.mcu.externaltools.gnu-tools-for-stm32.7-2018-q2-update.win32_1.4.0.202007081208/tools/bin/../lib/gcc/arm-none-eabi/7.3.1/../../../../arm-none-eabi/lib/thumb/v7e-m/fpv5/hard\libc_nano.a(lib_a-mprec.o)
                0x000000000801575e                __multiply
 *fill*         0x000000000801588a        0x2 
 .text.__pow5mult
                0x000000000801588c       0x9c d:/stm32cubemx/stm32cubeide_1.0.2/stm32cubeide/plugins/com.st.stm32cube.ide.mcu.externaltools.gnu-tools-for-stm32.7-2018-q2-update.win32_1.4.0.202007081208/tools/bin/../lib/gcc/arm-none-eabi/7.3.1/../../../../arm-none-eabi/lib/thumb/v7e-m/fpv5/hard\libc_nano.a(lib_a-mprec.o)
                0x000000000801588c                __pow5mult
 .text.__lshift
                0x0000000008015928       0xa8 d:/stm32cubemx/stm32cubeide_1.0.2/stm32cubeide/plugins/com.st.stm32cube.ide.mcu.externaltools.gnu-tools-for-stm32.7-2018-q2-update.win32_1.4.0.202007081208/tools/bin/../lib/gcc/arm-none-eabi/7.3.1/../../../../arm-none-eabi/lib/thumb/v7e-m/fpv5/hard\libc_nano.a(lib_a-mprec.o)
                0x0000000008015928                __lshift
 .text.__mcmp   0x00000000080159d0       0x34 d:/stm32cubemx/stm32cubeide_1.0.2/stm32cubeide/plugins/com.st.stm32cube.ide.mcu.externaltools.gnu-tools-for-stm32.7-2018-q2-update.win32_1.4.0.202007081208/tools/bin/../lib/gcc/arm-none-eabi/7.3.1/../../../../arm-none-eabi/lib/thumb/v7e-m/fpv5/hard\libc_nano.a(lib_a-mprec.o)
                0x00000000080159d0                __mcmp
 .text.__mdiff  0x0000000008015a04       0xba d:/stm32cubemx/stm32cubeide_1.0.2/stm32cubeide/plugins/com.st.stm32cube.ide.mcu.externaltools.gnu-tools-for-stm32.7-2018-q2-update.win32_1.4.0.202007081208/tools/bin/../lib/gcc/arm-none-eabi/7.3.1/../../../../arm-none-eabi/lib/thumb/v7e-m/fpv5/hard\libc_nano.a(lib_a-mprec.o)
                0x0000000008015a04                __mdiff
 *fill*         0x0000000008015abe        0x2 
 .text.__ulp    0x0000000008015ac0       0x50 d:/stm32cubemx/stm32cubeide_1.0.2/stm32cubeide/plugins/com.st.stm32cube.ide.mcu.externaltools.gnu-tools-for-stm32.7-2018-q2-update.win32_1.4.0.202007081208/tools/bin/../lib/gcc/arm-none-eabi/7.3.1/../../../../arm-none-eabi/lib/thumb/v7e-m/fpv5/hard\libc_nano.a(lib_a-mprec.o)
                0x0000000008015ac0                __ulp
 .text.__b2d    0x0000000008015b10       0x9c d:/stm32cubemx/stm32cubeide_1.0.2/stm32cubeide/plugins/com.st.stm32cube.ide.mcu.externaltools.gnu-tools-for-stm32.7-2018-q2-update.win32_1.4.0.202007081208/tools/bin/../lib/gcc/arm-none-eabi/7.3.1/../../../../arm-none-eabi/lib/thumb/v7e-m/fpv5/hard\libc_nano.a(lib_a-mprec.o)
                0x0000000008015b10                __b2d
 .text.__d2b    0x0000000008015bac       0x9e d:/stm32cubemx/stm32cubeide_1.0.2/stm32cubeide/plugins/com.st.stm32cube.ide.mcu.externaltools.gnu-tools-for-stm32.7-2018-q2-update.win32_1.4.0.202007081208/tools/bin/../lib/gcc/arm-none-eabi/7.3.1/../../../../arm-none-eabi/lib/thumb/v7e-m/fpv5/hard\libc_nano.a(lib_a-mprec.o)
                0x0000000008015bac                __d2b
 .text.__ratio  0x0000000008015c4a       0x68 d:/stm32cubemx/stm32cubeide_1.0.2/stm32cubeide/plugins/com.st.stm32cube.ide.mcu.externaltools.gnu-tools-for-stm32.7-2018-q2-update.win32_1.4.0.202007081208/tools/bin/../lib/gcc/arm-none-eabi/7.3.1/../../../../arm-none-eabi/lib/thumb/v7e-m/fpv5/hard\libc_nano.a(lib_a-mprec.o)
                0x0000000008015c4a                __ratio
 .text.__copybits
                0x0000000008015cb2       0x34 d:/stm32cubemx/stm32cubeide_1.0.2/stm32cubeide/plugins/com.st.stm32cube.ide.mcu.externaltools.gnu-tools-for-stm32.7-2018-q2-update.win32_1.4.0.202007081208/tools/bin/../lib/gcc/arm-none-eabi/7.3.1/../../../../arm-none-eabi/lib/thumb/v7e-m/fpv5/hard\libc_nano.a(lib_a-mprec.o)
                0x0000000008015cb2                __copybits
 .text.__any_on
                0x0000000008015ce6       0x42 d:/stm32cubemx/stm32cubeide_1.0.2/stm32cubeide/plugins/com.st.stm32cube.ide.mcu.externaltools.gnu-tools-for-stm32.7-2018-q2-update.win32_1.4.0.202007081208/tools/bin/../lib/gcc/arm-none-eabi/7.3.1/../../../../arm-none-eabi/lib/thumb/v7e-m/fpv5/hard\libc_nano.a(lib_a-mprec.o)
                0x0000000008015ce6                __any_on
 .text._calloc_r
                0x0000000008015d28       0x1c d:/stm32cubemx/stm32cubeide_1.0.2/stm32cubeide/plugins/com.st.stm32cube.ide.mcu.externaltools.gnu-tools-for-stm32.7-2018-q2-update.win32_1.4.0.202007081208/tools/bin/../lib/gcc/arm-none-eabi/7.3.1/../../../../arm-none-eabi/lib/thumb/v7e-m/fpv5/hard\libc_nano.a(lib_a-nano-callocr.o)
                0x0000000008015d28                _calloc_r
 .text.__ssputs_r
                0x0000000008015d44       0xb4 d:/stm32cubemx/stm32cubeide_1.0.2/stm32cubeide/plugins/com.st.stm32cube.ide.mcu.externaltools.gnu-tools-for-stm32.7-2018-q2-update.win32_1.4.0.202007081208/tools/bin/../lib/gcc/arm-none-eabi/7.3.1/../../../../arm-none-eabi/lib/thumb/v7e-m/fpv5/hard\libc_nano.a(lib_a-nano-svfprintf.o)
                0x0000000008015d44                __ssputs_r
 .text._svfprintf_r
                0x0000000008015df8      0x1f0 d:/stm32cubemx/stm32cubeide_1.0.2/stm32cubeide/plugins/com.st.stm32cube.ide.mcu.externaltools.gnu-tools-for-stm32.7-2018-q2-update.win32_1.4.0.202007081208/tools/bin/../lib/gcc/arm-none-eabi/7.3.1/../../../../arm-none-eabi/lib/thumb/v7e-m/fpv5/hard\libc_nano.a(lib_a-nano-svfprintf.o)
                0x0000000008015df8                _svfiprintf_r
                0x0000000008015df8                _svfprintf_r
 .text._sungetc_r
                0x0000000008015fe8       0x7a d:/stm32cubemx/stm32cubeide_1.0.2/stm32cubeide/plugins/com.st.stm32cube.ide.mcu.externaltools.gnu-tools-for-stm32.7-2018-q2-update.win32_1.4.0.202007081208/tools/bin/../lib/gcc/arm-none-eabi/7.3.1/../../../../arm-none-eabi/lib/thumb/v7e-m/fpv5/hard\libc_nano.a(lib_a-nano-svfscanf.o)
                0x0000000008015fe8                _sungetc_r
 .text.__ssrefill_r
                0x0000000008016062       0x3a d:/stm32cubemx/stm32cubeide_1.0.2/stm32cubeide/plugins/com.st.stm32cube.ide.mcu.externaltools.gnu-tools-for-stm32.7-2018-q2-update.win32_1.4.0.202007081208/tools/bin/../lib/gcc/arm-none-eabi/7.3.1/../../../../arm-none-eabi/lib/thumb/v7e-m/fpv5/hard\libc_nano.a(lib_a-nano-svfscanf.o)
                0x0000000008016062                __ssrefill_r
 .text.__ssvfscanf_r
                0x000000000801609c      0x2a0 d:/stm32cubemx/stm32cubeide_1.0.2/stm32cubeide/plugins/com.st.stm32cube.ide.mcu.externaltools.gnu-tools-for-stm32.7-2018-q2-update.win32_1.4.0.202007081208/tools/bin/../lib/gcc/arm-none-eabi/7.3.1/../../../../arm-none-eabi/lib/thumb/v7e-m/fpv5/hard\libc_nano.a(lib_a-nano-svfscanf.o)
                0x000000000801609c                __ssvfiscanf_r
                0x000000000801609c                __ssvfscanf_r
 .text._scanf_chars
                0x000000000801633c       0xc6 d:/stm32cubemx/stm32cubeide_1.0.2/stm32cubeide/plugins/com.st.stm32cube.ide.mcu.externaltools.gnu-tools-for-stm32.7-2018-q2-update.win32_1.4.0.202007081208/tools/bin/../lib/gcc/arm-none-eabi/7.3.1/../../../../arm-none-eabi/lib/thumb/v7e-m/fpv5/hard\libc_nano.a(lib_a-nano-vfscanf_i.o)
                0x000000000801633c                _scanf_chars
 *fill*         0x0000000008016402        0x2 
 .text._scanf_i
                0x0000000008016404      0x1e8 d:/stm32cubemx/stm32cubeide_1.0.2/stm32cubeide/plugins/com.st.stm32cube.ide.mcu.externaltools.gnu-tools-for-stm32.7-2018-q2-update.win32_1.4.0.202007081208/tools/bin/../lib/gcc/arm-none-eabi/7.3.1/../../../../arm-none-eabi/lib/thumb/v7e-m/fpv5/hard\libc_nano.a(lib_a-nano-vfscanf_i.o)
                0x0000000008016404                _scanf_i
 .text.__sccl   0x00000000080165ec       0x64 d:/stm32cubemx/stm32cubeide_1.0.2/stm32cubeide/plugins/com.st.stm32cube.ide.mcu.externaltools.gnu-tools-for-stm32.7-2018-q2-update.win32_1.4.0.202007081208/tools/bin/../lib/gcc/arm-none-eabi/7.3.1/../../../../arm-none-eabi/lib/thumb/v7e-m/fpv5/hard\libc_nano.a(lib_a-sccl.o)
                0x00000000080165ec                __sccl
 .text.__seofread
                0x0000000008016650        0x4 d:/stm32cubemx/stm32cubeide_1.0.2/stm32cubeide/plugins/com.st.stm32cube.ide.mcu.externaltools.gnu-tools-for-stm32.7-2018-q2-update.win32_1.4.0.202007081208/tools/bin/../lib/gcc/arm-none-eabi/7.3.1/../../../../arm-none-eabi/lib/thumb/v7e-m/fpv5/hard\libc_nano.a(lib_a-stdio.o)
                0x0000000008016650                __seofread
 .text.strncmp  0x0000000008016654       0x24 d:/stm32cubemx/stm32cubeide_1.0.2/stm32cubeide/plugins/com.st.stm32cube.ide.mcu.externaltools.gnu-tools-for-stm32.7-2018-q2-update.win32_1.4.0.202007081208/tools/bin/../lib/gcc/arm-none-eabi/7.3.1/../../../../arm-none-eabi/lib/thumb/v7e-m/fpv5/hard\libc_nano.a(lib_a-strncmp.o)
                0x0000000008016654                strncmp
 .text._strtoul_l.isra.0
                0x0000000008016678       0xf4 d:/stm32cubemx/stm32cubeide_1.0.2/stm32cubeide/plugins/com.st.stm32cube.ide.mcu.externaltools.gnu-tools-for-stm32.7-2018-q2-update.win32_1.4.0.202007081208/tools/bin/../lib/gcc/arm-none-eabi/7.3.1/../../../../arm-none-eabi/lib/thumb/v7e-m/fpv5/hard\libc_nano.a(lib_a-strtoul.o)
 .text._strtoul_r
                0x000000000801676c       0x24 d:/stm32cubemx/stm32cubeide_1.0.2/stm32cubeide/plugins/com.st.stm32cube.ide.mcu.externaltools.gnu-tools-for-stm32.7-2018-q2-update.win32_1.4.0.202007081208/tools/bin/../lib/gcc/arm-none-eabi/7.3.1/../../../../arm-none-eabi/lib/thumb/v7e-m/fpv5/hard\libc_nano.a(lib_a-strtoul.o)
                0x000000000801676c                _strtoul_r
 .text.__submore
                0x0000000008016790       0x74 d:/stm32cubemx/stm32cubeide_1.0.2/stm32cubeide/plugins/com.st.stm32cube.ide.mcu.externaltools.gnu-tools-for-stm32.7-2018-q2-update.win32_1.4.0.202007081208/tools/bin/../lib/gcc/arm-none-eabi/7.3.1/../../../../arm-none-eabi/lib/thumb/v7e-m/fpv5/hard\libc_nano.a(lib_a-ungetc.o)
                0x0000000008016790                __submore
 .text.__ascii_wctomb
                0x0000000008016804       0x1a d:/stm32cubemx/stm32cubeide_1.0.2/stm32cubeide/plugins/com.st.stm32cube.ide.mcu.externaltools.gnu-tools-for-stm32.7-2018-q2-update.win32_1.4.0.202007081208/tools/bin/../lib/gcc/arm-none-eabi/7.3.1/../../../../arm-none-eabi/lib/thumb/v7e-m/fpv5/hard\libc_nano.a(lib_a-wctomb_r.o)
                0x0000000008016804                __ascii_wctomb
 .text.memmove  0x000000000801681e       0x32 d:/stm32cubemx/stm32cubeide_1.0.2/stm32cubeide/plugins/com.st.stm32cube.ide.mcu.externaltools.gnu-tools-for-stm32.7-2018-q2-update.win32_1.4.0.202007081208/tools/bin/../lib/gcc/arm-none-eabi/7.3.1/../../../../arm-none-eabi/lib/thumb/v7e-m/fpv5/hard\libc_nano.a(lib_a-memmove.o)
                0x000000000801681e                memmove
 .text._realloc_r
                0x0000000008016850       0x4c d:/stm32cubemx/stm32cubeide_1.0.2/stm32cubeide/plugins/com.st.stm32cube.ide.mcu.externaltools.gnu-tools-for-stm32.7-2018-q2-update.win32_1.4.0.202007081208/tools/bin/../lib/gcc/arm-none-eabi/7.3.1/../../../../arm-none-eabi/lib/thumb/v7e-m/fpv5/hard\libc_nano.a(lib_a-nano-reallocr.o)
                0x0000000008016850                _realloc_r
 .text._malloc_usable_size_r
                0x000000000801689c       0x10 d:/stm32cubemx/stm32cubeide_1.0.2/stm32cubeide/plugins/com.st.stm32cube.ide.mcu.externaltools.gnu-tools-for-stm32.7-2018-q2-update.win32_1.4.0.202007081208/tools/bin/../lib/gcc/arm-none-eabi/7.3.1/../../../../arm-none-eabi/lib/thumb/v7e-m/fpv5/hard\libc_nano.a(lib_a-nano-msizer.o)
                0x000000000801689c                _malloc_usable_size_r
 *(.glue_7)
 .glue_7        0x00000000080168ac        0x0 linker stubs
 *(.glue_7t)
 .glue_7t       0x00000000080168ac        0x0 linker stubs
 *(.eh_frame)
 .eh_frame      0x00000000080168ac        0x0 d:/stm32cubemx/stm32cubeide_1.0.2/stm32cubeide/plugins/com.st.stm32cube.ide.mcu.externaltools.gnu-tools-for-stm32.7-2018-q2-update.win32_1.4.0.202007081208/tools/bin/../lib/gcc/arm-none-eabi/7.3.1/thumb/v7e-m/fpv5/hard/crtbegin.o
 *(.init)
 .init          0x00000000080168ac        0x4 d:/stm32cubemx/stm32cubeide_1.0.2/stm32cubeide/plugins/com.st.stm32cube.ide.mcu.externaltools.gnu-tools-for-stm32.7-2018-q2-update.win32_1.4.0.202007081208/tools/bin/../lib/gcc/arm-none-eabi/7.3.1/thumb/v7e-m/fpv5/hard/crti.o
                0x00000000080168ac                _init
 .init          0x00000000080168b0        0x8 d:/stm32cubemx/stm32cubeide_1.0.2/stm32cubeide/plugins/com.st.stm32cube.ide.mcu.externaltools.gnu-tools-for-stm32.7-2018-q2-update.win32_1.4.0.202007081208/tools/bin/../lib/gcc/arm-none-eabi/7.3.1/thumb/v7e-m/fpv5/hard/crtn.o
 *(.fini)
 .fini          0x00000000080168b8        0x4 d:/stm32cubemx/stm32cubeide_1.0.2/stm32cubeide/plugins/com.st.stm32cube.ide.mcu.externaltools.gnu-tools-for-stm32.7-2018-q2-update.win32_1.4.0.202007081208/tools/bin/../lib/gcc/arm-none-eabi/7.3.1/thumb/v7e-m/fpv5/hard/crti.o
                0x00000000080168b8                _fini
 .fini          0x00000000080168bc        0x8 d:/stm32cubemx/stm32cubeide_1.0.2/stm32cubeide/plugins/com.st.stm32cube.ide.mcu.externaltools.gnu-tools-for-stm32.7-2018-q2-update.win32_1.4.0.202007081208/tools/bin/../lib/gcc/arm-none-eabi/7.3.1/thumb/v7e-m/fpv5/hard/crtn.o
                0x00000000080168c4                . = ALIGN (0x4)
                0x00000000080168c4                _etext = .

.vfp11_veneer   0x00000000080168c4        0x0
 .vfp11_veneer  0x00000000080168c4        0x0 linker stubs

.v4_bx          0x00000000080168c4        0x0
 .v4_bx         0x00000000080168c4        0x0 linker stubs

.iplt           0x00000000080168c4        0x0
 .iplt          0x00000000080168c4        0x0 d:/stm32cubemx/stm32cubeide_1.0.2/stm32cubeide/plugins/com.st.stm32cube.ide.mcu.externaltools.gnu-tools-for-stm32.7-2018-q2-update.win32_1.4.0.202007081208/tools/bin/../lib/gcc/arm-none-eabi/7.3.1/thumb/v7e-m/fpv5/hard/crtbegin.o

.rodata         0x00000000080168c8      0xd6c
                0x00000000080168c8                . = ALIGN (0x4)
 *(.rodata)
 .rodata        0x00000000080168c8      0x2f3 Core/Inc/AutoPilot/LizhongAutoPilot.o
 *fill*         0x0000000008016bbb        0x1 
 .rodata        0x0000000008016bbc       0xec Core/Src/main.o
 .rodata        0x0000000008016ca8       0x10 Drivers/STM32H7xx_HAL_Driver/Src/stm32h7xx_hal_uart_ex.o
 .rodata        0x0000000008016cb8        0x5 Middlewares/Third_Party/FreeRTOS/Source/tasks.o
 *fill*         0x0000000008016cbd        0x3 
 .rodata        0x0000000008016cc0        0xc d:/stm32cubemx/stm32cubeide_1.0.2/stm32cubeide/plugins/com.st.stm32cube.ide.mcu.externaltools.gnu-tools-for-stm32.7-2018-q2-update.win32_1.4.0.202007081208/tools/bin/../lib/gcc/arm-none-eabi/7.3.1/../../../../arm-none-eabi/lib/thumb/v7e-m/fpv5/hard\libc_nano.a(lib_a-nano-vfscanf_i.o)
 *(.rodata*)
 .rodata._ZTV8icm20602I3SPIE
                0x0000000008016ccc        0xc Core/Inc/AutoPilot/LizhongAutoPilot.o
                0x0000000008016ccc                vtable for icm20602<SPI>
 .rodata._ZTVN4time5delayE
                0x0000000008016cd8        0xc Core/Inc/AutoPilot/LizhongAutoPilot.o
                0x0000000008016cd8                vtable for time::delay
 .rodata.D1CorePrescTable
                0x0000000008016ce4       0x10 Core/Src/system_stm32h7xx.o
                0x0000000008016ce4                D1CorePrescTable
 .rodata.flagBitshiftOffset.10874
                0x0000000008016cf4        0x8 Drivers/STM32H7xx_HAL_Driver/Src/stm32h7xx_hal_dma.o
 .rodata.UARTPrescTable
                0x0000000008016cfc       0x18 Drivers/STM32H7xx_HAL_Driver/Src/stm32h7xx_hal_uart.o
                0x0000000008016cfc                UARTPrescTable
 .rodata.sqrt.str1.1
                0x0000000008016d14        0x5 d:/stm32cubemx/stm32cubeide_1.0.2/stm32cubeide/plugins/com.st.stm32cube.ide.mcu.externaltools.gnu-tools-for-stm32.7-2018-q2-update.win32_1.4.0.202007081208/tools/bin/../lib/gcc/arm-none-eabi/7.3.1/../../../../arm-none-eabi/lib/thumb/v7e-m/fpv5/hard\libm.a(lib_a-w_sqrt.o)
 *fill*         0x0000000008016d19        0x3 
 .rodata.npio2_hw
                0x0000000008016d1c       0x80 d:/stm32cubemx/stm32cubeide_1.0.2/stm32cubeide/plugins/com.st.stm32cube.ide.mcu.externaltools.gnu-tools-for-stm32.7-2018-q2-update.win32_1.4.0.202007081208/tools/bin/../lib/gcc/arm-none-eabi/7.3.1/../../../../arm-none-eabi/lib/thumb/v7e-m/fpv5/hard\libm.a(lib_a-e_rem_pio2.o)
 .rodata.two_over_pi
                0x0000000008016d9c      0x108 d:/stm32cubemx/stm32cubeide_1.0.2/stm32cubeide/plugins/com.st.stm32cube.ide.mcu.externaltools.gnu-tools-for-stm32.7-2018-q2-update.win32_1.4.0.202007081208/tools/bin/../lib/gcc/arm-none-eabi/7.3.1/../../../../arm-none-eabi/lib/thumb/v7e-m/fpv5/hard\libm.a(lib_a-e_rem_pio2.o)
 .rodata.npio2_hw
                0x0000000008016ea4       0x80 d:/stm32cubemx/stm32cubeide_1.0.2/stm32cubeide/plugins/com.st.stm32cube.ide.mcu.externaltools.gnu-tools-for-stm32.7-2018-q2-update.win32_1.4.0.202007081208/tools/bin/../lib/gcc/arm-none-eabi/7.3.1/../../../../arm-none-eabi/lib/thumb/v7e-m/fpv5/hard\libm.a(lib_a-ef_rem_pio2.o)
 .rodata.two_over_pi
                0x0000000008016f24      0x318 d:/stm32cubemx/stm32cubeide_1.0.2/stm32cubeide/plugins/com.st.stm32cube.ide.mcu.externaltools.gnu-tools-for-stm32.7-2018-q2-update.win32_1.4.0.202007081208/tools/bin/../lib/gcc/arm-none-eabi/7.3.1/../../../../arm-none-eabi/lib/thumb/v7e-m/fpv5/hard\libm.a(lib_a-ef_rem_pio2.o)
 *fill*         0x000000000801723c        0x4 
 .rodata.PIo2   0x0000000008017240       0x40 d:/stm32cubemx/stm32cubeide_1.0.2/stm32cubeide/plugins/com.st.stm32cube.ide.mcu.externaltools.gnu-tools-for-stm32.7-2018-q2-update.win32_1.4.0.202007081208/tools/bin/../lib/gcc/arm-none-eabi/7.3.1/../../../../arm-none-eabi/lib/thumb/v7e-m/fpv5/hard\libm.a(lib_a-k_rem_pio2.o)
 .rodata.init_jk
                0x0000000008017280       0x10 d:/stm32cubemx/stm32cubeide_1.0.2/stm32cubeide/plugins/com.st.stm32cube.ide.mcu.externaltools.gnu-tools-for-stm32.7-2018-q2-update.win32_1.4.0.202007081208/tools/bin/../lib/gcc/arm-none-eabi/7.3.1/../../../../arm-none-eabi/lib/thumb/v7e-m/fpv5/hard\libm.a(lib_a-k_rem_pio2.o)
 .rodata.PIo2   0x0000000008017290       0x2c d:/stm32cubemx/stm32cubeide_1.0.2/stm32cubeide/plugins/com.st.stm32cube.ide.mcu.externaltools.gnu-tools-for-stm32.7-2018-q2-update.win32_1.4.0.202007081208/tools/bin/../lib/gcc/arm-none-eabi/7.3.1/../../../../arm-none-eabi/lib/thumb/v7e-m/fpv5/hard\libm.a(lib_a-kf_rem_pio2.o)
 .rodata.init_jk
                0x00000000080172bc        0xc d:/stm32cubemx/stm32cubeide_1.0.2/stm32cubeide/plugins/com.st.stm32cube.ide.mcu.externaltools.gnu-tools-for-stm32.7-2018-q2-update.win32_1.4.0.202007081208/tools/bin/../lib/gcc/arm-none-eabi/7.3.1/../../../../arm-none-eabi/lib/thumb/v7e-m/fpv5/hard\libm.a(lib_a-kf_rem_pio2.o)
 .rodata.atanhi
                0x00000000080172c8       0x20 d:/stm32cubemx/stm32cubeide_1.0.2/stm32cubeide/plugins/com.st.stm32cube.ide.mcu.externaltools.gnu-tools-for-stm32.7-2018-q2-update.win32_1.4.0.202007081208/tools/bin/../lib/gcc/arm-none-eabi/7.3.1/../../../../arm-none-eabi/lib/thumb/v7e-m/fpv5/hard\libm.a(lib_a-s_atan.o)
 .rodata.atanlo
                0x00000000080172e8       0x20 d:/stm32cubemx/stm32cubeide_1.0.2/stm32cubeide/plugins/com.st.stm32cube.ide.mcu.externaltools.gnu-tools-for-stm32.7-2018-q2-update.win32_1.4.0.202007081208/tools/bin/../lib/gcc/arm-none-eabi/7.3.1/../../../../arm-none-eabi/lib/thumb/v7e-m/fpv5/hard\libm.a(lib_a-s_atan.o)
 .rodata._printf_float.str1.1
                0x0000000008017308       0x10 d:/stm32cubemx/stm32cubeide_1.0.2/stm32cubeide/plugins/com.st.stm32cube.ide.mcu.externaltools.gnu-tools-for-stm32.7-2018-q2-update.win32_1.4.0.202007081208/tools/bin/../lib/gcc/arm-none-eabi/7.3.1/../../../../arm-none-eabi/lib/thumb/v7e-m/fpv5/hard\libc_nano.a(lib_a-nano-vfprintf_float.o)
                                         0x12 (size before relaxing)
 .rodata._printf_i.str1.1
                0x0000000008017318       0x22 d:/stm32cubemx/stm32cubeide_1.0.2/stm32cubeide/plugins/com.st.stm32cube.ide.mcu.externaltools.gnu-tools-for-stm32.7-2018-q2-update.win32_1.4.0.202007081208/tools/bin/../lib/gcc/arm-none-eabi/7.3.1/../../../../arm-none-eabi/lib/thumb/v7e-m/fpv5/hard\libc_nano.a(lib_a-nano-vfprintf_i.o)
 .rodata._scanf_float.str1.1
                0x000000000801733a        0x5 d:/stm32cubemx/stm32cubeide_1.0.2/stm32cubeide/plugins/com.st.stm32cube.ide.mcu.externaltools.gnu-tools-for-stm32.7-2018-q2-update.win32_1.4.0.202007081208/tools/bin/../lib/gcc/arm-none-eabi/7.3.1/../../../../arm-none-eabi/lib/thumb/v7e-m/fpv5/hard\libc_nano.a(lib_a-nano-vfscanf_float.o)
 .rodata._strtod_l.str1.1
                0x000000000801733f        0x5 d:/stm32cubemx/stm32cubeide_1.0.2/stm32cubeide/plugins/com.st.stm32cube.ide.mcu.externaltools.gnu-tools-for-stm32.7-2018-q2-update.win32_1.4.0.202007081208/tools/bin/../lib/gcc/arm-none-eabi/7.3.1/../../../../arm-none-eabi/lib/thumb/v7e-m/fpv5/hard\libc_nano.a(lib_a-strtod.o)
                                          0xc (size before relaxing)
 *fill*         0x000000000801733f        0x1 
 .rodata.fpi.7435
                0x0000000008017340       0x14 d:/stm32cubemx/stm32cubeide_1.0.2/stm32cubeide/plugins/com.st.stm32cube.ide.mcu.externaltools.gnu-tools-for-stm32.7-2018-q2-update.win32_1.4.0.202007081208/tools/bin/../lib/gcc/arm-none-eabi/7.3.1/../../../../arm-none-eabi/lib/thumb/v7e-m/fpv5/hard\libc_nano.a(lib_a-strtod.o)
 .rodata.fpinan.7471
                0x0000000008017354       0x14 d:/stm32cubemx/stm32cubeide_1.0.2/stm32cubeide/plugins/com.st.stm32cube.ide.mcu.externaltools.gnu-tools-for-stm32.7-2018-q2-update.win32_1.4.0.202007081208/tools/bin/../lib/gcc/arm-none-eabi/7.3.1/../../../../arm-none-eabi/lib/thumb/v7e-m/fpv5/hard\libc_nano.a(lib_a-strtod.o)
 .rodata.tinytens
                0x0000000008017368       0x28 d:/stm32cubemx/stm32cubeide_1.0.2/stm32cubeide/plugins/com.st.stm32cube.ide.mcu.externaltools.gnu-tools-for-stm32.7-2018-q2-update.win32_1.4.0.202007081208/tools/bin/../lib/gcc/arm-none-eabi/7.3.1/../../../../arm-none-eabi/lib/thumb/v7e-m/fpv5/hard\libc_nano.a(lib_a-strtod.o)
 .rodata._dtoa_r.str1.1
                0x0000000008017390        0xd d:/stm32cubemx/stm32cubeide_1.0.2/stm32cubeide/plugins/com.st.stm32cube.ide.mcu.externaltools.gnu-tools-for-stm32.7-2018-q2-update.win32_1.4.0.202007081208/tools/bin/../lib/gcc/arm-none-eabi/7.3.1/../../../../arm-none-eabi/lib/thumb/v7e-m/fpv5/hard\libc_nano.a(lib_a-dtoa.o)
                                          0xf (size before relaxing)
 .rodata._setlocale_r.str1.1
                0x000000000801739d        0x8 d:/stm32cubemx/stm32cubeide_1.0.2/stm32cubeide/plugins/com.st.stm32cube.ide.mcu.externaltools.gnu-tools-for-stm32.7-2018-q2-update.win32_1.4.0.202007081208/tools/bin/../lib/gcc/arm-none-eabi/7.3.1/../../../../arm-none-eabi/lib/thumb/v7e-m/fpv5/hard\libc_nano.a(lib_a-locale.o)
                                          0x9 (size before relaxing)
 .rodata.str1.1
                0x00000000080173a5        0x2 d:/stm32cubemx/stm32cubeide_1.0.2/stm32cubeide/plugins/com.st.stm32cube.ide.mcu.externaltools.gnu-tools-for-stm32.7-2018-q2-update.win32_1.4.0.202007081208/tools/bin/../lib/gcc/arm-none-eabi/7.3.1/../../../../arm-none-eabi/lib/thumb/v7e-m/fpv5/hard\libc_nano.a(lib_a-locale.o)
 *fill*         0x00000000080173a7        0x1 
 .rodata.__mprec_bigtens
                0x00000000080173a8       0x28 d:/stm32cubemx/stm32cubeide_1.0.2/stm32cubeide/plugins/com.st.stm32cube.ide.mcu.externaltools.gnu-tools-for-stm32.7-2018-q2-update.win32_1.4.0.202007081208/tools/bin/../lib/gcc/arm-none-eabi/7.3.1/../../../../arm-none-eabi/lib/thumb/v7e-m/fpv5/hard\libc_nano.a(lib_a-mprec.o)
                0x00000000080173a8                __mprec_bigtens
 .rodata.__mprec_tens
                0x00000000080173d0       0xc8 d:/stm32cubemx/stm32cubeide_1.0.2/stm32cubeide/plugins/com.st.stm32cube.ide.mcu.externaltools.gnu-tools-for-stm32.7-2018-q2-update.win32_1.4.0.202007081208/tools/bin/../lib/gcc/arm-none-eabi/7.3.1/../../../../arm-none-eabi/lib/thumb/v7e-m/fpv5/hard\libc_nano.a(lib_a-mprec.o)
                0x00000000080173d0                __mprec_tens
 .rodata.p05.7359
                0x0000000008017498        0xc d:/stm32cubemx/stm32cubeide_1.0.2/stm32cubeide/plugins/com.st.stm32cube.ide.mcu.externaltools.gnu-tools-for-stm32.7-2018-q2-update.win32_1.4.0.202007081208/tools/bin/../lib/gcc/arm-none-eabi/7.3.1/../../../../arm-none-eabi/lib/thumb/v7e-m/fpv5/hard\libc_nano.a(lib_a-mprec.o)
 .rodata._svfprintf_r.str1.1
                0x00000000080174a4       0x11 d:/stm32cubemx/stm32cubeide_1.0.2/stm32cubeide/plugins/com.st.stm32cube.ide.mcu.externaltools.gnu-tools-for-stm32.7-2018-q2-update.win32_1.4.0.202007081208/tools/bin/../lib/gcc/arm-none-eabi/7.3.1/../../../../arm-none-eabi/lib/thumb/v7e-m/fpv5/hard\libc_nano.a(lib_a-nano-svfprintf.o)
 .rodata.__ssvfscanf_r.str1.1
                0x00000000080174b5        0x4 d:/stm32cubemx/stm32cubeide_1.0.2/stm32cubeide/plugins/com.st.stm32cube.ide.mcu.externaltools.gnu-tools-for-stm32.7-2018-q2-update.win32_1.4.0.202007081208/tools/bin/../lib/gcc/arm-none-eabi/7.3.1/../../../../arm-none-eabi/lib/thumb/v7e-m/fpv5/hard\libc_nano.a(lib_a-nano-svfscanf.o)
 .rodata._scanf_i.str1.1
                0x00000000080174b5       0x12 d:/stm32cubemx/stm32cubeide_1.0.2/stm32cubeide/plugins/com.st.stm32cube.ide.mcu.externaltools.gnu-tools-for-stm32.7-2018-q2-update.win32_1.4.0.202007081208/tools/bin/../lib/gcc/arm-none-eabi/7.3.1/../../../../arm-none-eabi/lib/thumb/v7e-m/fpv5/hard\libc_nano.a(lib_a-nano-vfscanf_i.o)
 .rodata.str1.1
                0x00000000080174c7        0x9 d:/stm32cubemx/stm32cubeide_1.0.2/stm32cubeide/plugins/com.st.stm32cube.ide.mcu.externaltools.gnu-tools-for-stm32.7-2018-q2-update.win32_1.4.0.202007081208/tools/bin/../lib/gcc/arm-none-eabi/7.3.1/../../../../arm-none-eabi/lib/thumb/v7e-m/fpv5/hard\libc_nano.a(lib_a-nano-vfscanf_i.o)
 .rodata._ctype_
                0x00000000080174d0      0x101 d:/stm32cubemx/stm32cubeide_1.0.2/stm32cubeide/plugins/com.st.stm32cube.ide.mcu.externaltools.gnu-tools-for-stm32.7-2018-q2-update.win32_1.4.0.202007081208/tools/bin/../lib/gcc/arm-none-eabi/7.3.1/../../../../arm-none-eabi/lib/thumb/v7e-m/fpv5/hard\libc_nano.a(lib_a-ctype_.o)
                0x00000000080174d0                _ctype_
 *fill*         0x00000000080175d1        0x3 
 .rodata.__sf_fake_stderr
                0x00000000080175d4       0x20 d:/stm32cubemx/stm32cubeide_1.0.2/stm32cubeide/plugins/com.st.stm32cube.ide.mcu.externaltools.gnu-tools-for-stm32.7-2018-q2-update.win32_1.4.0.202007081208/tools/bin/../lib/gcc/arm-none-eabi/7.3.1/../../../../arm-none-eabi/lib/thumb/v7e-m/fpv5/hard\libc_nano.a(lib_a-findfp.o)
                0x00000000080175d4                __sf_fake_stderr
 .rodata.__sf_fake_stdin
                0x00000000080175f4       0x20 d:/stm32cubemx/stm32cubeide_1.0.2/stm32cubeide/plugins/com.st.stm32cube.ide.mcu.externaltools.gnu-tools-for-stm32.7-2018-q2-update.win32_1.4.0.202007081208/tools/bin/../lib/gcc/arm-none-eabi/7.3.1/../../../../arm-none-eabi/lib/thumb/v7e-m/fpv5/hard\libc_nano.a(lib_a-findfp.o)
                0x00000000080175f4                __sf_fake_stdin
 .rodata.__sf_fake_stdout
                0x0000000008017614       0x20 d:/stm32cubemx/stm32cubeide_1.0.2/stm32cubeide/plugins/com.st.stm32cube.ide.mcu.externaltools.gnu-tools-for-stm32.7-2018-q2-update.win32_1.4.0.202007081208/tools/bin/../lib/gcc/arm-none-eabi/7.3.1/../../../../arm-none-eabi/lib/thumb/v7e-m/fpv5/hard\libc_nano.a(lib_a-findfp.o)
                0x0000000008017614                __sf_fake_stdout
                0x0000000008017634                . = ALIGN (0x4)

.ARM.extab      0x0000000008017634        0x0
                0x0000000008017634                . = ALIGN (0x4)
 *(.ARM.extab* .gnu.linkonce.armextab.*)
                0x0000000008017634                . = ALIGN (0x4)

.ARM            0x0000000008017634        0x8
                0x0000000008017634                . = ALIGN (0x4)
                0x0000000008017634                __exidx_start = .
 *(.ARM.exidx*)
 .ARM.exidx     0x0000000008017634        0x8 d:/stm32cubemx/stm32cubeide_1.0.2/stm32cubeide/plugins/com.st.stm32cube.ide.mcu.externaltools.gnu-tools-for-stm32.7-2018-q2-update.win32_1.4.0.202007081208/tools/bin/../lib/gcc/arm-none-eabi/7.3.1/thumb/v7e-m/fpv5/hard\libgcc.a(_udivmoddi4.o)
                0x000000000801763c                __exidx_end = .
                0x000000000801763c                . = ALIGN (0x4)

.rel.dyn        0x000000000801763c        0x0
 .rel.iplt      0x000000000801763c        0x0 d:/stm32cubemx/stm32cubeide_1.0.2/stm32cubeide/plugins/com.st.stm32cube.ide.mcu.externaltools.gnu-tools-for-stm32.7-2018-q2-update.win32_1.4.0.202007081208/tools/bin/../lib/gcc/arm-none-eabi/7.3.1/thumb/v7e-m/fpv5/hard/crtbegin.o

.preinit_array  0x000000000801763c        0x0
                0x000000000801763c                . = ALIGN (0x4)
                0x000000000801763c                PROVIDE (__preinit_array_start = .)
 *(.preinit_array*)
                0x000000000801763c                PROVIDE (__preinit_array_end = .)
                0x000000000801763c                . = ALIGN (0x4)

.init_array     0x000000000801763c        0xc
                0x000000000801763c                . = ALIGN (0x4)
                0x000000000801763c                PROVIDE (__init_array_start = .)
 *(SORT_BY_NAME(.init_array.*))
 *(.init_array*)
 .init_array    0x000000000801763c        0x4 d:/stm32cubemx/stm32cubeide_1.0.2/stm32cubeide/plugins/com.st.stm32cube.ide.mcu.externaltools.gnu-tools-for-stm32.7-2018-q2-update.win32_1.4.0.202007081208/tools/bin/../lib/gcc/arm-none-eabi/7.3.1/thumb/v7e-m/fpv5/hard/crtbegin.o
 .init_array    0x0000000008017640        0x4 Core/Inc/AutoPilot/LizhongAutoPilot.o
 .init_array    0x0000000008017644        0x4 Core/Src/main.o
                0x0000000008017648                PROVIDE (__init_array_end = .)
                0x0000000008017648                . = ALIGN (0x4)

.fini_array     0x0000000008017648        0x4
                0x0000000008017648                . = ALIGN (0x4)
                [!provide]                        PROVIDE (__fini_array_start = .)
 *(SORT_BY_NAME(.fini_array.*))
 *(.fini_array*)
 .fini_array    0x0000000008017648        0x4 d:/stm32cubemx/stm32cubeide_1.0.2/stm32cubeide/plugins/com.st.stm32cube.ide.mcu.externaltools.gnu-tools-for-stm32.7-2018-q2-update.win32_1.4.0.202007081208/tools/bin/../lib/gcc/arm-none-eabi/7.3.1/thumb/v7e-m/fpv5/hard/crtbegin.o
                [!provide]                        PROVIDE (__fini_array_end = .)
                0x000000000801764c                . = ALIGN (0x4)
                0x000000000801764c                _sidata = LOADADDR (.data)

.data           0x0000000024000000      0x1f4 load address 0x000000000801764c
                0x0000000024000000                . = ALIGN (0x4)
                0x0000000024000000                _sdata = .
 *(.data)
 *(.data*)
 .data.twoKp    0x0000000024000000        0x4 Core/Inc/Algorithm/MahonyAHRS.o
                0x0000000024000000                twoKp
 .data.q0       0x0000000024000004        0x4 Core/Inc/Algorithm/MahonyAHRS.o
                0x0000000024000004                q0
 .data.DelayUnit
                0x0000000024000008        0x4 Core/Inc/AutoPilot/LizhongAutoPilot.o
                0x0000000024000008                DelayUnit
 .data.SystemCoreClock
                0x000000002400000c        0x4 Core/Src/system_stm32h7xx.o
                0x000000002400000c                SystemCoreClock
 .data.SystemD2Clock
                0x0000000024000010        0x4 Core/Src/system_stm32h7xx.o
                0x0000000024000010                SystemD2Clock
 .data.uwTickPrio
                0x0000000024000014        0x4 Drivers/STM32H7xx_HAL_Driver/Src/stm32h7xx_hal.o
                0x0000000024000014                uwTickPrio
 .data.uwTickFreq
                0x0000000024000018        0x1 Drivers/STM32H7xx_HAL_Driver/Src/stm32h7xx_hal.o
                0x0000000024000018                uwTickFreq
 *fill*         0x0000000024000019        0x3 
 .data.uxCriticalNesting
                0x000000002400001c        0x4 Middlewares/Third_Party/FreeRTOS/Source/portable/GCC/ARM_CM4F/port.o
 .data.__fdlib_version
                0x0000000024000020        0x1 d:/stm32cubemx/stm32cubeide_1.0.2/stm32cubeide/plugins/com.st.stm32cube.ide.mcu.externaltools.gnu-tools-for-stm32.7-2018-q2-update.win32_1.4.0.202007081208/tools/bin/../lib/gcc/arm-none-eabi/7.3.1/../../../../arm-none-eabi/lib/thumb/v7e-m/fpv5/hard\libm.a(lib_a-s_lib_ver.o)
                0x0000000024000020                __fdlib_version
 *fill*         0x0000000024000021        0x3 
 .data._impure_ptr
                0x0000000024000024        0x4 d:/stm32cubemx/stm32cubeide_1.0.2/stm32cubeide/plugins/com.st.stm32cube.ide.mcu.externaltools.gnu-tools-for-stm32.7-2018-q2-update.win32_1.4.0.202007081208/tools/bin/../lib/gcc/arm-none-eabi/7.3.1/../../../../arm-none-eabi/lib/thumb/v7e-m/fpv5/hard\libc_nano.a(lib_a-impure.o)
                0x0000000024000024                _impure_ptr
 .data.impure_data
                0x0000000024000028       0x60 d:/stm32cubemx/stm32cubeide_1.0.2/stm32cubeide/plugins/com.st.stm32cube.ide.mcu.externaltools.gnu-tools-for-stm32.7-2018-q2-update.win32_1.4.0.202007081208/tools/bin/../lib/gcc/arm-none-eabi/7.3.1/../../../../arm-none-eabi/lib/thumb/v7e-m/fpv5/hard\libc_nano.a(lib_a-impure.o)
 .data.__global_locale
                0x0000000024000088      0x16c d:/stm32cubemx/stm32cubeide_1.0.2/stm32cubeide/plugins/com.st.stm32cube.ide.mcu.externaltools.gnu-tools-for-stm32.7-2018-q2-update.win32_1.4.0.202007081208/tools/bin/../lib/gcc/arm-none-eabi/7.3.1/../../../../arm-none-eabi/lib/thumb/v7e-m/fpv5/hard\libc_nano.a(lib_a-locale.o)
                0x0000000024000088                __global_locale
                0x00000000240001f4                . = ALIGN (0x4)
                0x00000000240001f4                _edata = .

.igot.plt       0x00000000240001f4        0x0 load address 0x0000000008017840
 .igot.plt      0x00000000240001f4        0x0 d:/stm32cubemx/stm32cubeide_1.0.2/stm32cubeide/plugins/com.st.stm32cube.ide.mcu.externaltools.gnu-tools-for-stm32.7-2018-q2-update.win32_1.4.0.202007081208/tools/bin/../lib/gcc/arm-none-eabi/7.3.1/thumb/v7e-m/fpv5/hard/crtbegin.o
                0x00000000240001f4                . = ALIGN (0x4)

.bss            0x00000000240001f4     0x4890 load address 0x0000000008017840
                0x00000000240001f4                _sbss = .
                0x00000000240001f4                __bss_start__ = _sbss
 *(.bss)
 .bss           0x00000000240001f4       0x1c d:/stm32cubemx/stm32cubeide_1.0.2/stm32cubeide/plugins/com.st.stm32cube.ide.mcu.externaltools.gnu-tools-for-stm32.7-2018-q2-update.win32_1.4.0.202007081208/tools/bin/../lib/gcc/arm-none-eabi/7.3.1/thumb/v7e-m/fpv5/hard/crtbegin.o
 *(.bss*)
 .bss.twoKi     0x0000000024000210        0x4 Core/Inc/Algorithm/MahonyAHRS.o
                0x0000000024000210                twoKi
 .bss.q1        0x0000000024000214        0x4 Core/Inc/Algorithm/MahonyAHRS.o
                0x0000000024000214                q1
 .bss.q2        0x0000000024000218        0x4 Core/Inc/Algorithm/MahonyAHRS.o
                0x0000000024000218                q2
 .bss.q3        0x000000002400021c        0x4 Core/Inc/Algorithm/MahonyAHRS.o
                0x000000002400021c                q3
 .bss.integralFBx
                0x0000000024000220        0x4 Core/Inc/Algorithm/MahonyAHRS.o
                0x0000000024000220                integralFBx
 .bss.integralFBy
                0x0000000024000224        0x4 Core/Inc/Algorithm/MahonyAHRS.o
                0x0000000024000224                integralFBy
 .bss.integralFBz
                0x0000000024000228        0x4 Core/Inc/Algorithm/MahonyAHRS.o
                0x0000000024000228                integralFBz
 .bss.Serial    0x000000002400022c       0x10 Core/Inc/AutoPilot/LizhongAutoPilot.o
                0x000000002400022c                Serial
 .bss.spl06_i2c
                0x000000002400023c        0x4 Core/Inc/AutoPilot/LizhongAutoPilot.o
                0x000000002400023c                spl06_i2c
 .bss.bar       0x0000000024000240        0xc Core/Inc/AutoPilot/LizhongAutoPilot.o
                0x0000000024000240                bar
 .bss.imu       0x000000002400024c        0x4 Core/Inc/AutoPilot/LizhongAutoPilot.o
                0x000000002400024c                imu
 .bss.cmp       0x0000000024000250       0x24 Core/Inc/AutoPilot/LizhongAutoPilot.o
                0x0000000024000250                cmp
 .bss.gpsUART   0x0000000024000274        0x4 Core/Inc/AutoPilot/LizhongAutoPilot.o
                0x0000000024000274                gpsUART
 .bss.rcUART    0x0000000024000278        0x4 Core/Inc/AutoPilot/LizhongAutoPilot.o
                0x0000000024000278                rcUART
 .bss.angleRing
                0x000000002400027c        0x4 Core/Inc/AutoPilot/LizhongAutoPilot.o
                0x000000002400027c                angleRing
 .bss.positionRing
                0x0000000024000280        0x4 Core/Inc/AutoPilot/LizhongAutoPilot.o
                0x0000000024000280                positionRing
 .bss.heightRing
                0x0000000024000284        0x4 Core/Inc/AutoPilot/LizhongAutoPilot.o
                0x0000000024000284                heightRing
 .bss.ccx0      0x0000000024000288        0x1 Core/Inc/SensorLibrary/rm3100.o
                0x0000000024000288                ccx0
 .bss.ccx1      0x0000000024000289        0x1 Core/Inc/SensorLibrary/rm3100.o
                0x0000000024000289                ccx1
 .bss.ccy0      0x000000002400028a        0x1 Core/Inc/SensorLibrary/rm3100.o
                0x000000002400028a                ccy0
 .bss.ccy1      0x000000002400028b        0x1 Core/Inc/SensorLibrary/rm3100.o
                0x000000002400028b                ccy1
 .bss.ccz0      0x000000002400028c        0x1 Core/Inc/SensorLibrary/rm3100.o
                0x000000002400028c                ccz0
 .bss.ccz1      0x000000002400028d        0x1 Core/Inc/SensorLibrary/rm3100.o
                0x000000002400028d                ccz1
 *fill*         0x000000002400028e        0x2 
 .bss._ZL17spl06_calib_param
                0x0000000024000290       0x18 Core/Inc/SensorLibrary/spl06_01.o
 .bss.spl06_data
                0x00000000240002a8       0x14 Core/Inc/SensorLibrary/spl06_01.o
 .bss.xIdleTaskTCBBuffer
                0x00000000240002bc       0x54 Core/Src/freertos.o
 .bss.xIdleStack
                0x0000000024000310      0x200 Core/Src/freertos.o
 .bss.hi2c1     0x0000000024000510       0x4c Core/Src/main.o
                0x0000000024000510                hi2c1
 .bss.hi2c2     0x000000002400055c       0x4c Core/Src/main.o
                0x000000002400055c                hi2c2
 .bss.hspi1     0x00000000240005a8       0x88 Core/Src/main.o
                0x00000000240005a8                hspi1
 .bss.hspi2     0x0000000024000630       0x88 Core/Src/main.o
                0x0000000024000630                hspi2
 .bss.hspi4     0x00000000240006b8       0x88 Core/Src/main.o
                0x00000000240006b8                hspi4
 .bss.hspi6     0x0000000024000740       0x88 Core/Src/main.o
                0x0000000024000740                hspi6
 .bss.htim1     0x00000000240007c8       0x4c Core/Src/main.o
                0x00000000240007c8                htim1
 .bss.htim2     0x0000000024000814       0x4c Core/Src/main.o
                0x0000000024000814                htim2
 .bss.htim4     0x0000000024000860       0x4c Core/Src/main.o
                0x0000000024000860                htim4
 .bss.htim17    0x00000000240008ac       0x4c Core/Src/main.o
                0x00000000240008ac                htim17
 .bss.hdma_tim2_ch1
                0x00000000240008f8       0x78 Core/Src/main.o
                0x00000000240008f8                hdma_tim2_ch1
 .bss.huart4    0x0000000024000970       0x8c Core/Src/main.o
                0x0000000024000970                huart4
 .bss.huart7    0x00000000240009fc       0x8c Core/Src/main.o
                0x00000000240009fc                huart7
 .bss.huart8    0x0000000024000a88       0x8c Core/Src/main.o
                0x0000000024000a88                huart8
 .bss.huart2    0x0000000024000b14       0x8c Core/Src/main.o
                0x0000000024000b14                huart2
 .bss.huart3    0x0000000024000ba0       0x8c Core/Src/main.o
                0x0000000024000ba0                huart3
 .bss.huart6    0x0000000024000c2c       0x8c Core/Src/main.o
                0x0000000024000c2c                huart6
 .bss.mainTaskHandle
                0x0000000024000cb8        0x4 Core/Src/main.o
                0x0000000024000cb8                mainTaskHandle
 .bss.sinsTaskHandle
                0x0000000024000cbc        0x4 Core/Src/main.o
                0x0000000024000cbc                sinsTaskHandle
 .bss.gpsTaskHandle
                0x0000000024000cc0        0x4 Core/Src/main.o
                0x0000000024000cc0                gpsTaskHandle
 .bss.rcTaskHandle
                0x0000000024000cc4        0x4 Core/Src/main.o
                0x0000000024000cc4                rcTaskHandle
 .bss.mixerTaskHandle
                0x0000000024000cc8        0x4 Core/Src/main.o
                0x0000000024000cc8                mixerTaskHandle
 .bss.guidanceTaskHandle
                0x0000000024000ccc        0x4 Core/Src/main.o
                0x0000000024000ccc                guidanceTaskHandle
 .bss.LZAP      0x0000000024000cd0        0x4 Core/Src/main.o
                0x0000000024000cd0                LZAP
 .bss.__sbrk_heap_end
                0x0000000024000cd4        0x4 Core/Src/sysmem.o
 .bss.pxCurrentTCB
                0x0000000024000cd8        0x4 Middlewares/Third_Party/FreeRTOS/Source/tasks.o
                0x0000000024000cd8                pxCurrentTCB
 .bss.pxReadyTasksLists
                0x0000000024000cdc       0x8c Middlewares/Third_Party/FreeRTOS/Source/tasks.o
 .bss.xDelayedTaskList1
                0x0000000024000d68       0x14 Middlewares/Third_Party/FreeRTOS/Source/tasks.o
 .bss.xDelayedTaskList2
                0x0000000024000d7c       0x14 Middlewares/Third_Party/FreeRTOS/Source/tasks.o
 .bss.pxDelayedTaskList
                0x0000000024000d90        0x4 Middlewares/Third_Party/FreeRTOS/Source/tasks.o
 .bss.pxOverflowDelayedTaskList
                0x0000000024000d94        0x4 Middlewares/Third_Party/FreeRTOS/Source/tasks.o
 .bss.xPendingReadyList
                0x0000000024000d98       0x14 Middlewares/Third_Party/FreeRTOS/Source/tasks.o
 .bss.xTasksWaitingTermination
                0x0000000024000dac       0x14 Middlewares/Third_Party/FreeRTOS/Source/tasks.o
